:1080000070710420091B01007FFF0200DD1A0100CE
:10801000DD1A0100DD1A0100DD1A0100DD1A010080
:10802000000000000000000000000000BD1301007F
:10803000DD1A01000000000059130100DD1A0100E3
:1080400049140100491401004914010049140100B8
:1080500049140100491401004914010049140100A8
:108060004914010049140100491401004914010098
:108070004914010049140100491401004914010088
:108080004914010049140100491401004914010078
:108090004914010049140100491401004914010068
:1080A0004914010049140100491401004914010058
:1080B0004914010049140100491401004914010048
:1080C0004914010049140100491401004914010038
:1080D0004914010049140100491401004914010028
:1080E0004914010049140100491401004914010018
:1080F0004914010049140100491401004914010008
:1081000049140100491401004914010049140100F7
:1081100049140100491401004914010049140100E7
:1081200049140100491401004914010049140100D7
:1081300049140100491401004914010049140100C7
:1081400049140100491401004914010049140100B7
:0481500049140100CD
:04815400FFFFFFFF2B
:1081580081F0004102E000BF83F0004330B54FEAF0
:1081680041044FEA430594EA050F08BF90EA020F5D
:108178001FBF54EA000C55EA020C7FEA645C7FEAF0
:10818800655C00F0E2804FEA5454D4EB5555B8BF13
:108198006D420CDD2C4480EA020281EA030382EA84
:1081A800000083EA010180EA020281EA0303362D16
:1081B80088BF30BD11F0004F4FEA01314FF4801CE9
:1081C8004CEA113102D0404261EB410113F0004FFB
:1081D8004FEA03334CEA133302D0524263EB4303B2
:1081E80094EA050F00F0A780A4F10104D5F1200E50
:1081F8000DDB02FA0EFC22FA05F2801841F10001AB
:1082080003FA0EF2801843FA05F359410EE0A5F17E
:1082180020050EF1200E012A03FA0EFC28BF4CF0AF
:10822800020C43FA05F3C01851EBE37101F0004565
:1082380007D54FF0000EDCF1000C7EEB00006EEB72
:108248000101B1F5801F1BD3B1F5001F0CD34908FC
:108258005FEA30004FEA3C0C04F101044FEA445253
:1082680012F5800F80F09A80BCF1004F08BF5FEADA
:10827800500C50F1000041EB045141EA050130BDBA
:108288005FEA4C0C404141EB0101013C28BFB1F5CC
:10829800801FE9D291F0000F04BF01460020B1FA17
:1082A80081F308BF2033A3F10B03B3F120020CDAEA
:1082B8000C3208DD02F1140CC2F10C0201FA0CF0C8
:1082C80021FA02F10CE002F11402D8BFC2F1200C2D
:1082D80001FA02F120FA0CFCDCBF41EA0C019040E3
:1082E800E41AA2BF01EB0451294330BD6FEA04042C
:1082F8001F3C1CDA0C340EDC04F11404C4F1200217
:1083080020FA04F001FA02F340EA030021FA04F328
:1083180045EA030130BDC4F10C04C4F1200220FA7F
:1083280002F001FA04F340EA0300294630BD21FABD
:1083380004F0294630BD94F0000F83F4801306BF83
:1083480081F480110134013D4EE77FEA645C18BF77
:108358007FEA655C29D094EA050F08BF90EA020F0E
:1083680005D054EA000C04BF1946104630BD91EA06
:10837800030F1EBF0021002030BD5FEA545C05D109
:108388004000494128BF41F0004130BD14F5800448
:108398003CBF01F5801130BD01F0004545F0FE41BC
:1083A80041F470014FF0000030BD7FEA645C1ABFF1
:1083B800194610467FEA655C1CBF0B46024650EA28
:1083C800013406BF52EA033591EA030F41F4002154
:1083D80030BD00BF90F0000F04BF0021704730B5DA
:1083E8004FF4806404F132044FF000054FF00001AF
:1083F80050E700BF90F0000F04BF0021704730B570
:108408004FF4806404F1320410F0004548BF404244
:108418004FF000013EE700BF42004FEAE2014FEA99
:1084280031014FEA02701FBF12F07F4393F07F4F74
:1084380081F06051704732F07F4208BF704793F077
:108448007F4F04BF41F40021704730B54FF460748A
:1084580001F0004521F000411CE700BF50EA01028D
:1084680008BF704730B54FF000050AE050EA010236
:1084780008BF704730B511F0004502D5404261EBA6
:1084880041014FF4806404F132045FEA915C3FF4E7
:10849800D8AE4FF003025FEADC0C18BF03325FEA84
:1084A800DC0C18BF033202EBDC02C2F1200300FA35
:1084B80003FC20FA02F001FA03FE40EA0E0021FA5A
:1084C80002F11444BDE600BF70B54FF0FF0C4CF448
:1084D800E06C1CEA11541DBF1CEA135594EA0C0FFA
:1084E80095EA0C0F00F0DEF82C4481EA030621EA35
:1084F8004C5123EA4C5350EA013518BF52EA033570
:1085080041F4801143F4801338D0A0FB02CE4FF021
:108518000005E1FB02E506F00042E0FB03E54FF051
:108528000006E1FB03569CF0000F18BF4EF0010E49
:10853800A4F1FF04B6F5007F64F5407404D25FEA45
:108548004E0E6D4146EB060642EAC62141EA5551F8
:108558004FEAC52040EA5E504FEACE2EB4F1FD0C3A
:1085680088BFBCF5E06F1ED8BEF1004F08BF5FEAB8
:10857800500E50F1000041EB045170BD06F000466A
:1085880046EA010140EA020081EA0301B4EB5C0417
:10859800C2BFD4EB0C0541EA045170BD41F480110F
:1085A8004FF0000E013C00F3AB8014F1360FDEBF34
:1085B800002001F0004170BDC4F10004203C35DA10
:1085C8000C341BDC04F11404C4F1200500FA05F393
:1085D80020FA04F001FA05F240EA020001F0004234
:1085E80021F0004110EBD37021FA04F642EB0601AA
:1085F8005EEA430E08BF20EAD37070BDC4F10C04D4
:10860800C4F1200500FA04F320FA05F001FA04F297
:1086180040EA020001F0004110EBD37041F1000183
:108628005EEA430E08BF20EAD37070BDC4F120058E
:1086380000FA05F24EEA020E20FA04F301FA05F2F6
:1086480043EA020321FA04F001F0004121FA04F29E
:1086580020EA020000EBD3705EEA430E08BF20EA6E
:10866800D37070BD94F0000F0FD101F000464000A8
:1086780041EB010111F4801F08BF013CF7D041EA2A
:10868800060195F0000F18BF704703F0004652002E
:1086980043EB030313F4801F08BF013DF7D043EAFF
:1086A8000603704794EA0C0F0CEA135518BF95EAB5
:1086B8000C0F0CD050EA410618BF52EA4306D1D13C
:1086C80081EA030101F000414FF0000070BD50EA5B
:1086D800410606BF1046194652EA430619D094EAE5
:1086E8000C0F02D150EA013613D195EA0C0F05D1CF
:1086F80052EA03361CBF104619460AD181EA030123
:1087080001F0004141F0FE4141F470014FF00000DA
:1087180070BD41F0FE4141F4780170BD70B54FF075
:10872800FF0C4CF4E06C1CEA11541DBF1CEA1355F5
:1087380094EA0C0F95EA0C0F00F0A7F8A4EB0504D7
:1087480081EA030E52EA03354FEA013100F08880CE
:108758004FEA03334FF0805545EA131343EA126397
:108768004FEA022245EA111545EA10654FEA00264C
:108778000EF000419D4208BF964244F1FD0404F505
:10878800407402D25B084FEA3202B61A65EB030561
:108798005B084FEA32024FF480104FF4002CB6EB1E
:1087A800020E75EB030E22BFB61A754640EA0C009E
:1087B8005B084FEA3202B6EB020E75EB030E22BFDE
:1087C800B61A754640EA5C005B084FEA3202B6EB1F
:1087D800020E75EB030E22BFB61A754640EA9C00DE
:1087E8005B084FEA3202B6EB020E75EB030E22BFAE
:1087F800B61A754640EADC0055EA060E18D04FEA6C
:10880800051545EA16754FEA06164FEAC30343EA0B
:1088180052734FEAC2025FEA1C1CC0D111F4801FD8
:108828000BD141EA00014FF000004FF0004CB6E7D1
:1088380011F4801F04BF01430020B4F1FD0C88BF70
:10884800BCF5E06F3FF6AFAEB5EB030C04BFB6EB7B
:10885800020C5FEA500C50F1000041EB045170BD6E
:108868000EF0004E4EEA113114EB5C04C2BFD4EB9B
:108878000C0541EA045170BD41F480114FF0000E1F
:10888800013C90E645EA060E8DE60CEA135594EA9B
:108898000C0F08BF95EA0C0F3FF43BAF94EA0C0F9E
:1088A8000AD150EA01347FF434AF95EA0C0F7FF413
:1088B80025AF104619462CE795EA0C0F06D152EA67
:1088C80003353FF4FDAE1046194622E750EA41064B
:1088D80018BF52EA43067FF4C5AE50EA41047FF45C
:1088E8000DAF52EA43057FF4EBAE12E74FEA4102BF
:1088F80012F5001215D211D56FF47873B3EB6252EA
:1089080012D94FEAC12343F0004343EA505311F010
:10891800004F23FA02F018BF404270474FF00000A2
:10892800704750EA013005D111F0004008BF6FF0E0
:10893800004070474FF00000704700BF4FEA410207
:10894800B2F1E04324BFB3F5001CDCF1FE5C0DD9A5
:1089580001F0004C4FEAC0024CEA5070B2F1004FEF
:1089680040EB830008BF20F00100704711F0804FF2
:1089780021D113F13872BCBF01F00040704741F4B7
:1089880080114FEA5252C2F11802C2F1200C10FABB
:108998000CF320FA02F018BF40F001004FEAC1239F
:1089A8004FEAD32303FA0CFC40EA0C0023FA02F343
:1089B8004FEA4303CCE77FEA625307D150EA013319
:1089C8001EBF4FF0FE4040F44000704701F00040E9
:1089D80040F0FE4040F40000704700BF80F00040C7
:1089E80002E000BF81F0004142001FBF5FEA41037F
:1089F80092EA030F7FEA226C7FEA236C6AD04FEA7F
:108A08001262D2EB1363C1BFD218414048404140C3
:108A1800B8BF5B42192B88BF704710F0004F40F475
:108A2800000020F07F4018BF404211F0004F41F491
:108A3800000121F07F4118BF494292EA030F3FD05D
:108A4800A2F1010241FA03FC10EB0C00C3F1200370
:108A580001FA03F100F0004302D5494260EB4000FF
:108A6800B0F5000F13D3B0F1807F06D340084FEA6A
:108A7800310102F10102FE2A51D2B1F1004F40EB5F
:108A8800C25008BF20F0010040EA030070474900C7
:108A980040EB0000013A28BFB0F5000FEDD2B0FA64
:108AA80080FCACF1080CB2EB0C0200FA0CF0AABF87
:108AB80000EBC25052421843BCBFD0401843704725
:108AC80092F0000F81F4000106BF80F4000001322B
:108AD800013BB5E74FEA41037FEA226C18BF7FEA02
:108AE800236C21D092EA030F04D092F0000F08BF44
:108AF8000846704790EA010F1CBF0020704712F02B
:108B08007F4F04D1400028BF40F00040704712F169
:108B180000723CBF00F50000704700F0004343F0CE
:108B2800FE4040F4000070477FEA226216BF084604
:108B38007FEA23630146420206BF5FEA412390EAC7
:108B4800010F40F4800070474FF0000304E000BFBD
:108B580010F0004348BF40425FEA000C08BF70476E
:108B680043F0964301464FF000001CE050EA010232
:108B780008BF70474FF000030AE000BF50EA010247
:108B880008BF704711F0004302D5404261EB410134
:108B98005FEA010C02BF84460146002043F0B64359
:108BA80008BFA3F18053A3F50003BCFA8CF2083A7E
:108BB800A3EBC25310DB01FA02FC634400FA02FC87
:108BC800C2F12002BCF1004F20FA02F243EB02008E
:108BD80008BF20F00100704702F1200201FA02FCF0
:108BE800C2F1200250EA4C0021FA02F243EB0200E3
:108BF80008BF20EADC7070474FF0FF0C1CEAD05227
:108C08001EBF1CEAD15392EA0C0F93EA0C0F6FD0E7
:108C18001A4480EA010C400218BF5FEA41211ED0C5
:108C28004FF0006343EA501043EA5111A0FB0131B1
:108C38000CF00040B1F5000F3EBF490041EAD37186
:108C48005B0040EA010062F17F02FD2A1DD8B3F102
:108C5800004F40EBC25008BF20F00100704790F071
:108C6800000F0CF0004C08BF49024CEA502040EAC3
:108C780051207F3AC2BFD2F1FF0340EAC250704789
:108C880040F400004FF00003013A5DDC12F1190FC7
:108C9800DCBF00F000407047C2F10002410021FA39
:108CA80002F1C2F1200200FA02FC5FEA310040F151
:108CB800000053EA4C0308BF20EADC70704792F0CA
:108CC800000F00F0004C02BF400010F4000F013A02
:108CD800F9D040EA0C0093F0000F01F0004C02BFFD
:108CE800490011F4000F013BF9D041EA0C018FE76C
:108CF8000CEAD15392EA0C0F18BF93EA0C0F0AD072
:108D080030F0004C18BF31F0004CD8D180EA010097
:108D180000F00040704790F0000F17BF90F0004F30
:108D2800084691F0000F91F0004F14D092EA0C0F12
:108D380001D142020FD193EA0C0F03D14B0218BFA5
:108D4800084608D180EA010000F0004040F0FE40EB
:108D580040F40000704740F0FE4040F44000704787
:108D68004FF0FF0C1CEAD0521EBF1CEAD15392EA06
:108D78000C0F93EA0C0F69D0A2EB030280EA010CF6
:108D880049024FEA402037D04FF0805343EA11118F
:108D980043EA10130CF000408B4238BF5B0042F1ED
:108DA8007D024FF4000C8B4224BF5B1A40EA0C0092
:108DB800B3EB510F24BFA3EB510340EA5C00B3EBC4
:108DC800910F24BFA3EB910340EA9C00B3EBD10FB2
:108DD80024BFA3EBD10340EADC001B0118BF5FEA04
:108DE8001C1CE0D1FD2A3FF650AF8B4240EBC2502D
:108DF80008BF20F0010070470CF0004C4CEA5020EE
:108E08007F32C2BFD2F1FF0340EAC250704740F43C
:108E180000004FF00003013A37E792F0000F00F02E
:108E2800004C02BF400010F4000F013AF9D040EAAC
:108E38000C0093F0000F01F0004C02BF490011F440
:108E4800000F013BF9D041EA0C0195E70CEAD15338
:108E580092EA0C0F08D142027FF47DAF93EA0C0F1F
:108E68007FF470AF084676E793EA0C0F04D14B0203
:108E78003FF44CAF08466EE730F0004C18BF31F0B5
:108E8800004CCAD130F000427FF45CAF31F00043AF
:108E98007FF43CAF5FE700BF7BB972B90029BEBF62
:108EA80000204FF0004106E008BF00281CBF6FF00B
:108EB80000414FF0FF3000F075B8ADF1080C6DE9D6
:108EC80004CE002909DB002B1ADB00F042F9DDF89B
:108ED80004E0DDE9022304B07047404261EB410140
:108EE800002B1BDB00F035F9DDF804E0DDE9022397
:108EF80004B0404261EB4101524263EB43037047C7
:108F0800524263EB430300F024F9DDF804E0DDE9A5
:108F1800022304B0404261EB41017047524263EBC7
:108F2800430300F016F9DDF804E0DDE9022304B09C
:108F3800524263EB4303704753B94AB9002908BF4B
:108F480000281CBF4FF0FF314FF0FF3000F02AB867
:108F5800ADF1080C6DE904CE00F0FBF8DDF804E093
:108F6800DDE9022304B07047D0B500220B4B06465A
:108F78000F46FFF7A9FA00F09FF80446FFF72AFA10
:108F88000022074BFFF7A0FA02460B463046394647
:108F9800FFF7E2F800F090F82146D0BD0000F03D60
:108FA8000000F041704700BF4FF0FF3C06E000BFF3
:108FB8004FF0010C02E000BF4FF0010C4DF804CD5A
:108FC8004FEA410C7FEA6C5C4FEA430C18BF7FEA1A
:108FD8006C5C1BD001B050EA410C0CBF52EA430C48
:108FE80091EA030F02BF90EA020F0020704710F1C8
:108FF800000F91EA030F58BF994208BF90422CBF57
:10900800D8176FEAE37040F0010070474FEA410C4F
:109018007FEA6C5C02D150EA013C07D14FEA430C6D
:109028007FEA6C5CD6D152EA033CD3D05DF8040BDE
:10903800704700BF8446104662468C461946634610
:1090480000E000BF01B5FFF7B7FF002848BF10F1E7
:10905800000F01BD4DF808EDFFF7F4FF0CBF01202C
:1090680000205DF808FB00BF4DF808EDFFF7EAFFA8
:1090780034BF012000205DF808FB00BF4DF808ED63
:10908800FFF7E0FF94BF012000205DF808FB00BF58
:109098004DF808EDFFF7CEFF94BF012000205DF8E2
:1090A80008FB00BF4DF808EDFFF7C4FF34BF0120EF
:1090B80000205DF808FB00BF4A0011D212F500122B
:1090C80011D20DD56FF47873B3EB62520ED44FEA18
:1090D800C12343F0004343EA505323FA02F0704798
:1090E8004FF00000704750EA013002D14FF0FF30D6
:1090F80070474FF0000070474FEA410C7FEA6C5C04
:1091080002D150EA013C0AD14FEA430C7FEA6C5C79
:1091180002D152EA033C02D14FF0000070474FF0F1
:109128000100704738B50022002304460D46FFF7BA
:109138009BFF28B920462946BDE83840FFF714BFF1
:10914800204605F10041FFF70FFF404261EB410166
:1091580038BD2DE9F04786468C460846089E1546D8
:1091680074461946002B40F0C1808542B2FA82F25B
:1091780045D94AB1C2F1200300FA02FC9540944057
:109188002EFA03F343EA0C0C4FEA154EA8B2230C4F
:10919800BCFBFEF80EFB18CC08FB00F943EA0C43B5
:1091A800994528D9EB1808F1FF3704D2994502D917
:1091B800A8F102072B44A3EB0903A4B2B3FBFEFCFE
:1091C8000EFB1C330CFB00F044EA0344A04214D904
:1091D8002C190CF1FF3304D2A04202D9ACF10203DE
:1091E8002C44241A43EA07401EB1D44000233460BB
:1091F8007360BDE8F0874746DDE76346F1E792BB59
:10920800431B01214FEA154EAFB2200CB3FBFEFC05
:109218000EFB1C330CFB07F840EA0343984561D961
:10922800EB180CF1FF3004D2984502D9ACF10200DA
:109238002B44A3EB0803A4B2B3FBFEFC0EFB1C33C8
:109248000CFB07F744EA0344A7424DD92C190CF14B
:10925800FF3304D2A74202D9ACF102032C44E41B29
:1092680043EA0040C0E7C2F120039540944020FA49
:1092780003F12EFA03F34FEA154E9040AFB20343C1
:10928800B1FBFEFC0EFB1C10190C0CFB07F841EAA5
:109298000041884522D969180CF1FF3004D288456D
:1092A80002D9ACF102002944A1EB08019BB2B1FB41
:1092B800FEFC0EFB1C110CFB07F743EA01439F421F
:1092C8000ED9EB180CF1FF3104D29F4202D9ACF150
:1092D80002012B44DB1B41EA004193E76046E3E7C8
:1092E8006146F7E76046A4E76346B8E7834206D9D4
:1092F80016B9002108467CE7C6E900E0F9E7B3FAA9
:1093080083F78FB9834201D3724508D8BEEB0204B4
:1093180060EB030301209C461EB9002169E738462B
:10932800FAE7C6E9004CF8E7C7F1200CBB400EFA93
:1093380007F522FA0CF42EFA0CF1BA401C4320FA75
:109348000CF3B8404FEA144901431FFA84FEB3FBFB
:10935800F9F809FB18300B0C08FB0EFA43EA004336
:109368009A4540D9E31808F1FF3004D29A4502D94A
:10937800A8F102002344A3EB0A0389B2B3FBF9F86E
:1093880009FB183308FB0EFE41EA03418E452CD930
:10939800611808F1FF3304D28E4502D9A8F10203FF
:1093A800214443EA0040A1EB0E01A0FB029841458D
:1093B800CE46434602D306D14D4504D20138B9EB17
:1093C800020E68EB0403002EA7D0B5EB0E0261EB8A
:1093D800030101FA0CFC22FA07F3F9404CEA0303F3
:1093E800C6E9003199E74046C5E74346D9E710F892
:1093F800012B11F8013B012A28BF9A42F7D0D01A55
:109408007047034613F8012B002AFBD1181A0138BC
:109418007047000000000000F8B50C46FEF7EAFFB0
:1094280025A3D3E90023FFF74FF8FFF787FA05468E
:10943800631EDBB2022B96BF274A002052F8230096
:109448002946FFF7D9FBFEF7E7FF064628460F46F1
:10945800FEF7E2FF02460B4600202049FEF77CFE9D
:1094680002460B4630463946FFF758F9FFF766FAC9
:109478001B49FFF775FCFEF7CFFF22F0EBF810A3AE
:10948800D3E90023FFF74AF90FA3D3E90023FEF736
:1094980065FE02460B4600201249FFF73FF9FFF729
:1094A8004DFAFEF7B9FF0AA3D3E90023FEF754FEED
:1094B800FFF744FAF8BD00BF02A0663AB3CD2C3FCF
:1094C800000000000002AF4083DBB5DCE1796B3FB0
:1094D8006666666666127140086D03000000084003
:1094E80000401C460000F03FF0B5644D87B0D5F849
:1094F8006031996811F001011AD140F6034005AABC
:1095080010F036FF0446002840F0B5800598C3687F
:109518001B785BB905F1CC03D3E8AF2F02F0090241
:10952800D3E8EF1FC3E8E42F002CF9D118F0EEFAC6
:10953800002141F2030005AA10F01AFF0446002892
:1095480040F09980059B4E4EDA68D2F80100D2F8B7
:10955800051003C6184618F0D9FA214641F2010051
:1095680005AA10F005FF0446002840F084800598FD
:10957800C3685A7885F868205A88A5F86A201A7945
:1095880085F86920B3F80720A5F86C20B3F80530F2
:10959800A5F86E3018F0BAFA214641F2020005AA81
:1095A80010F0E6FE0446002865D1059FFA68531CB2
:1095B8004132344618685968083303C49342264632
:1095C800F7D1384618F0A2FA12F0F6FC0446002843
:1095D80051D195F8823013F0200318D1294A2A492D
:1095E800CDE901320093022228F0E9F995F87430A8
:1095F80013F040034CD1254A1846CDE901322249DF
:109608000122009328F0DBF96FF0120433E0072100
:1096180040F6334010F05EFE0646002800F0408118
:1096280007210C3018F094FB452303700623C0F87B
:1096380002408471447004712246C370314640F67A
:10964800334010F095FE0446A8B9012140F6314098
:1096580010F040FE0646002800F0228101210C305F
:109668002AF029F82246314640F6314010F080FEB3
:1096780004460028BAD0204607B0F0BD008000207C
:109688007080002073B00300D8680300A1B0030005
:10969800002142F2030005AA10F06AFE04460028E1
:1096A800E9D1059BBE4EDA68D2F80100D2F8051060
:1096B80003C6184618F02AFA214642F2020005AA03
:1096C80010F056FE04460028D5D1059CE368B3F88F
:1096D800012091B2A5F8FC2029B1DA78114606F1EB
:1096E80028002BF096FB204618F010FA95F87460C5
:1096F80016F0200618D1022140F66D4010F0EAFD60
:109708000446002800F0CC8002210C3018F020FB21
:109718000123214603704670324640F66D4010F032
:1097280027FE04460028A6D195F894301F0712D5C5
:10973800002142F21C0005AA10F01AFE0446002877
:1097480099D10598C368D3F80120D3F80530C5E945
:10975800362318F0DBF995F8D0309E0624D50DF1A4
:10976800120104A810F07AFE0446002883D10421CF
:1097780042F2240010F0AEFD0646002800F090806A
:1097880004210C3018F0E4FABDF8103022460380AA
:10979800BDF812303146438042F2240010F0E8FD53
:1097A800044600287FF467AF95F8D0305C0610D5E2
:1097B800002142F22A0005AA10F0DAFD044600282A
:1097C8007FF459AF0598C3685B7885F8183118F0AD
:1097D8009DF9082142F2010010F07CFD04460028A2
:1097E8005ED008210C3018F0B3FA95F8D01040F28A
:1097F800022311F0400F08BF0323024688074CBF1D
:1098080043F02C0043F00C008B0695F8D13048BF8C
:1098180040F0400013F0090F95F89A3018BF40F453
:10982800006003F00603CF0748BF40F01000062B86
:1098380008BF40F4C070002128F0D8F82146002263
:1098480042F2010010F094FD044600287FF413AFA3
:1098580095F87430B5F8FC109E0624D4C9B941F2C5
:10986800050005AA10F084FD044600287FF403AF24
:10987800B5F8FC30059C4BB9E368B3F80120A5F8AE
:10988800FC209A88474811462BF0C3FA204618F066
:109898003DF9082140F6014010F01CFD044680B94E
:1098A8006FF06804E7E60029F3D13F4B0122CDE9C8
:1098B80001033E490346009028F081F86FF0040444
:1098C800D9E608210C3018F043FA95F8D030024652
:1098D800D9071CD44FF00051354828F087F82146A5
:1098E800002240F6014010F043FD044600287FF4B2
:1098F800C2AE014605AA4FF6014010F039FD0646F2
:1099080048B12C4BCDE901430094234613E022A132
:10991800D1E90001E1E7059818F0F8F831464FF66B
:10992800024005AA10F024FD0446C0B1224B00965F
:10993800CDE901633346022218461C4928F03FF856
:1099480011F0BAFF044600287FF495AE13F09AFC94
:10995800044600287FF48FAE11F0FEFA8BE60598D6
:10996800C368B3F80130A5F8B93018F0CFF895F806
:10997800B9305B07E4D521464FF6034005AA10F03D
:10998800F7FC08B10D4BBDE70598C3685B7885F80F
:10999800B83018F0BBF8D3E79088000200800020A8
:1099A800D080002000810020C5B00300D8680300E3
:1099B80010880002E8B003000CB1030035B10300C1
:1099C8002DE9F041C1F30A5702460B460C46A7F2AF
:1099D800FF3605468046132E36DC002E17DA34A3F0
:1099E800D3E90023FEF7BAFB00220023FFF75AFB56
:1099F80050B1002C58DA24F000442C430025AC4226
:109A08002D4C08BF4FF0004423462A4625E02B4F33
:109A1800374101EA070C5CEA000C1ED024A3D3E905
:109A28000023FEF79BFB00220023FFF73BFB0028E7
:109A3800EAD0002C4FF00005BEBF4FF4801333412D
:109A4800E41824EA0704DFE7332E0ADDB6F5806F51
:109A580003D1FEF783FB02460B4610461946BDE8C4
:109A6800F081A7F213474FF0FF3C2CFA07F70742A3
:109A7800F3D00FA3D3E90023FEF770FB00220023E5
:109A8800FFF710FB0028BFD0002C0ADA142E01D1F2
:109A9800013406E0C6F134060123B3401D444545B0
:109AA800F6D325EA0705AFE700252C46ACE700BF4B
:109AB8009C7500883CE4377E0000F0BFFFFF0F0074
:109AC800B1F5801F02460B462DE9F04F0D4687B0D1
:109AD80024DA21F00044044308D1002200230020A6
:109AE800C949FEF71BFE07B0BDE8F08F002904DA6C
:109AF800FEF732FB00220023F3E70022C34BFEF7F8
:109B0800E3FC0B460D4602466FF03501C04885421E
:109B180006DD10461946FEF721FBE4E70021F5E7CC
:109B28002C15C5F3130510460022A4F2FF340C448B
:109B380005F5152101F6647101F4801686F07F5150
:109B480004EB165481F4401141EA05031946B14B60
:109B5800FEF702FBAB1C82468B46C3F313030022BD
:109B6800022B53DC0023FFF775FAD0B1002C00F06C
:109B780020812046FEF73EFC06460F468EA3D3E919
:109B88000023FEF7A1FC04460D46304639468CA357
:109B9800D3E90023FEF798FC02460B4620462946E7
:109BA800B9E789A3D3E9002350465946FEF78CFC50
:109BB80002460B4600209849FEF7CEFA06460F46A5
:109BC80052465B4650465946FEF77EFC02460B4617
:109BD80030463946FEF778FC06460F4614B9324639
:109BE8003B46A0E02046FEF705FC8046894672A366
:109BF800D3E90023FEF768FC04460D464046494673
:109C08006FA3D3E90023FEF75FFCA5E04FF0804384
:109C1800A5F5C226FEF7A2FA02460B46504659465B
:109C2800C5F5D725FEF77AFDA6F27A465135CDE976
:109C3800000120463543FEF7DDFBDDE90023CDE9D1
:109C4800020110461946FEF73FFC02460B46CDE9D5
:109C58000423FEF739FC804689465DA3D3E9002337
:109C6800FEF732FC5CA3D3E90023FEF777FA4246FD
:109C78004B46FEF729FC5AA3D3E90023FEF76EFAF8
:109C880042464B46FEF720FC57A3D3E90023FEF7D4
:109C980065FADDE90423FEF717FC55A3D3E9002391
:109CA800CDE9040140464946FEF70EFC52A3D3E92C
:109CB8000023FEF753FA42464B46FEF705FC50A335
:109CC800D3E90023FEF74AFA42464B46FEF7FCFB6F
:109CD80002460B46DDE90401FEF740FA002D8046F6
:109CE800894648DD00224C4B50465946FEF7ECFBAE
:109CF80052465B46FEF7E8FB02460B4606460F4611
:109D080040464946FEF72AFADDE90023FEF7DCFB68
:109D18008046894664B902460B4630463946FEF706
:109D28001BFA02460B4650465946FEF715FADAE684
:109D380021A3D3E90023DDE90201FEF7C5FB0446B0
:109D48000D461FA3D3E90023DDE90201FEF7BCFBA2
:109D580042464B46FEF702FA02460B463046394663
:109D6800FEF7FAF952465B46FEF7F6F902460B464D
:109D780020462946D9E702460B4650465946FEF783
:109D8800EBF9DDE90023FEF79FFB06460F46002CA2
:109D98003FF425AF08A3D3E90023DDE90201FEF76C
:109DA80093FB04460D4606A3D3E90023DDE902012F
:109DB80029E70020002196E60000E0FE422EE63F5B
:109DC800763C7935EF39EA3D555555555555D53FCA
:109DD80044523EDF12F1C23FDE03CB966446C73FD2
:109DE800599322942449D23F935555555555E53FEB
:109DF8009FC678D0099AC33FAF788E1DC571CC3FF6
:109E080004FA97999999D93F000050C3000050432C
:109E1800FFFFEF7F0000F03F0000E03F0000000080
:109E28002DE9F04F1F469DB000230C4682460E9246
:109E380018934FF00008974B4FF000091D6828460B
:109E4800FFF7DFFA22468346179213782B2B3BD075
:109E58002CD80D2B26D8082B26D8002B2FD0002342
:109E68000C93179E3378302B72D1737803F0DF038D
:109E7800582B63D10C9B17A9874A5046019318ABFE
:109E88000297009319AB22F07FFF10F007050446F4
:109E980035D0062D1AD10E9B0BB101361E604046F7
:109EA800494637E0202BDAD10132CDE72D2BD6D128
:109EB80001230C93531C17935378002BD1D10E9B7D
:109EC800002BECD01C60EAE70023F2E7189A3AB1BD
:109ED80035211AA82BF05AFE1899504623F014FA87
:109EE800013D199A042D06D8DFE805F01703202351
:109EF8001700DDE91A89210701D549F000490E9BB1
:109F080013B1179B0E9A13600C9B002BC7D04046C9
:109F180009F100411DB0BDE8F08FDDE91A8302F2B6
:109F2800334223F4801343EA0259E4E7DFF86C91E3
:109F3800E1E76FF000494FF0FF38DCE7179B5A1C48
:109F480017925B78302BF9D0002BD8D0012300E092
:109F58000023002704930A22179BCDE905770A936B
:109F680017980678A6F13003D9B2092924D95A4698
:109F780029462BF09AFA00282DD000203246059D5C
:109F880083460346652A01D0452A13D11DB9049A90
:109F9800024394D00025179C621C179262782B2AE2
:109FA8006ED02D2A72D04FF0000CA2F13001092991
:109FB8007AD91794002699E0059901300829179055
:109FC800D7BF069902FB073702FB01330693059BAF
:109FD80001330593C4E7179B03EB0B02179213F8A1
:109FE8000B20059BA3B383461D46A2F13003092B22
:109FF80012D90123C6E7179B01305A1C17925A78C9
:10A00800302AF8D0A2F13103082B00F2EA84834603
:10A018000020179B05460A93303A00F1010311D03E
:10A028009B4400EB050C2B460A21634512D12B18E3
:10A038000135082B054419DC06990A2303FB012383
:10A0480006930023179A1846511C17915278CCE7AB
:10A058000598D5E7082B03F1010303DC069E4E4360
:10A068000696E2E7102BD8BF4F43DEE70F2BDCBF85
:10A078000A2303FB0727E4E74FF0000B012386E7D9
:10A088004FF0000CA21C1792A2788EE74FF0010C3B
:10A09800F8E700BF587B0300E47A03000000F07F74
:10A0A800179A511C17915278302AF9D0A2F1310130
:10A0B80008293FF67FAF303A0792179A0D92179A00
:10A0C800561C17965278A2F1300EBEF1090F38D9F6
:10A0D8000D99761A082E44F61F6603DC07998E42FE
:10A0E800A8BF0E46BCF1000F00D07642002D4FD11C
:10A0F800049908437FF403AF002B7FF4E0AE692A8C
:10A1080029D026DC492A26D04E2A7FF4D8AE9D498C
:10A1180017A82BF0CBFB00283FF4D1AE179B1B7878
:10A12800282B2FD11AAA984917A82BF0D3FB05285A
:10A1380028D11B9BDDF8688043F0FF4949F4E0090A
:10A14800DDE6079E0A2101FB0621A1F130020792F4
:10A15800B5E76E2AD9E78D4917A82BF0A7FB002889
:10A168003FF4ADAE179B17A88949013B17932BF015
:10A178009DFB10B9179B01331793DFF818924FF026
:10A188000008BCE6844821F09FFA80468946B6E676
:10A19800A6EB0B0306982C460F93059B002B08BFD4
:10A1A8002B46102D0593A8BF1024FEF713F9092D8F
:10A1B8008046894614DCA6EB0B03002B3FF49FAEC8
:10A1C800A6EB0B0379DD162B45DC0F9B4246734942
:10A1D80001EBC3014B46D1E90001FEF775F9D4E75D
:10A1E8006E4B03EBC40353E91223FEF76DF9804667
:10A1F80089463846FEF7EEF802460B464046494681
:10A20800FDF7ACFF0F2D80468946D4DD2C1BA6EB4D
:10A218000B031C44002C26DC00F0A380644214F0DD
:10A228000F020AD05D4B4046494603EBC203D3E90F
:10A238000023FEF773FA80468946241100F09180C6
:10A248001F2C40F3B38022234FF000084FF0000981
:10A25800CAF8003053E6C5F12503A6EB0B0293427A
:10A2680019DA2C1B144414F00F030AD04B49424648
:10A2780001EBC3014B46D1E90001FEF725F9804601
:10A28800894634F00F046CD0B4F59A7F41DD22235F
:10A29800CAF8003071E7C5F10F05404C42464B46FD
:10A2A80004EBC501D1E90001FEF70EF90F9B5D1B18
:10A2B80004EBC504D4E900238FE71633A6DBABEB28
:10A2C8000602364B4046494603EBC203D3E9002356
:10A2D800FEF724FA59E7002306932223DFF8B49007
:10A2E8004FF00008CAF800301899504623F00CF8CF
:10A2F8000699504623F008F80599504623F004F8CB
:10A308001099504623F000F80799504622F0FCFFB8
:10A31800F5E50023241140464946214F0493012CBA
:10A3280022DC0BB180468946049BA9F154791C496B
:10A33800424601EBC3014B46D1E90001FEF7C4F8E0
:10A34800144B0A4680460B4016498B429FD8A1F50C
:10A3580080118B4286BFDFF850904FF0FF3802F132
:10A368005479002304934CE0E20704D5D7E900238D
:10A37800FEF7AAF80123049A641008370132049200
:10A38800CDE700BFE2BA0300D07A030080E50300FE
:10A39800B5E603000000F07F47AA0300586B0300EE
:10A3A800306B03000000A07CFFFFEF7F14F0100368
:10A3B80040464946AB4F18BF6A2304930023E2077F
:10A3C80004D5D7E90023FEF77FF80123641007F1CD
:10A3D8000807F4D10BB180468946049B43B1C9F301
:10A3E8000A524946C2F16B03002B50DC6A230493DE
:10A3F8000022002340464946FEF72CFE00287FF441
:10A4080022AF069B5046059A00932B460A9922F0E4
:10A41800E5FF109000283FF43AAF0F9BABEB060B1B
:10A42800002BB4BF5B46002311930F9B23EAE37311
:10A438001493002307930593109B5046596822F004
:10A4480023FF069000283FF448AF109B0C301A6990
:10A4580003F10C01023292002AF096FE1AAB424632
:10A468005046019319AB00934B46CDE90A8923F076
:10A4780085FA189000283FF430AF0121504622F0A9
:10A48800F7FF03460590D0B90023059325E71F2B56
:10A498000EDD342B4FF00008DBBF4FF0FF33C2F165
:10A4A8004B024FF05C799340D8BF03EA01099DE75E
:10A4B8004FF0FF3202FA03F303EA080896E7199C03
:10A4C8001A9A002CA9BF119B149BE718149EB8BFB9
:10A4D8001E1B049BB8BF119FE41A634B1444C2F1BE
:10A4E8003602013C9C4280F2B0801B1B01251F2BC9
:10A4F800A2EB0302CDBFC4F17F449D40002404F5C4
:10A508007F04C2BF04F57B44E23405FA04F407EB88
:10A51800020B049B16445F451E443B46A8BF5B469E
:10A52800B342A8BF3346002BC2BFABEB030BF61AEE
:10A53800FF1A119B002B16DD1A460599504623F089
:10A5480057F8059000289FD00146189A504622F0E7
:10A55800A5FF0D9000283FF4C0AE1899504622F090
:10A56800D3FE0D9B1893BBF1000F71DC0F9B002BE2
:10A5780008DD149A5046069923F03AF80690002808
:10A588003FF4A9AE002E08DD32460699504623F066
:10A5980089F8069000283FF49EAE002F08DD3A4661
:10A5A8000599504623F07EF8059000283FF495AEB3
:10A5B800069A5046189923F0E1F8079000283FF4CE
:10A5C8008CAEC36805990D930023C3602BF093FAF2
:10A5D80000284BDA0D9B53EA080340F0BC80C9F30E
:10A5E8001303002B40F0B78029F000431B0D1B0517
:10A5F800B3F1D66F40F2AF80079B5B6923B9079B25
:10A608001B69012B40F3A78001220799504623F0CC
:10A6180049F8059907902BF06EFA002840F39B80C3
:10A6280029F00043049A1B0D1B05002A79D0B3F1C9
:10A63800D66F6DD8B3F15C7F46D84FF000084FF065
:10A6480000092223CAF800304EE6002401255EE7FF
:10A658005A461899504623F025F81890002885D1B5
:10A668003BE600BF086B030002FCFFFFCB4640F04F
:10A67800A3800D9AC9F31303002A40D0964A934247
:10A6880058D1049B42467BB9B8F1FF3F40F089801E
:10A69800924B99453FF421AE914BDDF8108009EAC1
:10A6A800030303F580191FE68D4B09EA0303B3F191
:10A6B800D46F16D918F101011BD1884A91453FF48E
:10A6C8000CAE03F580198046864B40464946002269
:10A6D800FDF7FAFE0B468046894603437FF404AE35
:10A6E800AFE71E0D4FF0FF31C6F16B06B14088454C
:10A6F800E7D0002C5ED014EA0B0FE5D01EE0002B4B
:10A708004AD1B8F1000F8BD064B314EA0B0F2BE0D9
:10A71800A3F580134FF0FF386FEA13596FEA095910
:10A72800D2E7A3F580134FF0FF386FEA13596FEAA9
:10A738000959D9E59CB114EA090F0CD0049A40468E
:10A7480049462AF0F9FE02460B46DDE90A01FDF703
:10A7580005FD80468946049B002BB5D1C4E515EA62
:10A76800080FEAE718EA050FF5D0049A404649466B
:10A778002AF0E2FE02460B46DDE90A01FDF7ECFC91
:10A788000022002304460D46FEF764FC00287FF4EF
:10A7980054AFA046A946DEE7002CB6D115EA080F4B
:10A7A800E2E724B114EA090F3FF49EADC6E718EAC0
:10A7B800050FF9E72A42A0E7059907982BF0B6F9A3
:10A7C80000224FF0804304460D46FEF757FC002850
:10A7D8006DD00D9B002B78D1B8F1000F56D1C9F37D
:10A7E8001303002B59D100223F4B20462946FEF780
:10A7F8003BFC002858D12046294600223B4BFDF758
:10A8080063FE04460D4605F1004308940993344B52
:10A81800334A0BEA03030BEA02021593344B9A42BC
:10A82800DDE9086740F09E80ABF15479404649461F
:10A8380023F03AF8DDE90823FDF746FE42464B4689
:10A84800FDF78CFC0B46264980462A4A194091425E
:10A8580054D90B9A214B9A4203D10A9B01333FF4F6
:10A868003CADDFF878904FF0FF381899504622F049
:10A878004BFD0699504622F047FD0599504622F0B7
:10A8880043FD0799504622F03FFDD5E5B8F1010F89
:10A8980003D1B9F1000F3FF4D0AE174C0023124D8D
:10A8A800CDE908340024B2E70024104DABE70F4B84
:10A8B800204629460022FDF707FE0D9B04460D465B
:10A8C800002BA0D0CDE90845A1E7074C0023254679
:10A8D800CDE908341C469AE7FFFF0F00FFFFEF7F22
:10A8E8000000F07F000050390000F03F0000E03F1A
:10A8F8000000E07FFFFF9F7C0000F0BF03F1547968
:10A90800049B4E46002BB0D129F00043159A1B0D2D
:10A918001B059A42A9D120462946FEF703FCC9F334
:10A928001306FDF7A3FD0B4602462946204646EAD4
:10A938000806FDF711FC0D9B04460D461E434AD040
:10A948002DA3D3E90023FEF78FFB00287FF4CCACBE
:10A95800204629462AA3D3E90023FEF7A3FB0028B3
:10A9680083D0C1E4049B13B3159BB3F1D46F1ED8F5
:10A978002046294624A3D3E90023FEF77FFB90B1A4
:10A9880029462046FEF798FB012838BF0120FDF72D
:10A9980021FD0D9B04460D46D3B901F100431290E9
:10A9A8001393DDE9126707F1D663159A9F1ADDE95B
:10A9B8000A0122F079FF02460B4630463946FDF778
:10A9C80083FDDDE90A23FDF7C9FB8046894697E741
:10A9D800CDE91245E5E70EA3D3E90023FEF744FBD2
:10A9E800BDE7652A3FF448AB452A3FF445AB012350
:10A9F800FFF77EBBAFF300809535A094FFFFDF3FE4
:10AA080035E5AF350000E03F0000C0FFFFFFDF4144
:10AA18009535A094FFFFCF3F2DE9F04F144697B02E
:10AA28001D46476A8346239ECDE904457FB9102019
:10AA380020F050FE0246CBF8240020B9A24BEA21B0
:10AA4800A24822F0B1F8C0E901770760C760DBF8D7
:10AA58002430196859B15A680123584693404A600E
:10AA68008B6022F051FCDBF8243000221A602B1E88
:10AA7800B7BF23F00043002301220593A8BF33602A
:10AA8800059F934BB8BF3260BB4319D142F20F7395
:10AA9800229A1360C7F31303234300F0E085249B35
:10AAA80053B98C4B21E08C4B08930833249A1360DC
:10AAB800089817B0BDE8F08F864B08930333F5E785
:10AAC800DDE90423CDE90C23DDE90C010022002394
:10AAD800FEF7C0FA804650B10123229A1360249BE6
:10AAE80013B17E4B249A13607D4B0893E0E714ABB7
:10AAF800C7F30A565846019315AB0093DDE90C23BA
:10AB080022F03CFF0390002E78D00D9BA6F2FF3672
:10AB1800CDF84C80C3F3130343F07F53DDE90C01F8
:10AB280043F44013194600226E4BFDF715FB60A352
:10AB3800D3E90023FDF7C8FC5FA3D3E90023FDF7A1
:10AB48000DFB04460D463046FDF754FC5CA3D3E9E3
:10AB58000023FDF7B9FC02460B4620462946FDF7BF
:10AB6800FDFA04460D46FDF7C1FE00220746002304
:10AB780020462946FEF778FA40B13846FDF73AFCF8
:10AB880022462B46FEF766FA00B9013F162F54D825
:10AB9800554B03EBC703DDE90C01D3E90023FEF7AE
:10ABA80063FA00284BD0013F00231293149B9B1B90
:10ABB8005A1E4CBFC3F1010300230A9245BF0693F6
:10ABC800002306930A93002F3BDB0A9B0F973B4415
:10ABD8000A9300230B93209B092B00F28980052BF5
:10ABE800C5BF043B002401242093209B023B032B78
:10ABF80000F28980DFE803F02D3A3859DDE9146363
:10AC08001E4406F23243202BC9BFC3F14003C3F1EF
:10AC180020039F4006F21243D8BF04FA03F006F15E
:10AC2800FF36C4BF24FA03F347EA0300FDF7D2FB5B
:10AC38000122A1F1F873139274E70123B5E712908A
:10AC4800B4E7069BDB1B06937B420B9300230F9311
:10AC5800C1E700230E93219B002B57DC0123994663
:10AC68001A46099321920CE00123F3E700230E937F
:10AC7800219BFB1803F1010909934B46012BB8BF2F
:10AC88000123DBF824000021042202F114059D426F
:10AC980040D94160584622F0F7FA089000283CD184
:10ACA800124B02464FF4D571CAE60123DFE700BF15
:10ACB80061436F63A787D23FB3C8608B288AC63FBA
:10ACC800FB799F501344D33FADE50300BFE6030073
:10ACD8000000F07FBBE60300B2E6030084A4030093
:10ACE80083A403000000F83F586B030033E7030018
:10ACF800012400230E9420934FF0FF33002299463D
:10AD080009931223AEE701230E93F5E7219B994699
:10AD18000993B6E701315200B7E7DBF82430B9F1FF
:10AD28000E0F089A1A606FD8002C6DD0002F36DDF0
:10AD380007F00F02A04BF80503EBC203D3E9003478
:10AD4800CDE910344FEA271417D59C4B04F00F04B3
:10AD58004FF00308D3E90823DDE90C01FDF7DEFC19
:10AD6800CDE90401954D5CB9DDE91023DDE9040165
:10AD7800FDF7D4FCCDE904012BE04FF00208F1E720
:10AD8800E10709D508F10108DDE91001D5E900233B
:10AD9800FDF79AFBCDE9100164100835E3E700F0F0
:10ADA80007817C42844B854D4FF0020804F00F0266
:10ADB800241103EBC203DDE90C01D3E90023FDF7FD
:10ADC80083FB0023CDE90401002C40F0E580002B33
:10ADD800D0D1129BDDE90445002B00F04C81002204
:10ADE800774B20462946FEF73FF9002800F04381BB
:10ADF800B9F1000F00F03F81099B002B00F3E480BC
:10AE0800DDE90C34CDE90434159B002B02DB0E2F51
:10AE180040F342820E9A002A40F067820B9C00257C
:10AE2800DDF81880B8F1000F0DD00A9B002B0ADD61
:10AE38004345069AA8BF4346D21AA8EB03080692D0
:10AE48000A9AD31A0A930B9B0BB30E9B002B00F0A4
:10AE5800A682002C00F0A18229462246584622F0FC
:10AE6800C7FB039A01460546584622F017FB03998B
:10AE78000646584622F048FA0B9B1B1B0B9300F022
:10AE880091820B9A3146584622F0B2FB0390012179
:10AE9800584622F0EDFA0F9B0446002B00F08482FE
:10AEA8001A460146584622F0A3FB209B0446012B74
:10AEB80003DC049B002B00F07C820026236904EB52
:10AEC800830318692AF0C8FDC0F120000F960A9B79
:10AED800184410F01F0000F09182C0F12003042BE9
:10AEE80040F38182C0F11C00069B03448044069312
:10AEF8000A9B03440A93069B002B05DD1A46039917
:10AF0800584622F0CFFB03900A9B002B05DD214613
:10AF18001A46584622F0C6FB0446129B002B00F046
:10AF28007682214603982AF0E6FD002880F26F8297
:10AF380000230A220399584622F008FA0E9B7E1E27
:10AF48000390002B00F05C82002329460A22584611
:10AF580022F0FCF9099B0546002B03DC209B022B01
:10AF680000F35E82B8F1000F05DD294642465846D7
:10AF780022F098FB05460F9B002B00F0D0826968F1
:10AF8800584622F081F90746002840F07F820D4B91
:10AF9800024640F2EA2153E5E20706D508F1010826
:10AFA800D5E90023FDF790FA0123641008350BE773
:10AFB8004FF002080DE700BF586B0300306B030029
:10AFC8000000F03F33E7030020460022AC4B29463F
:10AFD800FDF77AFA7E1E08F10108099CCDE9040103
:10AFE8004046FDF707FADDE90423FDF76DFAA54BA6
:10AFF8000022FDF7B3F8A1F15073CDE910011193C8
:10B00800002C3BD10022A04BDDE90401FDF7A4F898
:10B0180002460B46CDE90423DDE91023FEF742F88A
:10B02800002840F05781DDE9102101F10043DDE9F6
:10B038000401FEF719F800283FF4E2AE0024254683
:10B04800219BDDF820A0DE434FF00008214658463A
:10B0580022F05AF9002D00F0A980B8F1000F05D0B0
:10B06800A84503D04146584622F04EF9294658468D
:10B0780022F04AF99AE03E464C46B1E7834B03EB8F
:10B08800C40353E90201089B1C440E9B002B4AD0C1
:10B0980002460B4600207E49FDF740FBDDE9102300
:10B0A800FDF75AF8DDF820A0CDE91001DDE904012B
:10B0B800FDF71CFC0546FDF79DF9024630350B46A9
:10B0C800DDE90401FDF748F80AF8015B02460B4682
:10B0D800CDE90401DDE91001FDF7E4FF002865D1A1
:10B0E80000206C49DDE90423FDF736F802460B46DB
:10B0F800DDE91001FDF7D6FF002840F00D81A245DB
:10B1080000F0EA8000225E4BDDE91001FDF7DCF972
:10B1180000225B4BCDE91001DDE90401FDF7D4F90C
:10B12800CDE90401C2E7DDE91023FDF7CDF9A0461A
:10B13800DDF820A0CDE91001DDE90401FDF7D6FB1B
:10B148000546FDF757F9024630350B46DDE904019F
:10B15800FDF702F80AF8015B02460B46A245CDE965
:10B1680004234FF0000223D1494BDDE91001FCF71D
:10B17800F5FF02460B46DDE90401FDF793FF0028C1
:10B1880040F0CA8000204249DDE91023FCF7E4FFC3
:10B1980002460B46DDE90401FDF766FF70B1C246C1
:10B1A80008F1FF381AF8013C302BF8D0374655E043
:10B1B800334BFDF789F9CDE90401BDE7DDE90C342E
:10B1C800CDE90434159B002BFFF628AE0E2F3FF770
:10B1D80025AE2E4B03EBC703D3E90034CDE9063483
:10B1E800219B002B02DAB9F1000F64D0DDF820A012
:10B1F800DDE90445DDE9062320462946FDF78EFAF8
:10B20800FDF774FB0646FDF7F5F8DDE90623FDF7C3
:10B218005BF90246204606F130040B462946FCF746
:10B228009BFF0AF8014B089C02460B46AAEB040454
:10B23800A14540F08280FCF791FF04460D46DDE908
:10B248000623FDF72FFF002865D120462946DDE9B2
:10B258000623FDF7FFFE08B1F3075CD403995846AF
:10B2680022F052F8002301378AF80030229B1F6031
:10B27800249B002B3FF41CACC3F800A018E400BFCB
:10B288000000244000001C4000001440586B0300DC
:10B298000000E03F0000F03FA24B03EBC703D3E9F7
:10B2A8000034CDE90634219B002B9FDAB9F1000F59
:10B2B8009CDC7FF4C3AE00229B4BDDE90601FDF761
:10B2C80003F9DDE90423FDF7E3FE044600287FF4D3
:10B2D800B5AE3E462546B4E0DDE90C34CDE904348C
:10B2E800159B002B01DB0E2FD6DD209A012A36DCB8
:10B2F800139A82B303F233430B9CDDF81880069A45
:10B30800012158461A4406920A9A1A440A9222F0CF
:10B31800AFF8054686E53E4653469A4613F8012D92
:10B32800392A06D1089A9A42F7D13022089901366B
:10B338000A701A7801321A7038E700227B4BFDF741
:10B34800C3F80022002304460D46FDF783FE0028BB
:10B358003FF450AF82E7149BC3F13603CCE709F101
:10B36800FF340B9BA34208DBB9F1000FA3EB0404E5
:10B378000EDBDDF818804B46C1E70B9B0F9AE31AEA
:10B388000B94DDF8188000241A444B460F92B6E758
:10B39800069BA3EB09080023B1E7039E71E50B9A0E
:10B3A800039970E5039672E5209B012B17DC049B3B
:10B3B800ABB9059BC3F313039BB9059B23F0004668
:10B3C800360D360536B1069B0126013306930A9BD6
:10B3D80001330A930F9B002B7FF470AD0F96012069
:10B3E80075E50026F6E73FF486AD1C33069A1A4445
:10B3F800984406920A9A1A440A927CE50346F4E7AE
:10B40800099B002B2BDC209B022B09DC27E0B9F1E0
:10B41800000F1DDC209B022B1ADD3E46CDF8249040
:10B42800099B002B7FF40CAE21460522584621F0DB
:10B438008DFF0146044603982AF05DFB00287FF73C
:10B44800FFADDDF820A0312301360AF8013BFBE50A
:10B458000E9B3E46CDF82490002B7FF483AD089FC9
:10B46800214603982AF0E8F8089B00F13009099A68
:10B4780007F8019BFB1A9A4240F3CB8000230A226B
:10B488000399584621F062FF0390E9E72A6905F11C
:10B498000C010C300232920029F076FE0122394666
:10B4A800584622F0FFF8089BA846054603F1010A12
:10B4B800DDE9082313440A93049B03F001030B936B
:10B4C8000AF1FF332146039806932AF0B5F841465E
:10B4D800099000F1300903982AF00DFB2A4621460D
:10B4E8000746584622F04AF9C268014602B3584650
:10B4F80021F00AFF002F3ADA01220399584622F078
:10B50800D1F8214603902AF0F6FA002803DC29D165
:10B5180019F0010F26D0B9F1390F1DD132E02846B4
:10B52800C1E700BF586B030000001440000024402E
:10B538000E9003982AF0DFFA0E990C90584621F0E5
:10B54800E3FE0C9A5ABB209B53B90B9B43B9B9F144
:10B55800390F17D0002F05DD099B03F1310901E0F0
:10B56800002F2ADADDF818A00AF8019B6EE5209B67
:10B578003B4304D1049B03F00103002BBCD0B9F179
:10B58800390F36D1069F392307F8013BBA46013FE8
:10B598001AF8013C392B5AD001333B7056E5002F7D
:10B5A80006DB209B3B4306D1049B03F0010313B940
:10B5B800002AA1DCD6E7002AE1DC0A9B57460AF8F4
:10B5C800019C53452ED000230A220399584621F0A6
:10B5D800BDFEA84503904FF000034FF00A02414614
:10B5E80058460BD121F0B2FE804605460AF1010A01
:10B5F80066E7DDF818A009F10109B5E721F0A6FE14
:10B608002946804600230A22584621F09FFE054617
:10B61800ECE7099B4FF00008002BCCBF1F46012721
:10B62800089B1F4401220399584622F03BF8214603
:10B6380003902AF060FA0028A8DC02D119F0010F63
:10B64800A4D1BA4617F8013D302BFAD0FEE4089B86
:10B65800BB429BD13123089A01361370F6E4249B30
:10B66800002B7FF420AA014BFFF73FBAB2E6030094
:10B67800034637B501241B7900689C4043681B6862
:10B688001C420ED10E4940F2E4430E4A0E4823F004
:10B698006BFC0E4823F068FC40F2E441094823F0B3
:10B6A8005CFC0569836801A95B68984730B92A681A
:10B6B800019B5340234214BF0120002003B030BD3A
:10B6C800177C0300E67B0300557C0300727C0300B3
:10B6D80008B5054823F09BF828F007FCBDE80840AA
:10B6E8000146024823F07EBA4C8C0020847C03007B
:10B6F80008B5054823F08BF828F0F7FBBDE80840AB
:10B708000146024823F06EBA648C00209C7C03003A
:10B7180008B528F0EAFB0146044823F063FA044A16
:10B728001388138801331BB2138008BDB47C03004F
:10B73800F60A032008B528F0D8FB0146044823F090
:10B7480051FA044A5388538801331BB2538008BD09
:10B75800CF7C0300F60A032008B528F0C6FB014693
:10B76800044823F03FFA044A9388938801331BB2B4
:10B77800938008BDEA7C0300F60A03202DE9F8430C
:10B7880023F047F84FF47A720023FDF785FB4FF456
:10B79800616200230D460646FDF7CEFB4FF4616358
:10B7A80003FB00F1701A65EBE1713C220023FDF701
:10B7B800C3FB05461F4E4FF4616823F02AF84FF487
:10B7C8007A720023FDF768FB4FF4616200230F468D
:10B7D8008146FDF7B1FB08FB00F1B9EB01004FF022
:10B7E800000367EBE1713C22FDF7A6FB6B1C83426B
:10B7F8000446E2D13B2818BF04460F4808BF4FF063
:10B80800FF3423F0EFF901F04DFC0C4B186801F000
:10B81800A1FD3378022B04D9094822F0F8FF002350
:10B8280033703378074801333370254623F0DAF94B
:10B83800C1E700BF170D0320057D0300F8F50220BE
:10B84800AC8C0020F07D030030B41D46039B9DF8AE
:10B85800084093B10A4981F8694008704A800D711F
:10B868001C440431A34203D130BC064822F0CFBFA8
:10B8780013F8012B01F8012FF4E730BC704700BF23
:10B888008C0A0320948C002010B5044688B00DF172
:10B898001F010DF11E0024F0F3FB9DF81F30032259
:10B8A800CDE90343054B0649029300231846CDE929
:10B8B800003322F0BCFF08B010BD00BF1A7D0300A2
:10B8C800A06903001FB56C2029F042FC034648B16B
:10B8D8000022011DA0F868200B4805B05DF804EBB4
:10B8E80022F0B4BF094A0090CDE9010208490222BA
:10B8F80022F09DFF40F267620023064805B05DF81C
:10B9080004EB1DF00FBC00BFD86203003E7D0300AE
:10B91800A0690300C89500201FB56C2029F018FC09
:10B92800034648B10022011DA0F868200B4805B065
:10B938005DF804EB22F08ABF094A0090CDE90102C4
:10B948000849022222F073FF40F26762002306488A
:10B9580005B05DF804EB1DF0E5BB00BFF062030025
:10B96800697D0300A0690300F895002070B586B0D2
:10B978006A4615460C4B03F11806144618685968B0
:10B98800083303C4B3422246F7D1084C20464FF08F
:10B99800FF324FF0FF3322F069FF182229460020BA
:10B9A80005F02EFAF2E700BF947D0300648C0020B6
:10B9B80070B5124C124E651D4FF0FF324FF0FF3339
:10B9C800304622F053FF0F4823F00CF994F8691021
:10B9D8000D4823F007F994F90430B4F902202178CE
:10B9E8000A4823F0FFF82846094A94F8691023F01A
:10B9F800F9F8084823F0F6F8DEE700BF8C0A0320C0
:10BA0800948C0020AC7D0300BF7D0300C87D03003B
:10BA1800E87D0300F37D030070B5094E094D4FF032
:10BA2800FF324FF0FF33304622F020FF002420463B
:10BA380001F090FC2B680134A342F0D3F7E700BF74
:10BA48004C8C0020F8F5022010B5074C20464FF02A
:10BA5800FF324FF0FF3322F009FF01F0E9F900202F
:10BA680001F03AFDF2E700BFF48C0020034670B500
:10BA780000681979012345688B402D6882682B423C
:10BA880004690ED10E494FF41D730E4A0E4823F077
:10BA98006BFA0E4823F068FA4FF41D71094823F039
:10BAA8005CFA24682342946918BF4FF00073A446D7
:10BAB800BDE8704008BF4FF080634FF0A072604748
:10BAC800177C0300E67B0300557C0300727C0300AF
:10BAD80070B503788AB004460E4607AD032B20D80C
:10BAE800DFE803F002191B1D1149284629F0D5FC8F
:10BAF800059563781E210493A37830460393E37871
:10BB08000C4A02932379019363790093A37923F074
:10BB180076F80AB070BD0849E7E70849E5E708493B
:10BB2800E3E70A212846074A23F069F8E0E700BF5F
:10BB3800F97D03001B7E0300007E0300077E0300DF
:10BB4800117E030058C4030070B514468EB006AECB
:10BB58000D4626F0DEFA3146FFF7BAFF6CB90E4BF8
:10BB68000322CDE9014320462346CDE903650B496D
:10BB7800009422F05CFE0EB070BD094B02220293C5
:10BB88000023CDE904541846CDE900330349039650
:10BB980022F04DFEEFE700BF3E7E0300A0690300E0
:10BBA8005C7E030030B58FB006AD0C4626F0B1FAC6
:10BBB8002946FFF78DFF074B032202930023CDE9A7
:10BBC80003541846CDE90033034922F030FE0FB084
:10BBD80030BD00BF807E0300A069030030B58FB080
:10BBE80006AD0C4626F095FA2946FFF771FF074B7C
:10BBF800032202930023CDE903541846CDE900330C
:10BC0800034922F014FE0FB030BD00BFA37E03002D
:10BC1800A069030010B58CB004AC26F07AFA21466E
:10BC2800FFF756FF064B03220293002305491846E7
:10BC3800CDE90033039422F0FAFD0CB010BD00BF2B
:10BC4800C57E0300A069030030B58FB006AD0C4671
:10BC580026F05FFA2946FFF73BFF074B03220293C2
:10BC68000023CDE903541846CDE90033034922F0F7
:10BC7800DEFD0FB030BD00BFDB7E0300A06903000E
:10BC880070B58EB00C46054610F0FEFD114B06AEA1
:10BC98001860284626F03DFA3146FFF719FFCDE92E
:10BCA800036400240C4D0D4B2946204602930322C1
:10BCB8002346CDE9004422F0BAFD094B0322CDE921
:10BCC8000143294623462046009422F0B0FD0EB0D9
:10BCD80070BD00BF40A30020A0690300DB7E030005
:10BCE800F07E03002DE9F0470024054688B00F4692
:10BCF800164621461A2201A8009429F07FFA284600
:10BD080026F007FA6946FFF7E3FE69461F4820F068
:10BD180069FBDFF87C80DFF87C90B44207D06C20A8
:10BD280029F016FA054628B91B4820F05BFB08B035
:10BD3800BDE8F087321B632A8CBF632292B200F100
:10BD4800040AA0F868203919504629F01DFAB5F8F8
:10BD580068301C44A4B2A6420AD1BA1912F8012CC0
:10BD68000D2A05D10A21EA1801331171A5F86830A6
:10BD780051464046B5F8682022F070FD0028CCD026
:10BD88002946484629F030F8C7E700BF1F7F03005F
:10BD9800F0620300748D0020367F0300034610B55F
:10BDA8000A4619790123006803FA01F14368046916
:10BDB8001B6819420ED10E4940F23D530D4A0E48F8
:10BDC80023F0D2F80D4823F0CFF840F23D5109484E
:10BDD80023F0C3F82368194203D022B183681B6992
:10BDE80003E0002AFAD08368DB68BDE810401847F2
:10BDF800177C0300E67B0300557C0300727C03007C
:10BE080008B5074822F003FD01210648FFF7C6FFE1
:10BE180028F06BF8BDE808400146034822F0E2BE6E
:10BE2800F48C0020B86C0300617F030008B5074854
:10BE380022F0EDFC01210648FFF7B0FF28F055F885
:10BE4800BDE808400146034822F0CCBE248D0020FE
:10BE5800B06C0300797F030070B505460C468CB0C2
:10BE680061B1144B03910293002301221846CDE9D6
:10BE78000033114922F0DBFC0CB070BD04AE26F093
:10BE880048F93146FFF724FE0C4B03222046CDE942
:10BE98000143094923460396009422F0C8FC28462A
:10BEA80010F0F2FC064B012118600648FFF776FFF8
:10BEB800E2E700BF917F0300A0690300AC7F0300A5
:10BEC80044A30020C86C030030B50C468FB006AD03
:10BED80026F01FF92946FFF7FBFDCDE9035400249E
:10BEE8000D4B0E4D2046029303222346CDE9004414
:10BEF8000B4922F09CFC286810B110F0EDFC2C6076
:10BF0800084C206830B110F0E7FC00210648216099
:10BF1800FFF744FF0FB030BDB97F030040A30020F6
:10BF2800A069030044A30020C86C0300034670B551
:10BF38000C46DA8800681979224302F03004302C64
:10BF48000569D0E901360ED1254940F2B723254AC3
:10BF5800254823F009F8254823F006F840F2B721D0
:10BF6800204822F0FAFF02F00214022C0CD12049DA
:10BF780040F2BB231B4A1C4822F0F6FF1D4822F062
:10BF8800F3FF40F2BB21EBE702F00604042C09D1D1
:10BF9800194940F2BF23134A134822F0E5FF40F243
:10BFA800BF21DDE701241B688C401C420CD11349DA
:10BFB80040F2D2230B4A0C4822F0D6FF104822F058
:10BFC800D3FF40F2D221CBE72B6812F0010F14BF48
:10BFD8002343A3432B603368BDE87040184700BF74
:10BFE800D67F0300E67B0300557C03000F80030027
:10BFF8004C80030081800300D3800300177C03007A
:10C00800727C03002DE9F04F364EDFF8DCA085B0D6
:10C01800364C0027A346DFF8D88063793BB101236B
:10C02800227993407360237C3374637C73744FF07C
:10C03800FF324FF0FF3350461CF070F82568AB68AC
:10C04800314628465B6898472279B8F90010294B91
:10C05800019223F81210DFF8A09050461CF02EF938
:10C06800D9F80030019A012B2DD12968234822F0F4
:10C07800B9FDB8F90010224822F0B4FD6379B8F987
:10C088000050E3B11421E37901FB07B1042B0ABF87
:10C098002368E2899B68897A08BF1A89237C6A43E6
:10C0A800890644BF03F1FF33DBB2A07903A90193EA
:10C0B800039215F0E3FE10B9039D019B1D4129462B
:10C0C800104822F08FFD0137062F04F11404A4D183
:10C0D800002340F6CD400021C9F8003022F0CEFB05
:10C0E80096E700BF3C840020C4A30020386C0300FE
:10C0F800160B0320060B0320C0A3002006810300B3
:10C10800198103001D8103001FB50B78052B29D861
:10C11800DFE803F003952C6B84498B6813B34868F8
:10C1280000B3514A1368FBB1181F002313604F4A2C
:10C13800136029F006F8002200234D481CF0E8F9A6
:10C1480080B1B0F86820011D4A4822F087FB48B149
:10C15800494B0222029300231846CDE90033474990
:10C1680022F065FB04B010BD0438E2E74A68CB68EA
:10C17800B2F86400034442489BB2A2F864300278E3
:10C18800002AEFD14A68134413F8013C0A2B01D066
:10C198000D2BE7D101230370364883685B6904B02F
:10C1A800BDE8104018470024354B6C201C7028F05F
:10C1B800CFFF034640B1A0F86840011D2D4804B0E8
:10C1C800BDE8104022F042BB2E4A0090CDE90102A2
:10C1D8002A49022222F02BFB40F2676200232A48F8
:10C1E80004B0BDE810401CF09DBF6C2028F0B0FFE3
:10C1F800034660B10022A0F868201E48191D826815
:10C2080014696422234604B0BDE8104018471D4A4B
:10C218001A49CDE9010200900222A1E74B68191FD3
:10C22800B3F864302BB1194804B0BDE8104028F0C9
:10C23800DBBD084604B0BDE8104028F082BF0A4ABA
:10C2480013680BB94B68136008488B6801680B4486
:10C2580011680360B1F864200648D21A194404B082
:10C26800BDE8104022F0FABA14A3002010A3002061
:10C27800748D0020F062030027810300A069030089
:10C28800160D032045810300F8950020588D0020E5
:10C2980070B54FF0FF324FF0FF330D4822F0E6FA49
:10C2A8000C4D0D4E4FF0FF324FF0FF3328461CF077
:10C2B8002FF90446B0F86820011D002004F0A0FD05
:10C2C80010B1304622F08EFC204628F03AFFE9E70C
:10C2D800348C0020588D00206E8103004FF6FF73C8
:10C2E8002DE9F04F002585B0494C4A48ADF8043097
:10C2F800494BCDF80650CDF80A50ADF80E500293D0
:10C30800206028F0FBFC38B923684448196822F0FB
:10C3180069FC05B0BDE8F08F052006F01FF9011E85
:10C3280001DA3F48F3E706F0E7FA011E01DA3D4873
:10C33800EDE700214FF4804022F0A0FA012006F03A
:10C3480037FA01A806F0C2FA374806F0CFFA15F016
:10C3580089FD364C364E2575364D374FC4E90155A3
:10C3680080B2DFF8D88026612760E060344822F088
:10C3780039FC344822F036FCDFF8CCA0DFF8CCB02A
:10C388002A4806F01BF9B0F1000913DB304822F007
:10C3980029FC002388F8003098F80030002BE5D1FC
:10C3A8004FF0FF324FF0FF332A4822F05FFA01F0D6
:10C3B800FDF8F1E74946504622F014FC584622F0B1
:10C3C80011FC4FF4DC10002122F058FA19F1740F17
:10C3D80002D019F16F0FD3D106F08EFA012006F0C2
:10C3E800E7F901A806F072FA0F4806F07FFA15F08F
:10C3F80039FD002380B2E06000214FF4A020C4E999
:10C40800015523752661276022F038FAB8E700BF86
:10C4180030A300209863030051B80000A2810300F4
:10C42800BA810300DA81030091B8000018A3002044
:10C43800348A00201C8A00202C8A0020180D032032
:10C44800F5810300FF810300298203004B8203006A
:10C458001B820300AC8C00202DE9F0410B78023BD5
:10C46800032B7BD8DFE803F00262714D4C68CB6880
:10C47800B4F864203A4D13449BB2A4F864302344C2
:10C4880013F8013C242B0ED12E6866B96C2028F0D5
:10C498005FFE344B02211860334B34481E60012381
:10C4A8002B6022F0EDF92B68012B57D12E48036839
:10C4B8006A2B53D8B4F864702A4E5A1C013F0260A4
:10C4C800316814F807C0CF1887F804C0B4F864704E
:10C4D8003C4414F8014C0A2C40D1002402330A448D
:10C4E80014710360A1F86830214828F07DFC306899
:10C4F80028F027FE2C600221BDE8F0411D4822F0FB
:10C50800BFB96C2028F024FE40B10023A0F86830A1
:10C51800011DBDE8F041184822F098B940F2676261
:10C52800BDE8F041002315481CF0FCBD6C2028F044
:10C538000FFE00230146A0F868300F486422BDE8CA
:10C54800F041836804311B6918474868B0F86430C3
:10C5580023B1BDE8F041043828F0F3BDBDE8F0810F
:10C5680034A300203CA3002038A30020B86C0300AB
:10C578003C8D0020B06C0300D8620300C8950020F1
:10C588002DE9F04F85B022F044F9764B764F9A8822
:10C5980018689B79ADF808208DF80A300023ADF8AB
:10C5A8000B308DF80D300A234FF4F074ADF80030DD
:10C5B80020223B460190013C03F8012BFBD16C2063
:10C5C80028F0C6FDA14626462546DFF8A0814FF093
:10C5D800FF324FF0FF3340461BF09AFF8346404638
:10C5E80028F0F5FBBBF868A0BAF1000F1FD00221B4
:10C5F8005F48D14622F044F9CEB9314630460BF1B6
:10C60800030C1CF8013F522B06D8462B5DD8242B6F
:10C618007AD0432B00F08D8001305045F1D3062DA0
:10C6280005D10BF1040B5145C0F0888001264FF06D
:10C63800FF334FF0FF3240461BF06AFFB0F8683016
:10C64800002BC4D06EB1B4F5F07F0DD209F103020E
:10C65800C31C1044834202D0B4F5F07F76D1013672
:10C66800F6B2B4F5EF7FB2D901A93F48414C28F0A2
:10C678004DFF69461FF0EAFE1422214622F030F9E8
:10C688000C2817D1A3683C4D1B78403BDBB2012B2B
:10C698002B7362D1E06828F060FDFCF74FF9686001
:10C6A800606928F05AFDFCF749F9616AA86060687A
:10C6B80000F0E0FB3B464FF4F0742022013C03F805
:10C6C800012BFBD12646254681E7473B0B2BA3D8F8
:10C6D8000FF2040E5EF823F01BC7000021C600000D
:10C6E80021C6000021C6000021C6000021C60000A6
:10C6F80033C7000021C6000021C6000023C7000080
:10C7080021C600002BC70000012D38BF0125EDB25E
:10C7180082E7012D08BF02257EE7022D08BF032509
:10C728007AE7032D08BF042576E7042D08BF052501
:10C7380072E7052D04BF0625411F6DE71BF8013080
:10C7480001310D2B1CBF3B5501346CE713F8012F49
:10C758000D2A1CBF3A5501347CE708481FF042FEF9
:10C76800A8E700BFF0690300360B03203C8D0020CA
:10C77800B06C0300C0A200204CA300207C82030000
:10C7880070B53348334CA06228F0B8FA30B9A36AC0
:10C7980031481968BDE8704022F024BA0021A06A27
:10C7A80021602E4D2A4627F04EF920B12C48BDE8CD
:10C7B800704022F017BA6B682046A3814FF40063DB
:10C7C800E38103F06FFA08B12648F0E7264D042309
:10C7D8002A460121204622F0B5FD002821DD01214D
:10C7E8002A68224822F0FEF9214C0423224602211D
:10C7F800184822F0A7FD00281EDD226802211D48E6
:10C8080022F0F0F91C4B1A68B2F5B46F3EBF2268EB
:10C8180001321A601A68B2F5B46F01D100221A60A9
:10C8280070BD0121154822F0DDF904232A460121B3
:10C83800204603F009FCD7E70221114822F0D2F97B
:10C848002246BDE8704004230221024803F0FCBBE5
:10C858008063030090A300208B82030084A3002040
:10C86800A9820300C282030080A30020D5820300AE
:10C87800F8F502201F830300FCF50220F282030072
:10C888003D83030084B02DE9F04106AC84E80F0035
:10C898003D20BDF8F06728F05BFC00240546DFF872
:10C8A8005480771EA7421DD9B44201D300220FE05D
:10C8B80000226B1E04F1180169440132097992B211
:10C8C8003D2A03F8011F04F1010401D0A642F1D862
:10C8D8002946002004F094FA0028E3D0404622F0CC
:10C8E80081F9DFE7284628F02CFCBDE8F04100205C
:10C8F80004B070477183030010B5054C4FF0FF3248
:10C908004FF0FF33204621F0B1FF21F0CAFFF5E7D1
:10C91800248D0020F8B5304C4FF480312046FFF7C5
:10C9280005FB2046FFF7A2F82C492D4B2D4C4B60F8
:10C938004FF4000320468B602B4D21F099FF2668A9
:10C948002A4F17223146284622F04CF94FF48031FD
:10C958003846FFF7EBFA3846FFF788F82449254BA5
:10C9680020464B604FF08073234F8B6021F080FF8F
:10C9780018223146284622F035F94FF480313846DE
:10C98800FFF7D4FA3846FFF771F81C491C4B2046CC
:10C998004B604FF480731B4F8B6021F069FF0822B6
:10C9A8003146284622F01EF94FF480313846FFF709
:10C9B800BDFA3846FFF75AF81349144B20464B6026
:10C9C8004FF400738B6021F053FF31462846BDE8D1
:10C9D800F840092222F006B9006D030020A40020C7
:10C9E80035BE00009062030095830300F86C0300D5
:10C9F80014A4002009BE0000F06C030008A4002065
:10CA0800D9B60000E86C0300FCA30020F9B60000CA
:10CA1800F8B52E4C4FF480312046FFF787FA2046B0
:10CA2800FEF726FE01462A4822F0DCF82046FFF7EA
:10CA38001DF82849284B294C4B60102320468B6051
:10CA4800274D21F015FF2668264F04223146284637
:10CA580022F0C8F84FF480313846FFF767FA3846B5
:10CA6800FEF706FE0146204822F0BCF83846FEF7DD
:10CA7800FDFF1E491E4B1F4F4B60202320468B6035
:10CA880021F0F6FE05223146284622F0ABF84FF495
:10CA980080313846FFF74AFA3846FEF7E9FD014685
:10CAA800154822F09FF83846FEF7E0FF1349144B6B
:10CAB80020464B6040238B6021F0DAFE3146284641
:10CAC800BDE8F840062222F08DB800BFE06C0300F4
:10CAD800B1830300F0A3002019B7000078620300B7
:10CAE800C9830300D86C0300EC830300E4A300208F
:10CAF8003DB70000D06C030004840300D8A30020D5
:10CB080061B7000008B54FF400310A48FFF70EFA84
:10CB18004FF400310848FFF709FA4FF4003107488D
:10CB2800FFF704FABDE808404FF400310448FFF766
:10CB3800FDB900BFC86C0300C06C0300B86C0300EB
:10CB4800B06C030008B500210848FFF727F9002159
:10CB58000748FFF723F900210648FFF71FF9BDE84A
:10CB6800084000210448FFF719B900BFC86C03004A
:10CB7800C06C0300B86C0300B06C030038B5002526
:10CB8800124C54F8060C28F0B9F820B91048BDE842
:10CB9800384022F027B814F8013C6BB154F8060C61
:10CBA800836821461B689847021E08DA2946BDE8B3
:10CBB8003840084822F016B86FF08502F6E70135CC
:10CBC800062D04F11404DCD138BD00BF3E6C03000F
:10CBD8001C8403003D84030070B58CB0654828F0C0
:10CBE800E3F8FFF78FFFFFF7ADFFFFF793FEFFF7BF
:10CBF8000FFFFFF7C3FF604D284628F07FF8D8B134
:10CC08006C2028F0A5FA0446B0B100265B49A0F8CC
:10CC180068605B481CF06AF9AB681B6873B920460A
:10CC280028F08FFA574B01220293002356491846E1
:10CC3800CDE9003321F0FBFD21F049FE32462846BC
:10CC4800524998470028EAD16C2028F081FA064614
:10CC58000028F1D0031D18464D4928F01EFC262255
:10CC68000146A6F86820284621F0F8FD014618B1CB
:10CC780048481FF0B7FBDFE72846211D21F0E6FDF5
:10CC88000028D9D1444810F0C7FA28B143480CB05D
:10CC9800BDE8704021F0A6BF414810F0D7FA08B1AE
:10CCA8004048F4E70EF06AF90028C5D13E481FF065
:10CCB80099FB3E481FF096FB3D481FF093FB3D480B
:10CCC80021F0A5FD3C4804F08FF8014628B13B4807
:10CCD8000CB0BDE870401FF085BB394D07AC0FCDD7
:10CCE8000FC42B68012523600222364B3649009574
:10CCF80007A80FF037F8044628B1014633481FF05B
:10CD080071FB0CB070BD324B42F2676000211D60B0
:10CD180021F0B4FDFFF734FD2E4E304627F0EEFF2C
:10CD2800002889D06C2028F013FA2B49A0F8684015
:10CD380005462A481CF0DAF8B3681B681BB122467E
:10CD4800304627499847291D224821F07FFD254E66
:10CD580005AD013496E8030085E80300284604F091
:10CD68000101FFF71BF84FF40040002121F086FD78
:10CD7800EFE700BFC4A30020F062030021B9000060
:10CD8800F89500205F840300A069030011C100002A
:10CD98007F840300A684030024840020CF8403003A
:10CDA80014840020FC8403002E85030047850300BB
:10CDB80068850300348C00200884002091850300D6
:10CDC800FC690300206C0300286C0300BD85030088
:10CDD800C0A30020D8620300CDB80000C895002089
:10CDE80061C40000C06C0300104B37B55A79054682
:10CDF800D2B1DA791C7C042A09BF1A68D9899268E9
:10CE080011899A7A9206026848BF04F1FF3401FB3F
:10CE180002F2987901A948BFE4B2019215F02EF800
:10CE280010B9019B23412B6003B030BD386C03005F
:10CE380010B50D4C012123682246013323600B48AD
:10CE4800042303F001F9042322460121074822F0B4
:10CE580079FA002806DD22680121BDE8104004485F
:10CE680021F0C0BE10BD00BF80A3002090A3002009
:10CE7800D582030073B50B7804468DF804304B78DF
:10CE880001A80D468DF8053028F06AF91B4EF061AF
:10CE9800AB7801A88DF80430EB788DF8053028F0D0
:10CEA8005FF9013830622B7901A88DF804306B796D
:10CEB8008DF8053028F054F97062237801A88DF8B0
:10CEC800043063788DF8053028F04AF9B061A3780A
:10CED80001A88DF80430E3788DF8053028F040F982
:10CEE8007061237901A88DF8043063798DF80530D5
:10CEF80028F036F9306102B070BD00BF4CA30020A5
:10CF080010B5154C8AB0636A01A864330693236A86
:10CF18000593E3690493A3690393636902932369FF
:10CF280001934FF0FF3309931EF0BEFC237B012BC6
:10CF380010D028F017F84FF47A72A0FB020302FB16
:10CF48000131C00B40EA41404FF47A720023C90B0B
:10CF5800FBF7A2FF0AB010BD4CA3002070B5054B2B
:10CF680004465E689D68FFF7CBFF66602060A56099
:10CF7800204670BD4CA3002038B50D460446FFF787
:10CF8800BFFF034B33F91530C4E90003204638BD11
:10CF9800060B032070B50D460446FFF7B1FF022DBE
:10CFA8004FF000060AD0032D0CD0012D02D1074BFB
:10CFB800B3F902602060A680204670BD034BB3F928
:10CFC8000460F7E7014BB3F90660F3E7060B0320AB
:10CFD80038B50D460446FFF793FF0021044B33F99B
:10CFE800152023F81510C4E90002204638BD00BFFB
:10CFF800F60A032070B505460C46682028F0A8F804
:10D0080004F57A7168230246064689B2064822F07A
:10D0180099F981B205481FF0E5F96822314628469A
:10D0280028F0B2F8284670BD90A30020AA86030015
:10D0380070B56821044615481FF0D4F9682028F017
:10D0480087F8682605461249324606FB041128F07F
:10D058009BF821460F481FF0C5F904F57A710E4C6C
:10D0680033462A46204689B202F0EEFF81B20B48C9
:10D078001FF0B8F9204604230221094A02F0E4FF10
:10D088002846BDE8704028F05CB800BFC0860300A1
:10D09800F8AC0020DC86030090A30020E98603009A
:10D0A800F8F502202DE9F043414F424B3C689BB014
:10D0B800B4F5B46F1C6078D2E8464FF0680945466D
:10D0C8003D4E404609FB04640434FFF747FF0FCD8B
:10D0D8000FC40FCD0FC40FCD0FC42B6800212360E0
:10D0E8003C68404609FB04643834FFF745FF98E87C
:10D0F800030084E8030001210EA8FFF74BFF3B68FB
:10D10800BDF83C2009FB03630221A3F8442010A8C2
:10D11800FFF740FF3B68BDF8442009FB0363032188
:10D12800A3F84C2012A8FFF735FF3B68BDF84C2048
:10D1380009FB03630121A3F8542014A8FFF72AFF71
:10D148003B68149A09FB036302211A6416A8FFF7C7
:10D1580021FF3B68169A09FB036303219A6418A808
:10D16800FFF718FF3C68189B09FB0464002123653E
:10D178004046FFF72DFF98E803003B68583409FB49
:10D18800036684E80300603601214046FFF720FF6C
:10D1980098E8030086E803003868FFF749FF3B6812
:10D1A80001333B601BB0BDE8F0830023F9E700BF03
:10D1B800FCF50220F8F50220F8AC0020F0B51C4B75
:10D1C80089B018689B880090182200210DF106008C
:10D1D800ADF80430012628F011F80023154C70250D
:10D1E800C4E900364FF08043A360134B0527E36082
:10D1F8000B232361114B6361A56169462677667726
:10D2080004F11E0028F049F905F2E73384F832608A
:10D2180084F83370636305F57A70FBF799FC013580
:10D22800762DA06304F12404E6D1024809B0F0BDCC
:10D23800886A030008AC002000004040000040411C
:10D24800F0B5ADF2144D0746FFF7B8FF02228DF88E
:10D258003020ADF832203A4A0CAE0D9231460C22FD
:10D26800034645688468C068013A8D60CC600861EF
:10D2780001F10C01F8D11C6958690CA901320C2A7A
:10D28800C1F89840C1F89C0001F10801F6D103F1FA
:10D298001E0503F1F60455F8063C2946C6F8F83091
:10D2A80015F8023C06F1FE0086F8FC3015F8013C42
:10D2B80086F8FD3028F0F1F82B7D002286F812312F
:10D2C8006B7DD5F8160086F813313346D5F81A1059
:10D2D80001320C2AC3F81401C3F8181103F108032A
:10D2E800F6D12435A54206F17C06D4D16C464FF41C
:10D2F800FB626846134907AD00F09CFA0FCC0FC5D6
:10D30800236811490CAA07A82B6000F013FD00231D
:10D318000A980C490D4A83420BD10D4940F2DC7240
:10D328003846A1F8D83727F02FFF38460DF2144DAC
:10D33800F0BD11F8014B013302F8014FEBE700BFD4
:10D3480087D61200190D0320146D03002FA40020A6
:10D358002CA400202DE9F04F804668248FB00146A8
:10D368004F481FF03FF84F4F4F4B04FB08741B7B8F
:10D37800012B0CBF4D484E481FF034F8A068FBF74E
:10D388004BF80E22CDE900014A4B002106A828F0EF
:10D398005DF8E068FBF740F8464BCDE900010E2246
:10D3A80000210AA828F052F89DF819209DF81810B5
:10D3B80041481FF017F8022303F138020DEB020170
:10D3C80011F8202C002A60D106A93C481FF00AF861
:10D3D8009DF829209DF8281039481FF003F80223EA
:10D3E80003F138020DEB020111F8102C002A51D17B
:10D3F800682404FB08F40AA93D1932481EF0F2FF1C
:10D40800A868FBF709F86B6882460293E8688B46C0
:10D41800FBF702F85246CDE900015B462A481EF0A8
:10D42800E1FFEB6B05A80593FFF7DEFCE96B059AB6
:10D4380026481EF0D7FF012504F13C06244C3E4443
:10D44800E9B236F8350036F935A0FBF7E5FFFAF70B
:10D45800E3FF05F1FF39CDE9000152464946204670
:10D4680001351EF0BFFF042DEAD1682303FB0877BE
:10D478000021FA6D17481EF0B5FF01217A6E154894
:10D488001EF0B0FF0FB0BDE8F08F013301F8222C79
:10D49800DBB291E7013301F8122CDBB2A0E700BF41
:10D4A80000870300F8AC00204CA300201987030074
:10D4B8002A8703003A8703003D8703006587030036
:10D4C8005F870300698703006E870300A98703004D
:10D4D800C2870300DB8703002DE9F0470546A0B0AB
:10D4E800682027F035FE0446294604A8FFF782FD88
:10D4F800682204A9204627F047FE294626481EF040
:10D5080071FFA068FAF788FF636806460293E0682F
:10D518000F46FAF781FF3246CDE900013B461F4826
:10D528001EF060FFE36B1FA81F93FFF75DFCD4E9B3
:10D538000E121F9B1A481EF055FF25460026DFF8DD
:10D548006480771CB5F84400F9B2D5F84090B5F975
:10D5580044A0FBF761FFFAF75FFF5346CDE90001EE
:10D568004A46314640461EF03DFF032F3E4605F130
:10D578000805E6D1D4E9162300210B481EF032FF36
:10D58800D4E91823012108481EF02CFF204620B0BA
:10D59800BDE8F04727F0D5BD00870300F0870300FA
:10D5A8001C88030042880300688803002DE9F04FB7
:10D5B8005F4B8DB006AC03F1180522461868596810
:10D5C800083303C2AB421446F7D16822594B5A4C70
:10D5D8001B6803AF02FB0344A36860680293E36817
:10D5E80004AE0393FBF7B4FA0490E06BFBF7B0FAD0
:10D5F800B4F9543094F85CA00093B4F8543094F81B
:10D608006490B4F94480B4F84410B4F94CE0B4F828
:10D618004C2006AC05900193002023460DF1080C20
:10D6280005AD1CF801BB013003F801BB17F801BBBD
:10D63800042883F803B016F801BB83F807B015F87F
:10D6480001BB83F80BB0ECD1009BC1F307218DF827
:10D658002E30019BC2F30722C3F3072337488DF806
:10D6680028A08DF829908DF82A808DF82B108DF838
:10D678002CE08DF82D208DF82F30002521F0B2FAFE
:10D688002F4E304614F8011B013521F0ABFA182D46
:10D69800F7D12C4821F0A6FA00232A46022006A931
:10D6A80005F09AF810F10B0F04462ED101462648D2
:10D6B80021F098FA4FF4A02000211CF087FE2146A3
:10D6C800224821F08FFA0C26214D224F002C19DA1E
:10D6D800013E17D0182200230DEB0201022005F0AD
:10D6E8007BF82B680446312B03F1010203BF0023AA
:10D6F8002B6001232A6008BF3B7078B9164821F0D7
:10D7080071FA2C600DB0BDE8F08F0028D7DB134804
:10D7180021F068FA00220E4B1A60F3E7104821F056
:10D7280061FA00214FF4C0301CF050FECEE700BF74
:10D73800A66A0300F8F50220F8AC00208A880300E6
:10D748009B880300A1880300B6880300DF880300D4
:10D7580048A30020180D0320108903003A8903000C
:10D768001B89030000B5837D01463F2B8BB049D848
:10D7780013F030001CD0202802D10B6A188806E06C
:10D788003028FAD0102806D10A6A22B11078B0FAE7
:10D7980080F040090CE00A68906880B903F00F0235
:10D7A800052A0ED8CB694A8A1A44934203D101202C
:10D7B8000BB05DF804FB13F8011B0029F5D000201D
:10D7C800F6E7062A01D1CB69D8E7072A02D1CB6947
:10D7D8001878DCE70B2A01D1488AD8E703F00E0352
:10D7E800082BE5D1CA696846496A21F02FF9002853
:10D7F800DDD06846FFF7B6FF0028D9D0684621F08B
:10D8080048F9F4E703F0C002802A01D1C069BEE7F5
:10D81800402AD4D103F00F030A2B02D1CB69186830
:10D82800B5E70368024AD8689042B0D1F6E700BF6E
:10D83800B9EA02008260002210B5034CC0E9032255
:10D84800C0E9004110BD00BFE9EA0200F8B504468E
:10D858001546C3689AB106688EB1D31802D2876894
:10D868009F4207D22369084A002B08BF13460020AD
:10D878002361F8BDB04710B92369044AF4E7E368A7
:10D8880001202B44E360F4E7478903005389030030
:10D8980010B48C7D4B8A04F00F04022C17D1012B95
:10D8A80005D1CB691A78002310BC21F022B9022BCC
:10D8B80002D1CB691A88F6E7042B02D1CB691A6822
:10D8C800F1E7082B1FD1CB69D3E90023ECE7012B43
:10D8D80008D1CB6993F90020D317032CE4D110BCED
:10D8E80021F046B9022B03D1CB69B3F90020F3E745
:10D8F800042B02D1CB691A68EEE7082B03D1CB6958
:10D90800D3E90023E9E70369034A002B08BF13465C
:10D91800036110BC002070475C8903004A8A042A0E
:10D9280002D1C96921F02DB9082A02D1C96921F0AB
:10D938002BB902690349002A08BF0A460261002080
:10D94800704700BF5C8903008A7D0B4602F00F0216
:10D958000B2A11D8DFE802F00C0C0C0C0E060A0A90
:10D968000A0A100A01211A8A21F011B90221FAE7DC
:10D978000021F8E70521F6E70369034A002B08BFF1
:10D9880013460361002070476E8903002DE9F041BA
:10D998000E46174686B014220021044601A827F037
:10D9A8002DFC3A46314601A800F0C4F910B9059B90
:10D9B800236108E04FF00008049D43462A462046AC
:10D9C80021F097F818B9002006B0BDE8F081216869
:10D9D80021B92A462046FFF739FFF5E7E368A26830
:10D9E8002B44934205D923690E4A002B08BF1346DE
:10D9F800DEE763683A46019101A83146CDE9023570
:10DA0800CDE9048800F096F9049AE368AA42134421
:10DA1800E360029B6360059B01D12361D4E7024A5E
:10DA2800E3E700BF478903008189030070B5CB692C
:10DA380004460D46002B7FD0FFF786FF002873D0E1
:10DA4800A87D00F00F030B2B73D8DFE803F0061155
:10DA5800111117171D355252726FEB692046BDE838
:10DA680070401A780023003A18BF012221F041B80B
:10DA780029462046BDE87040FFF70ABF29462046E0
:10DA8800BDE87040FFF74ABFE96909B90A460EE0E8
:10DA98003F280A880AD86B8A023B934206D2236938
:10DAA800264A002B08BF134623613DE00231204679
:10DAB800BDE8704021F071B800F0C00080286B8A82
:10DAC800E9690ED013B923691D4AEAE7013B002929
