:10800000F0340320E9090100735D0200BD0901009D
:10801000BD090100BD090100BD090100BD09010044
:10802000000000000000000000000000A1020100AC
:10803000BD0901000000000041020100BD0901006E
:10804000290301002903010029030100290301007C
:10805000290301002903010029030100290301006C
:10806000290301002903010029030100290301005C
:10807000290301002903010029030100290301004C
:10808000290301002903010029030100290301003C
:10809000290301002903010029030100290301002C
:1080A000290301002903010029030100290301001C
:1080B000290301002903010029030100290301000C
:1080C00029030100290301002903010029030100FC
:1080D00029030100290301002903010029030100EC
:1080E00029030100290301002903010029030100DC
:1080F00029030100290301002903010029030100CC
:1081000029030100290301002903010029030100BB
:1081100029030100290301002903010029030100AB
:10812000290301002903010029030100290301009B
:10813000290301002903010029030100290301008B
:10814000290301002903010029030100290301007B
:0481500029030100FE
:04815400FFFFFFFF2B
:1081580081F0004102E000BF83F0004330B54FEAF0
:1081680041044FEA430594EA050F08BF90EA020F5D
:108178001FBF54EA000C55EA020C7FEA645C7FEAF0
:10818800655C00F0E2804FEA5454D4EB5555B8BF13
:108198006D420CDD2C4480EA020281EA030382EA84
:1081A800000083EA010180EA020281EA0303362D16
:1081B80088BF30BD11F0004F4FEA01314FF4801CE9
:1081C8004CEA113102D0404261EB410113F0004FFB
:1081D8004FEA03334CEA133302D0524263EB4303B2
:1081E80094EA050F00F0A780A4F10104D5F1200E50
:1081F8000DDB02FA0EFC22FA05F2801841F10001AB
:1082080003FA0EF2801843FA05F359410EE0A5F17E
:1082180020050EF1200E012A03FA0EFC28BF4CF0AF
:10822800020C43FA05F3C01851EBE37101F0004565
:1082380007D54FF0000EDCF1000C7EEB00006EEB72
:108248000101B1F5801F1BD3B1F5001F0CD34908FC
:108258005FEA30004FEA3C0C04F101044FEA445253
:1082680012F5800F80F09A80BCF1004F08BF5FEADA
:10827800500C50F1000041EB045141EA050130BDBA
:108288005FEA4C0C404141EB0101013C28BFB1F5CC
:10829800801FE9D291F0000F04BF01460020B1FA17
:1082A80081F308BF2033A3F10B03B3F120020CDAEA
:1082B8000C3208DD02F1140CC2F10C0201FA0CF0C8
:1082C80021FA02F10CE002F11402D8BFC2F1200C2D
:1082D80001FA02F120FA0CFCDCBF41EA0C019040E3
:1082E800E41AA2BF01EB0451294330BD6FEA04042C
:1082F8001F3C1CDA0C340EDC04F11404C4F1200217
:1083080020FA04F001FA02F340EA030021FA04F328
:1083180045EA030130BDC4F10C04C4F1200220FA7F
:1083280002F001FA04F340EA0300294630BD21FABD
:1083380004F0294630BD94F0000F83F4801306BF83
:1083480081F480110134013D4EE77FEA645C18BF77
:108358007FEA655C29D094EA050F08BF90EA020F0E
:1083680005D054EA000C04BF1946104630BD91EA06
:10837800030F1EBF0021002030BD5FEA545C05D109
:108388004000494128BF41F0004130BD14F5800448
:108398003CBF01F5801130BD01F0004545F0FE41BC
:1083A80041F470014FF0000030BD7FEA645C1ABFF1
:1083B800194610467FEA655C1CBF0B46024650EA28
:1083C800013406BF52EA033591EA030F41F4002154
:1083D80030BD00BF90F0000F04BF0021704730B5DA
:1083E8004FF4806404F132044FF000054FF00001AF
:1083F80050E700BF90F0000F04BF0021704730B570
:108408004FF4806404F1320410F0004548BF404244
:108418004FF000013EE700BF42004FEAE2014FEA99
:1084280031014FEA02701FBF12F07F4393F07F4F74
:1084380081F06051704732F07F4208BF704793F077
:108448007F4F04BF41F40021704730B54FF460748A
:1084580001F0004521F000411CE700BF50EA01028D
:1084680008BF704730B54FF000050AE050EA010236
:1084780008BF704730B511F0004502D5404261EBA6
:1084880041014FF4806404F132045FEA915C3FF4E7
:10849800D8AE4FF003025FEADC0C18BF03325FEA84
:1084A800DC0C18BF033202EBDC02C2F1200300FA35
:1084B80003FC20FA02F001FA03FE40EA0E0021FA5A
:1084C80002F11444BDE600BF70B54FF0FF0C4CF448
:1084D800E06C1CEA11541DBF1CEA135594EA0C0FFA
:1084E80095EA0C0F00F0DEF82C4481EA030621EA35
:1084F8004C5123EA4C5350EA013518BF52EA033570
:1085080041F4801143F4801338D0A0FB02CE4FF021
:108518000005E1FB02E506F00042E0FB03E54FF051
:108528000006E1FB03569CF0000F18BF4EF0010E49
:10853800A4F1FF04B6F5007F64F5407404D25FEA45
:108548004E0E6D4146EB060642EAC62141EA5551F8
:108558004FEAC52040EA5E504FEACE2EB4F1FD0C3A
:1085680088BFBCF5E06F1ED8BEF1004F08BF5FEAB8
:10857800500E50F1000041EB045170BD06F000466A
:1085880046EA010140EA020081EA0301B4EB5C0417
:10859800C2BFD4EB0C0541EA045170BD41F480110F
:1085A8004FF0000E013C00F3AB8014F1360FDEBF34
:1085B800002001F0004170BDC4F10004203C35DA10
:1085C8000C341BDC04F11404C4F1200500FA05F393
:1085D80020FA04F001FA05F240EA020001F0004234
:1085E80021F0004110EBD37021FA04F642EB0601AA
:1085F8005EEA430E08BF20EAD37070BDC4F10C04D4
:10860800C4F1200500FA04F320FA05F001FA04F297
:1086180040EA020001F0004110EBD37041F1000183
:108628005EEA430E08BF20EAD37070BDC4F120058E
:1086380000FA05F24EEA020E20FA04F301FA05F2F6
:1086480043EA020321FA04F001F0004121FA04F29E
:1086580020EA020000EBD3705EEA430E08BF20EA6E
:10866800D37070BD94F0000F0FD101F000464000A8
:1086780041EB010111F4801F08BF013CF7D041EA2A
:10868800060195F0000F18BF704703F0004652002E
:1086980043EB030313F4801F08BF013DF7D043EAFF
:1086A8000603704794EA0C0F0CEA135518BF95EAB5
:1086B8000C0F0CD050EA410618BF52EA4306D1D13C
:1086C80081EA030101F000414FF0000070BD50EA5B
:1086D800410606BF1046194652EA430619D094EAE5
:1086E8000C0F02D150EA013613D195EA0C0F05D1CF
:1086F80052EA03361CBF104619460AD181EA030123
:1087080001F0004141F0FE4141F470014FF00000DA
:1087180070BD41F0FE4141F4780170BD70B54FF075
:10872800FF0C4CF4E06C1CEA11541DBF1CEA1355F5
:1087380094EA0C0F95EA0C0F00F0A7F8A4EB0504D7
:1087480081EA030E52EA03354FEA013100F08880CE
:108758004FEA03334FF0805545EA131343EA126397
:108768004FEA022245EA111545EA10654FEA00264C
:108778000EF000419D4208BF964244F1FD0404F505
:10878800407402D25B084FEA3202B61A65EB030561
:108798005B084FEA32024FF480104FF4002CB6EB1E
:1087A800020E75EB030E22BFB61A754640EA0C009E
:1087B8005B084FEA3202B6EB020E75EB030E22BFDE
:1087C800B61A754640EA5C005B084FEA3202B6EB1F
:1087D800020E75EB030E22BFB61A754640EA9C00DE
:1087E8005B084FEA3202B6EB020E75EB030E22BFAE
:1087F800B61A754640EADC0055EA060E18D04FEA6C
:10880800051545EA16754FEA06164FEAC30343EA0B
:1088180052734FEAC2025FEA1C1CC0D111F4801FD8
:108828000BD141EA00014FF000004FF0004CB6E7D1
:1088380011F4801F04BF01430020B4F1FD0C88BF70
:10884800BCF5E06F3FF6AFAEB5EB030C04BFB6EB7B
:10885800020C5FEA500C50F1000041EB045170BD6E
:108868000EF0004E4EEA113114EB5C04C2BFD4EB9B
:108878000C0541EA045170BD41F480114FF0000E1F
:10888800013C90E645EA060E8DE60CEA135594EA9B
:108898000C0F08BF95EA0C0F3FF43BAF94EA0C0F9E
:1088A8000AD150EA01347FF434AF95EA0C0F7FF413
:1088B80025AF104619462CE795EA0C0F06D152EA67
:1088C80003353FF4FDAE1046194622E750EA41064B
:1088D80018BF52EA43067FF4C5AE50EA41047FF45C
:1088E8000DAF52EA43057FF4EBAE12E74FEA4102BF
:1088F800B2F1E04324BFB3F5001CDCF1FE5C0DD9F6
:1089080001F0004C4FEAC0024CEA5070B2F1004F3F
:1089180040EB830008BF20F00100704711F0804F42
:1089280021D113F13872BCBF01F00040704741F407
:1089380080114FEA5252C2F11802C2F1200C10FA0B
:108948000CF320FA02F018BF40F001004FEAC123EF
:108958004FEAD32303FA0CFC40EA0C0023FA02F393
:108968004FEA4303CCE77FEA625307D150EA013369
:108978001EBF4FF0FE4040F44000704701F0004039
:1089880040F0FE4040F40000704700BF80F0004017
:1089980002E000BF81F0004142001FBF5FEA4103CF
:1089A80092EA030F7FEA226C7FEA236C6AD04FEACF
:1089B8001262D2EB1363C1BFD21841404840414014
:1089C800B8BF5B42192B88BF704710F0004F40F4C6
:1089D800000020F07F4018BF404211F0004F41F4E2
:1089E800000121F07F4118BF494292EA030F3FD0AE
:1089F800A2F1010241FA03FC10EB0C00C3F12003C1
:108A080001FA03F100F0004302D5494260EB40004F
:108A1800B0F5000F13D3B0F1807F06D340084FEABA
:108A2800310102F10102FE2A51D2B1F1004F40EBAF
:108A3800C25008BF20F0010040EA03007047490017
:108A480040EB0000013A28BFB0F5000FEDD2B0FAB4
:108A580080FCACF1080CB2EB0C0200FA0CF0AABFD7
:108A680000EBC25052421843BCBFD0401843704775
:108A780092F0000F81F4000106BF80F4000001327B
:108A8800013BB5E74FEA41037FEA226C18BF7FEA52
:108A9800236C21D092EA030F04D092F0000F08BF94
:108AA8000846704790EA010F1CBF0020704712F07B
:108AB8007F4F04D1400028BF40F00040704712F1BA
:108AC80000723CBF00F50000704700F0004343F01F
:108AD800FE4040F4000070477FEA226216BF084655
:108AE8007FEA23630146420206BF5FEA412390EA18
:108AF800010F40F4800070474FF0000304E000BF0E
:108B080010F0004348BF40425FEA000C08BF7047BE
:108B180043F0964301464FF000001CE050EA010282
:108B280008BF70474FF000030AE000BF50EA010297
:108B380008BF704711F0004302D5404261EB410184
:108B48005FEA010C02BF84460146002043F0B643A9
:108B580008BFA3F18053A3F50003BCFA8CF2083ACE
:108B6800A3EBC25310DB01FA02FC634400FA02FCD7
:108B7800C2F12002BCF1004F20FA02F243EB0200DE
:108B880008BF20F00100704702F1200201FA02FC40
:108B9800C2F1200250EA4C0021FA02F243EB020033
:108BA80008BF20EADC7070474FF0FF0C1CEAD05277
:108BB8001EBF1CEAD15392EA0C0F93EA0C0F6FD038
:108BC8001A4480EA010C400218BF5FEA41211ED016
:108BD8004FF0006343EA501043EA5111A0FB013102
:108BE8000CF00040B1F5000F3EBF490041EAD371D7
:108BF8005B0040EA010062F17F02FD2A1DD8B3F153
:108C0800004F40EBC25008BF20F00100704790F0C1
:108C1800000F0CF0004C08BF49024CEA502040EA13
:108C280051207F3AC2BFD2F1FF0340EAC2507047D9
:108C380040F400004FF00003013A5DDC12F1190F17
:108C4800DCBF00F000407047C2F10002410021FA89
:108C580002F1C2F1200200FA02FC5FEA310040F1A1
:108C6800000053EA4C0308BF20EADC70704792F01A
:108C7800000F00F0004C02BF400010F4000F013A52
:108C8800F9D040EA0C0093F0000F01F0004C02BF4D
:108C9800490011F4000F013BF9D041EA0C018FE7BC
:108CA8000CEAD15392EA0C0F18BF93EA0C0F0AD0C2
:108CB80030F0004C18BF31F0004CD8D180EA0100E8
:108CC80000F00040704790F0000F17BF90F0004F81
:108CD800084691F0000F91F0004F14D092EA0C0F63
:108CE80001D142020FD193EA0C0F03D14B0218BFF6
:108CF800084608D180EA010000F0004040F0FE403C
:108D080040F40000704740F0FE4040F440007047D7
:108D18004FF0FF0C1CEAD0521EBF1CEAD15392EA56
:108D28000C0F93EA0C0F69D0A2EB030280EA010C46
:108D380049024FEA402037D04FF0805343EA1111DF
:108D480043EA10130CF000408B4238BF5B0042F13D
:108D58007D024FF4000C8B4224BF5B1A40EA0C00E2
:108D6800B3EB510F24BFA3EB510340EA5C00B3EB14
:108D7800910F24BFA3EB910340EA9C00B3EBD10F02
:108D880024BFA3EBD10340EADC001B0118BF5FEA54
:108D98001C1CE0D1FD2A3FF650AF8B4240EBC2507D
:108DA80008BF20F0010070470CF0004C4CEA50203E
:108DB8007F32C2BFD2F1FF0340EAC250704740F48D
:108DC80000004FF00003013A37E792F0000F00F07F
:108DD800004C02BF400010F4000F013AF9D040EAFD
:108DE8000C0093F0000F01F0004C02BF490011F491
:108DF800000F013BF9D041EA0C0195E70CEAD15389
:108E080092EA0C0F08D142027FF47DAF93EA0C0F6F
:108E18007FF470AF084676E793EA0C0F04D14B0253
:108E28003FF44CAF08466EE730F0004C18BF31F005
:108E3800004CCAD130F000427FF45CAF31F00043FF
:108E48007FF43CAF5FE700BF7BB972B90029BEBFB2
:108E580000204FF0004106E008BF00281CBF6FF05B
:108E680000414FF0FF3000F057B8ADF1080C6DE944
:108E780004CE002909DB002B1ADB00F015F9DDF818
:108E880004E0DDE9022304B07047404261EB410190
:108E9800002B1BDB00F008F9DDF804E0DDE9022314
:108EA80004B0404261EB4101524263EB4303704717
:108EB800524263EB430300F0F7F8DDF804E0DDE924
:108EC800022304B0404261EB41017047524263EB18
:108ED800430300F0E9F8DDF804E0DDE9022304B01B
:108EE800524263EB4303704753B94AB9002908BF9C
:108EF80000281CBF4FF0FF314FF0FF3000F00CB8D6
:108F0800ADF1080C6DE904CE00F0CEF8DDF804E010
:108F1800DDE9022304B07047704700BF4FF0FF3C03
:108F280006E000BF4FF0010C02E000BF4FF0010C5B
:108F38004DF804CD4FEA410C7FEA6C5C4FEA430CD4
:108F480018BF7FEA6C5C1BD001B050EA410C0CBF23
:108F580052EA430C91EA030F02BF90EA020F002085
:108F6800704710F1000F91EA030F58BF994208BFEC
:108F780090422CBFD8176FEAE37040F001007047A9
:108F88004FEA410C7FEA6C5C02D150EA013C07D100
:108F98004FEA430C7FEA6C5CD6D152EA033CD3D04B
:108FA8005DF8040B704700BF8446104662468C4645
:108FB8001946634600E000BF01B5FFF7B7FF002878
:108FC80048BF10F1000F01BD4DF808EDFFF7F4FFA1
:108FD8000CBF012000205DF808FB00BF4DF808ED2C
:108FE800FFF7EAFF34BF012000205DF808FB00BF4F
:108FF8004DF808EDFFF7E0FF94BF012000205DF871
:1090080008FB00BF4DF808EDFFF7CEFF94BF012025
:1090180000205DF808FB00BF4DF808EDFFF7C4FF1E
:1090280034BF012000205DF808FB00BF4FEA410C67
:109038007FEA6C5C02D150EA013C0AD14FEA430C4A
:109048007FEA6C5C02D152EA033C02D14FF0000087
:1090580070474FF0010070474FEA410212F50012C5
:1090680015D211D56FF47873B3EB625212D94FEA67
:10907800C12343F0004343EA505311F0004F23FA51
:1090880002F018BF404270474FF00000704750EAA6
:10909800013005D111F0004008BF6FF00040704763
:1090A8004FF00000704700BF2DE9F04786468C4618
:1090B8000846089E154674461946002B40F0C180A4
:1090C8008542B2FA82F245D94AB1C2F1200300FAC8
:1090D80002FC954094402EFA03F343EA0C0C4FEA45
:1090E800154EA8B2230CBCFBFEF80EFB18CC08FBEF
:1090F80000F943EA0C43994528D9EB1808F1FF37E2
:1091080004D2994502D9A8F102072B44A3EB09031D
:10911800A4B2B3FBFEFC0EFB1C330CFB00F044EACC
:109128000344A04214D92C190CF1FF3304D2A042F5
:1091380002D9ACF102032C44241A43EA07401EB1B9
:10914800D440002334607360BDE8F0874746DDE70C
:109158006346F1E792BB431B01214FEA154EAFB2BC
:10916800200CB3FBFEFC0EFB1C330CFB07F840EA9B
:109178000343984561D9EB180CF1FF3004D29845A8
:1091880002D9ACF102002B44A3EB0803A4B2B3FB51
:10919800FEFC0EFB1C330CFB07F744EA0344A74212
:1091A8004DD92C190CF1FF3304D2A74202D9ACF1E6
:1091B80002032C44E41B43EA0040C0E7C2F1200349
:1091C8009540944020FA03F12EFA03F34FEA154E26
:1091D8009040AFB20343B1FBFEFC0EFB1C10190C10
:1091E8000CFB07F841EA0041884522D969180CF1BF
:1091F800FF3004D2884502D9ACF102002944A1EB22
:1092080008019BB2B1FBFEFC0EFB1C110CFB07F71F
:1092180043EA01439F420ED9EB180CF1FF3104D207
:109228009F4202D9ACF102012B44DB1B41EA004109
:1092380093E76046E3E76146F7E76046A4E76346DD
:10924800B8E7834206D916B9002108467CE7C6E983
:1092580000E0F9E7B3FA83F78FB9834201D3724587
:1092680008D8BEEB020460EB030301209C461EB93C
:10927800002169E73846FAE7C6E9004CF8E7C7F184
:10928800200CBB400EFA07F522FA0CF42EFA0CF16A
:10929800BA401C4320FA0CF3B8404FEA1449014382
:1092A8001FFA84FEB3FBF9F809FB18300B0C08FB16
:1092B8000EFA43EA00439A4540D9E31808F1FF3013
:1092C80004D29A4502D9A8F102002344A3EB0A0369
:1092D80089B2B3FBF9F809FB183308FB0EFE41EA23
:1092E80003418E452CD9611808F1FF3304D28E450D
:1092F80002D9A8F10203214443EA0040A1EB0E0180
:10930800A0FB02984145CE46434602D306D14D45BF
:1093180004D20138B9EB020E68EB0403002EA7D083
:10932800B5EB0E0261EB030101FA0CFC22FA07F31C
:10933800F9404CEA0303C6E9003199E74046C5E71E
:109348004346D9E710F8012B11F8013B012A28BF41
:109358009A42F7D0D01A7047034613F8012B002A17
:10936800FBD1181A01387047F8B50C46FFF742F8D8
:1093780025A3D3E90023FFF7A7F8FFF7B7FA0546B7
:10938800631EDBB2022B96BF274A002052F8230047
:109398002946FFF709FCFFF73FF8064628460F461F
:1093A800FFF73AF802460B4600202049FEF7D4FEA4
:1093B80002460B4630463946FFF7B0F9FFF796FAF2
:1093C8001B49FFF7A5FCFFF727F819F057FD10A375
:1093D800D3E90023FFF7A2F90FA3D3E90023FEF78F
:1093E800BDFE02460B4600201249FFF797F9FFF72A
:1093F8007DFAFFF711F80AA3D3E90023FEF7ACFEC4
:10940800FFF774FAF8BD00BF02A0663AB3CD2C3F4F
:10941800000000000002AF4083DBB5DCE1796B3F60
:109428006666666666127140B0AA020000000840CF
:1094380000401C460000F03FF0B5644D87B0D5F8F9
:109448006031996811F001011AD140F6034005AA6C
:1094580008F0B2FB0446002840F0B5800598C368C0
:109468001B785BB905F1CC03D3E8AF2F02F00902F2
:10947800D3E8EF1FC3E8E42F002CF9D10FF06AFFFF
:10948800002141F2030005AA08F096FB04460028D3
:1094980040F09980059B4E4EDA68D2F80100D2F868
:1094A800051003C618460FF055FF214641F201008A
:1094B80005AA08F081FB0446002840F0848005983E
:1094C800C3685A7885F868205A88A5F86A201A79F6
:1094D80085F86920B3F80720A5F86C20B3F80530A3
:1094E800A5F86E300FF036FF214641F2020005AABA
:1094F80008F062FB0446002865D1059FFA68531CF2
:109508004132344618685968083303C493422646E2
:10951800F7D138460FF01EFF0AF072F9044600280A
:1095280051D195F8823013F0200318D1294A2A49DD
:10953800CDE90132009302221CF04FFD95F87430FA
:1095480013F040034CD1254A1846CDE9013222498F
:10955800012200931CF041FD6FF0120433E0072153
:1095680040F6334008F0DAFA0646002800F0408159
:1095780007210C3010F010F8452303700623C0F8BB
:1095880002408471447004712246C370314640F62B
:10959800334008F011FB0446A8B9012140F63140D8
:1095A80008F0BCFA0646002800F0228101210C30A0
:1095B8001EF08FFB2246314640F6314008F0FCFA97
:1095C80004460028BAD0204607B0F0BD008000202D
:1095D80070800020D5DB020008A7020003DC02002F
:1095E800002142F2030005AA08F0E6FA0446002822
:1095F800E9D1059BBE4EDA68D2F80100D2F8051011
:1096080003C618460FF0A6FE214642F2020005AA3C
:1096180008F0D2FA04460028D5D1059CE368B3F8CF
:10962800012091B2A5F8FC2029B1DA78114606F19B
:1096380028001FF006FF20460FF08CFE95F8746096
:1096480016F0200618D1022140F66D4008F066FA9F
:109658000446002800F0CC8002210C300FF09CFF5B
:109668000123214603704670324640F66D4008F0EB
:10967800A3FA04460028A6D195F894301F0712D5FE
:10968800002142F21C0005AA08F096FA04460028B8
:1096980099D10598C368D3F80120D3F80530C5E9F6
:1096A80036230FF057FE95F8D0309E0624D50DF1DD
:1096B800120104A808F0F6FA0446002883D1042110
:1096C80042F2240008F02AFA0646002800F09080AA
:1096D80004210C300FF060FFBDF8103022460380E3
:1096E800BDF812303146438042F2240008F064FA93
:1096F800044600287FF467AF95F8D0305C0610D593
:10970800002142F22A0005AA08F056FA0446002869
:109718007FF459AF0598C3685B7885F818310FF066
:1097280019FE082142F2010008F0F8F90446002861
:109738005ED008210C300FF02FFF95F8D01040F2C2
:10974800022311F0400F08BF0323024688074CBFCD
:1097580043F02C0043F00C008B0695F8D13048BF3D
:1097680040F0400013F0090F95F89A3018BF40F404
:10977800006003F00603CF0748BF40F01000062B37
:1097880008BF40F4C07000211CF03EFC21460022B6
:1097980042F2010008F010FA044600287FF413AFE3
:1097A80095F87430B5F8FC109E0624D4C9B941F276
:1097B800050005AA08F000FA044600287FF403AF64
:1097C800B5F8FC30059C4BB9E368B3F80120A5F85F
:1097D800FC209A88474811461FF033FE20460FF0B8
:1097E800B9FD082140F6014008F098F9044680B90F
:1097F8006FF06804E7E60029F3D13F4B0122CDE979
:1098080001033E49034600901CF0E7FB6FF0040497
:10981800D9E608210C300FF0BFFE95F8D03002468B
:10982800D9071CD44FF0005135481CF0EDFB2146F8
:10983800002240F6014008F0BFF9044600287FF4F2
:10984800C2AE014605AA4FF6014008F0B5F9064632
:1098580048B12C4BCDE901430094234613E022A1E3
:10986800D1E90001E1E705980FF074FD31464FF6A4
:10987800024005AA08F0A0F90446C0B1224B0096A0
:10988800CDE901633346022218461C491CF0A5FBAA
:1098980009F036FC044600287FF495AE0BF016F963
:1098A800044600287FF48FAE08F07AFF8BE605980F
:1098B800C368B3F80130A5F8B9300FF04BFD95F83F
:1098C800B9305B07E4D521464FF6034005AA08F0F6
:1098D80073F908B10D4BBDE70598C3685B7885F847
:1098E800B8300FF037FDD3E79088000200800020E1
:1098F800D08000200081002027DC020008A7020099
:10990800108800024ADC02006EDC020097DC0200CC
:10991800B1F5801F02460B462DE9F04F0D4687B082
:1099280024DA21F00044044308D100220023002057
:10993800C949FEF7F3FE07B0BDE8F08F002904DA45
:10994800FEF70AFC00220023F3E70022C34BFEF7D0
:10995800BBFD0B460D4602466FF03501C0488542F7
:1099680006DD10461946FEF7F9FBE4E70021F5E7A6
:109978002C15C5F3130510460022A4F2FF340C443D
:1099880005F5152101F6647101F4801686F07F5102
:1099980004EB165481F4401141EA05031946B14B12
:1099A800FEF7DAFBAB1C82468B46C3F31303002297
:1099B800022B53DC0023FFF707FBD0B1002C00F08B
:1099C80020812046FEF716FD06460F468EA3D3E9F2
:1099D8000023FEF779FD04460D46304639468CA330
:1099E800D3E90023FEF770FD02460B4620462946C0
:1099F800B9E789A3D3E9002350465946FEF764FD29
:109A080002460B4600209849FEF7A6FB06460F467D
:109A180052465B4650465946FEF756FD02460B46EF
:109A280030463946FEF750FD06460F4614B9324611
:109A38003B46A0E02046FEF7DDFC8046894672A33F
:109A4800D3E90023FEF740FD04460D46404649464B
:109A58006FA3D3E90023FEF737FDA5E04FF080435D
:109A6800A5F5C226FEF77AFB02460B465046594634
:109A7800C5F5D725FEF752FEA6F27A465135CDE94F
:109A8800000120463543FEF7B5FCDDE90023CDE9AA
:109A9800020110461946FEF717FD02460B46CDE9AE
:109AA8000423FEF711FD804689465DA3D3E9002310
:109AB800FEF70AFD5CA3D3E90023FEF74FFB4246FD
:109AC8004B46FEF701FD5AA3D3E90023FEF746FBF8
:109AD80042464B46FEF7F8FC57A3D3E90023FEF7AE
:109AE8003DFBDDE90423FEF7EFFC55A3D3E9002392
:109AF800CDE9040140464946FEF7E6FC52A3D3E906
:109B08000023FEF72BFB42464B46FEF7DDFC50A335
:109B1800D3E90023FEF722FB42464B46FEF7D4FC6E
:109B280002460B46DDE90401FEF718FB002D8046CE
:109B3800894648DD00224C4B50465946FEF7C4FC86
:109B480052465B46FEF7C0FC02460B4606460F46E9
:109B580040464946FEF702FBDDE90023FEF7B4FC68
:109B68008046894664B902460B4630463946FEF7B8
:109B7800F3FA02460B4650465946FEF7EDFADAE686
:109B880021A3D3E90023DDE90201FEF79DFC044689
:109B98000D461FA3D3E90023DDE90201FEF794FC7B
:109BA80042464B46FEF7DAFA02460B46304639463D
:109BB800FEF7D2FA52465B46FEF7CEFA02460B464D
:109BC80020462946D9E702460B4650465946FEF735
:109BD800C3FADDE90023FEF777FC06460F46002CA2
:109BE8003FF425AF08A3D3E90023DDE90201FEF71E
:109BF8006BFC04460D4606A3D3E90023DDE9020108
:109C080029E70020002196E60000E0FE422EE63F0C
:109C1800763C7935EF39EA3D555555555555D53F7B
:109C280044523EDF12F1C23FDE03CB966446C73F83
:109C3800599322942449D23F935555555555E53F9C
:109C48009FC678D0099AC33FAF788E1DC571CC3FA7
:109C580004FA97999999D93F000050C300005043DE
:109C6800FFFFEF7F0000F03F0000E03F0000000032
:109C78002DE9F04F144697B01D46476A8346239E48
:109C8800CDE904457FB9102019F038F90246CBF820
:109C9800240020B9A24BEA21A24819F067FDC0E9C7
:109CA80001770760C760DBF82430196859B15A6832
:109CB8000123584693404A608B6019F097FEDBF801
:109CC800243000221A602B1EB7BF23F00043002364
:109CD80001220593A8BF3360059F934BB8BF32603C
:109CE800BB4319D142F20F73229A1360C7F31303CF
:109CF800234300F0E085249B53B98C4B21E08C4B27
:109D080008930833249A1360089817B0BDE8F08FB9
:109D1800864B08930333F5E7DDE90423CDE90C23EB
:109D2800DDE90C0100220023FFF74EF9804650B10F
:109D38000123229A1360249B13B17E4B249A13604B
:109D48007D4B0893E0E714ABC7F30A5658460193D6
:109D580015AB0093DDE90C231AF0CEF80390002E22
:109D680078D00D9BA6F2FF36CDF84C80C3F31303D1
:109D780043F07F53DDE90C0143F4401319460022F8
:109D88006E4BFEF7E9F960A3D3E90023FEF79CFBCD
:109D98005FA3D3E90023FEF7E1F904460D463046F8
:109DA800FEF728FB5CA3D3E90023FEF78DFB0246F0
:109DB8000B4620462946FEF7D1F904460D46FFF723
:109DC8004BF900220746002320462946FFF706F9EB
:109DD80040B13846FEF70EFB22462B46FFF7F4F853
:109DE80000B9013F162F54D8554B03EBC703DDE9E3
:109DF8000C01D3E90023FFF7F1F800284BD0013F0D
:109E080000231293149B9B1B5A1E4CBFC3F10103E2
:109E180000230A9245BF0693002306930A93002F56
:109E28003BDB0A9B0F973B440A9300230B93209B31
:109E3800092B00F28980052BC5BF043B00240124AF
:109E48002093209B023B032B00F28980DFE803F07C
:109E58002D3A3859DDE914631E4406F23243202BAB
:109E6800C9BFC3F14003C3F120039F4006F2124368
:109E7800D8BF04FA03F006F1FF36C4BF24FA03F38F
:109E880047EA0300FEF7A6FA0122A1F1F87313923C
:109E980074E70123B5E71290B4E7069BDB1B069332
:109EA8007B420B9300230F93C1E700230E93219B62
:109EB800002B57DC012399461A46099321920CE09E
:109EC8000123F3E700230E93219BFB1803F10109FB
:109ED80009934B46012BB8BF0123DBF8240000216E
:109EE800042202F114059D4240D94160584619F0F8
:109EF8003DFD089000283CD1124B02464FF4D57125
:109F0800CAE60123DFE700BF61436F63A787D23F3B
:109F1800B3C8608B288AC63FFB799F501344D33F50
:109F2800F61003000D1103000000F07FF21003008B
:109F3800E91003001E0F03001D0F03000000F83F87
:109F480000A9020081110300012400230E9420932C
:109F58004FF0FF330022994609931223AEE70123FD
:109F68000E93F5E7219B99460993B6E70131520014
:109F7800B7E7DBF82430B9F10E0F089A1A606FD8EA
:109F8800002C6DD0002F36DD07F00F02A04BF8052E
:109F980003EBC203D3E90034CDE910344FEA2714A8
:109FA80017D59C4B04F00F044FF00308D3E908239E
:109FB800DDE90C01FEF7B2FBCDE90401954D5CB972
:109FC800DDE91023DDE90401FEF7A8FBCDE9040172
:109FD8002BE04FF00208F1E7E10709D508F1010885
:109FE800DDE91001D5E90023FEF76EFACDE910018D
:109FF80064100835E3E700F007817C42844B854D07
:10A008004FF0020804F00F02241103EBC203DDE94C
:10A018000C01D3E90023FEF757FA0023CDE9040128
:10A02800002C40F0E580002BD0D1129BDDE90445DF
:10A03800002B00F04C810022774B20462946FEF782
:10A04800CDFF002800F04381B9F1000F00F03F81F7
:10A05800099B002B00F3E480DDE90C34CDE90434DE
:10A06800159B002B02DB0E2F40F342820E9A002A2A
:10A0780040F067820B9C0025DDF81880B8F1000FCE
:10A088000DD00A9B002B0ADD4345069AA8BF43461C
:10A09800D21AA8EB030806920A9AD31A0A930B9BC2
:10A0A8000BB30E9B002B00F0A682002C00F0A182BF
:10A0B80029462246584619F0C3FD039A014605462B
:10A0C800584619F013FD03990646584619F08EFCB8
:10A0D8000B9B1B1B0B9300F091820B9A3146584641
:10A0E80019F0AEFD03900121584619F0E9FC0F9BC9
:10A0F8000446002B00F084821A460146584619F09F
:10A108009FFD209B0446012B03DC049B002B00F0E1
:10A118007C820026236904EB830318691FF0B0FDD5
:10A12800C0F120000F960A9B184410F01F0000F0A1
:10A138009182C0F12003042B40F38182C0F11C00FE
:10A14800069B0344804406930A9B03440A93069B98
:10A15800002B05DD1A460399584619F0CBFD0390EC
:10A168000A9B002B05DD21461A46584619F0C2FD08
:10A178000446129B002B00F07682214603981FF0BC
:10A18800CEFD002880F26F8200230A2203995846E8
:10A1980019F04EFC0E9B7E1E0390002B00F05C8293
:10A1A800002329460A22584619F042FC099B054615
:10A1B800002B03DC209B022B00F35E82B8F1000F1A
:10A1C80005DD29464246584619F094FD05460F9B81
:10A1D800002B00F0D0826968584619F0C7FB074683
:10A1E800002840F07F820D4B024640F2EA2153E5F9
:10A1F800E20706D508F10108D5E90023FEF764F95E
:10A208000123641008350BE74FF002080DE700BF83
:10A2180000A90200D8A802000000F03F8111030045
:10A2280020460022AC4B2946FEF74EF97E1E08F167
:10A238000108099CCDE904014046FEF7DBF8DDE999
:10A248000423FEF741F9A54B0022FDF787FFA1F192
:10A258005073CDE910011193002C3BD10022A04B83
:10A26800DDE90401FDF778FF02460B46CDE904233A
:10A27800DDE91023FEF7D0FE002840F05781DDE924
:10A28800102101F10043DDE90401FEF7A7FE0028D3
:10A298003FF4E2AE00242546219BDDF820A0DE43F2
:10A2A8004FF000082146584619F0A0FB002D00F099
:10A2B800A980B8F1000F05D0A84503D041465846FB
:10A2C80019F094FB2946584619F090FB9AE03E464F
:10A2D8004C46B1E7834B03EBC40353E90201089BE7
:10A2E8001C440E9B002B4AD002460B4600207E4998
:10A2F800FEF714FADDE91023FDF72EFFDDF820A0A4
:10A30800CDE91001DDE90401FEF7A6FE0546FEF7DA
:10A3180071F8024630350B46DDE90401FDF71CFFF4
:10A328000AF8015B02460B46CDE90401DDE910019C
:10A33800FEF772FE002865D100206C49DDE9042390
:10A34800FDF70AFF02460B46DDE91001FEF764FE41
:10A35800002840F00D81A24500F0EA8000225E4B03
:10A36800DDE91001FEF7B0F800225B4BCDE91001E2
:10A37800DDE90401FEF7A8F8CDE90401C2E7DDE94B
:10A388001023FEF7A1F8A046DDF820A0CDE91001C2
:10A39800DDE90401FEF760FE0546FEF72BF80246EC
:10A3A80030350B46DDE90401FDF7D6FE0AF8015BFE
:10A3B80002460B46A245CDE904234FF0000223D103
:10A3C800494BDDE91001FDF7C9FE02460B46DDE900
:10A3D8000401FEF721FE002840F0CA80002042490F
:10A3E800DDE91023FDF7B8FE02460B46DDE904015E
:10A3F800FEF7F4FD70B1C24608F1FF381AF8013CC7
:10A40800302BF8D0374655E0334BFEF75DF8CDE9F1
:10A418000401BDE7DDE90C34CDE90434159B002BBC
:10A42800FFF628AE0E2F3FF725AE2E4B03EBC703E2
:10A43800D3E90034CDE90634219B002B02DAB9F1C7
:10A44800000F64D0DDF820A0DDE90445DDE906232E
:10A4580020462946FEF762F9FEF7FEFD0646FDF79F
:10A46800C9FFDDE90623FEF72FF80246204606F16C
:10A4780030040B462946FDF76FFE0AF8014B089C8D
:10A4880002460B46AAEB0404A14540F08280FDF782
:10A4980065FE04460D46DDE90623FEF7BDFD0028EE
:10A4A80065D120462946DDE90623FEF78DFD08B172
:10A4B800F3075CD40399584619F098FA002301373A
:10A4C8008AF80030229B1F60249B002B3FF41CACB1
:10A4D800C3F800A018E400BF0000244000001C409E
:10A4E8000000144000A902000000E03F0000F03F17
:10A4F800A24B03EBC703D3E90034CDE90634219B13
:10A50800002B9FDAB9F1000F9CDC7FF4C3AE002268
:10A518009B4BDDE90601FDF7D7FFDDE90423FEF7D4
:10A5280071FD044600287FF4B5AE3E462546B4E0EA
:10A53800DDE90C34CDE90434159B002B01DB0E2F2B
:10A54800D6DD209A012A36DC139A82B303F233430C
:10A558000B9CDDF81880069A012158461A44069289
:10A568000A9A1A440A9219F0ABFA054686E53E465D
:10A5780053469A4613F8012D392A06D1089A9A4269
:10A58800F7D13022089901360A701A7801321A7008
:10A5980038E700227B4BFDF797FF00220023044693
:10A5A8000D46FEF711FD00283FF450AF82E7149BDB
:10A5B800C3F13603CCE709F1FF340B9BA34208DB58
:10A5C800B9F1000FA3EB04040EDBDDF818804B464D
:10A5D800C1E70B9B0F9AE31A0B94DDF8188000244F
:10A5E8001A444B460F92B6E7069BA3EB09080023D3
:10A5F800B1E7039E71E50B9A039970E5039672E53E
:10A60800209B012B17DC049BABB9059BC3F31303F9
:10A618009BB9059B23F00046360D360536B1069BDF
:10A628000126013306930A9B01330A930F9B002BE3
:10A638007FF470AD0F96012075E50026F6E73FF42C
:10A6480086AD1C33069A1A44984406920A9A1A440C
:10A658000A927CE50346F4E7099B002B2BDC209B40
:10A66800022B09DC27E0B9F1000F1DDC209B022B2F
:10A678001ADD3E46CDF82490099B002B7FF40CAEE2
:10A6880021460522584619F0D3F901460446039895
:10A698001FF045FB00287FF7FFADDDF820A0312330
:10A6A80001360AF8013BFBE50E9B3E46CDF82490A7
:10A6B800002B7FF483AD089F214603981FF010FA02
:10A6C800089B00F13009099A07F8019BFB1A9A4286
:10A6D80040F3CB8000230A220399584619F0A8F9C1
:10A6E8000390E9E72A6905F10C010C300232920067
:10A6F8001FF05BF801223946584619F0FBFA089B0F
:10A70800A846054603F1010ADDE9082313440A9324
:10A71800049B03F001030B930AF1FF3321460398CE
:10A7280006931FF0DDF94146099000F130090398BE
:10A738001FF0F5FA2A4621460746584619F046FB07
:10A74800C268014602B3584619F050F9002F3ADAA8
:10A7580001220399584619F0CDFA214603901FF0BB
:10A76800DEFA002803DC29D119F0010F26D0B9F14F
:10A77800390F1DD132E02846C1E700BF00A9020009
:10A7880000001440000024400E9003981FF0C7FA00
:10A798000E990C90584619F029F90C9A5ABB209B2F
:10A7A80053B90B9B43B9B9F1390F17D0002F05DD09
:10A7B800099B03F1310901E0002F2ADADDF818A01E
:10A7C8000AF8019B6EE5209B3B4304D1049B03F0F0
:10A7D8000103002BBCD0B9F1390F36D1069F3923BC
:10A7E80007F8013BBA46013F1AF8013C392B5AD009
:10A7F80001333B7056E5002F06DB209B3B4306D117
:10A80800049B03F0010313B9002AA1DCD6E7002A50
:10A81800E1DC0A9B57460AF8019C53452ED00023D9
:10A828000A220399584619F003F9A84503904FF0F6
:10A8380000034FF00A02414658460BD119F0F8F8C8
:10A84800804605460AF1010A66E7DDF818A009F115
:10A858000109B5E719F0ECF82946804600230A22D9
:10A86800584619F0E5F80546ECE7099B4FF0000853
:10A87800002BCCBF1F460127089B1F4401220399C8
:10A88800584619F037FA214603901FF048FA002875
:10A89800A8DC02D119F0010FA4D1BA4617F8013D7E
:10A8A800302BFAD0FEE4089BBB429BD13123089A97
:10A8B80001361370F6E4249B002B7FF420AA014B89
:10A8C800FFF73FBAE9100300034637B501241B79A7
:10A8D80000689C4043681B681C420ED10E4940F238
:10A8E800E4430E4A0E481AF0FAF90E481AF0F7F93E
:10A8F80040F2E44109481AF0EBF90569836801A9B7
:10A908005B68984730B92A68019B5340234214BFBB
:10A918000120002003B030BD6BB602003AB6020039
:10A92800A9B60200C6B6020008B51DF0ECFD014646
:10A9380004481AF012F8044A1388138801331BB22A
:10A94800138008BDD8B602006815022008B51DF0AE
:10A95800DAFD014604481AF000F8044A538853887F
:10A9680001331BB2538008BDF3B6020068150220FC
:10A9780008B51DF0C8FD0146044819F0EEFF044A69
:10A988009388938801331BB2938008BD0EB70200E9
:10A99800681502201FB55C201EF0F2FE034650B178
:10A9A8000022A0F85A203222011D0B4805B05DF89C
:10A9B80004EB19F0F7BD094A0090CDE901020849F6
:10A9C800022219F0E0FD40F267620023054805B055
:10A9D8005DF804EB15F0BCBF90A1020029B7020096
:10A9E800C8A70200B09100201FB55C201EF0C8FE69
:10A9F800034650B10022A0F85A203222011D0B480C
:10AA080005B05DF804EB19F0CDBD094A0090CDE919
:10AA180001020849022219F0B6FD40F267620023DC
:10AA2800054805B05DF804EB15F092BFA8A1020037
:10AA380054B70200C8A70200E091002070B5094E83
:10AA4800094D4FF0FF324FF0FF33304619F0BAFD91
:10AA58000024204601F0EAFA2B680134A342F0D31F
:10AA6800F7E700BFE88A0020500F022070B586B0D3
:10AA78006A4615460C4B03F11806144618685968BF
:10AA8800083303C4B3422246F7D1084C20464FF09E
:10AA9800FF324FF0FF3319F095FD182229460020A8
:10AAA80005F024F9F2E700BF7FB70200008B002011
:10AAB80010B5074C20464FF0FF324FF0FF3319F026
:10AAC80081FD01F0C9F8002001F006FBF2E700BFA4
:10AAD800308B0020034670B500681979012345685A
:10AAE8008B402D6882682B4204690ED10E494FF4C1
:10AAF8001D730E4A0E481AF0F2F80E481AF0EFF8D5
:10AB08004FF41D7109481AF0E3F824682342946948
:10AB180018BF4FF00073A446BDE8704008BF4FF05F
:10AB280080634FF0A07260476BB602003AB602002D
:10AB3800A9B60200C6B6020070B503788AB004460A
:10AB48000E4607AD032B20D8DFE803F002191B1DC2
:10AB5800114928461EF08BFF059563781E21049342
:10AB6800A37830460393E3780C4A02932379019340
:10AB780063790093A37919F0FDFE0AB070BD084906
:10AB8800E7E70849E5E70849E3E70A212846074ACD
:10AB980019F0F0FEE0E700BF97B70200B9B702006E
:10ABA8009EB70200A5B70200AFB70200BAEF0200D5
:10ABB80070B514468EB006AE0D461BF0B8FD314692
:10ABC800FFF7BAFF6CB90E4B0322CDE901432046CB
:10ABD8002346CDE903650B49009419F0D4FC0EB067
:10ABE80070BD094B022202930023CDE90454184694
:10ABF800CDE900330349039619F0C5FCEFE700BF20
:10AC0800DCB70200C8A70200FAB7020030B58FB05F
:10AC180006AD0C461BF08BFD2946FFF78DFF074B51
:10AC2800032202930023CDE903541846CDE90033EB
:10AC3800034919F0A8FC0FB030BD00BF1EB80200D0
:10AC4800C8A7020030B58FB006AD0C461BF06FFDEB
:10AC58002946FFF771FF074B032202930023CDE932
:10AC680003541846CDE90033034919F08CFC0FB0A2
:10AC780030BD00BF41B80200C8A7020010B58CB0B3
:10AC880004AC1BF054FD2146FFF756FF064B032288
:10AC98000293002305491846CDE90033039419F0BF
:10ACA80072FC0CB010BD00BF63B80200C8A7020058
:10ACB80030B58FB006AD0C461BF039FD2946FFF7BD
:10ACC8003BFF074B032202930023CDE903541846A8
:10ACD800CDE90033034919F056FC0FB030BD00BF71
:10ACE80079B80200C8A7020070B58EB00C460546B8
:10ACF80009F0EEF9114B06AE186028461BF017FD57
:10AD08003146FFF719FFCDE9036400240C4D0D4BC4
:10AD180029462046029303222346CDE9004419F030
:10AD280032FC094B0322CDE901432946234620463C
:10AD3800009419F028FC0EB070BD00BFD09D002013
:10AD4800C8A7020079B802008EB802002DE9F047C2
:10AD58000024054688B00F46164621461A2201A847
:10AD680000941EF05CFD28461BF0E1FC6946FFF7E5
:10AD7800E3FE69461F4818F0D1FCDFF87C80DFF855
:10AD88007C90B44207D05C201EF0FAFC054628B936
:10AD98001B4818F0C3FC08B0BDE8F087321B552AE1
:10ADA8008CBF552292B200F1040AA0F85A20391932
:10ADB80050461EF0FAFCB5F85A301C44A4B2A6421C
:10ADC8000AD1BA1912F8012C0D2A05D10A21EA185C
:10ADD80001331171A5F85A3051464046B5F85A204A
:10ADE80019F0E8FB0028CCD0294648461EF014FB91
:10ADF800C7E700BFBDB80200A8A10200B08B0020C1
:10AE0800D4B80200034610B50A4619790123006830
:10AE180003FA01F1436804691B6819420ED10E490F
:10AE280040F23D530D4A0E4819F059FF0D4819F0EC
:10AE380056FF40F23D51094819F04AFF236819426C
:10AE480003D022B183681B6903E0002AFAD0836823
:10AE5800DB68BDE8104018476BB602003AB602003E
:10AE6800A9B60200C6B6020008B5074814F0D0FF1C
:10AE780001210648FFF7C6FF1DF045FBBDE8084065
:10AE88000146034819F069BD608B002058AA0200EA
:10AE9800FFB8020070B505460C468CB061B1144B82
:10AEA80003910293002301221846CDE9003311498A
:10AEB80019F069FB0CB070BD04AE1BF038FC3146CC
:10AEC800FFF73AFE0C4B03222046CDE9014309491E
:10AED80023460396009419F056FB284609F0F8F823
:10AEE800064B012118600648FFF78CFFE2E700BF18
:10AEF80017B90200C8A7020032B90200D49D002089
:10AF080070AA020030B50C468FB006AD1BF00FFCDE
:10AF18002946FFF711FECDE9035400240D4B0E4DD1
:10AF28002046029303222346CDE900440B4919F039
:10AF38002AFB286810B109F0F3F82C60084C206847
:10AF480030B109F0EDF8002106482160FFF75AFFFB
:10AF58000FB030BD3FB90200D09D0020C8A7020045
:10AF6800D49D002070AA0200034670B50C46DA880A
:10AF780000681979224302F03004302C0569D0E9C1
:10AF880001360ED1254940F2B723254A254819F044
:10AF9800A6FE254819F0A3FE40F2B721204819F073
:10AFA80097FE02F00214022C0CD1204940F2BB2378
:10AFB8001B4A1C4819F093FE1D4819F090FE40F2F8
:10AFC800BB21EBE702F00604042C09D1194940F231
:10AFD800BF23134A134819F082FE40F2BF21DDE770
:10AFE80001241B688C401C420CD1134940F2D22327
:10AFF8000B4A0C4819F073FE104819F070FE40F225
:10B00800D221CBE72B6812F0010F14BF2343A343CF
:10B018002B603368BDE87040184700BF5CB9020078
:10B028003AB60200A9B6020095B90200D2B90200E8
:10B0380007BA020059BA02006BB60200C6B602008F
:10B048002DE9F04F364EDFF8DCA085B0364C0027EE
:10B05800A346DFF8D88063793BB101232279934076
:10B068007360237C3374637C73744FF0FF324FF04A
:10B07800FF33504614F06AFC2568AB683146284611
:10B088005B6898472279B8F90010294B019223F898
:10B098001210DFF8A090504614F028FDD9F80030BF
:10B0A800019A012B2DD12968234819F056FCB8F9CB
:10B0B8000010224819F051FC6379B8F90050E3B147
:10B0C8001421E37901FB07B1042B0ABF2368E28945
:10B0D8009B68897A08BF1A89237C6A43890644BF1A
:10B0E80003F1FF33DBB2A07903A9019303920EF0B9
:10B0F8007FFA10B9039D019B1D412946104819F09C
:10B108002CFC0137062F04F11404A4D1002340F6C7
:10B11800CD400021C9F8003019F05CFA96E700BF6D
:10B12800E48300201C9E0020E0A90200881502206C
:10B1380078150220189E00208CBA02009FBA0200DF
:10B14800A3BA020010B50B78023B032B19D8DFE82D
:10B1580003F0023142194A68CB68B2F85600254C10
:10B1680003449BB2A2F85630227852B94A68134475
:10B1780013F8013C0D2B04D11F4819F02DFA0123B7
:10B18800237010BD00241B4B5C201C701EF0F8FAC5
:10B1980040B1A0F85A40011D3222BDE810401648BF
:10B1A80019F000BA40F26762BDE810400023134866
:10B1B80015F0CEBB5C201EF0E3FA01460028E0D073
:10B1C8000023A0F85A300E485622BDE81040836884
:10B1D80004311B6918474B68191FB3F8563023B15F
:10B1E800BDE8104007481EF017B90846BDE81040F2
:10B1F8001EF0BFBAA615022090A10200E09100201F
:10B20800A8A10200788B00202DE9F84F1EF0C2F9A2
:10B218004FF47A72A0FB020302FB0131C00B4FF41A
:10B228007A72002340EA4140C90BFDF70DFE4FF446
:10B23800616200230D460646FDF756FE4FF4616332
:10B2480003FB00F1701A65EBE1713C220023FDF766
:10B258004BFE0546224F4FF47A761EF09BF9A0FB71
:10B26800064306FB0131E40B44EA41404FF47A728D
:10B278000023C90BFDF7E8FD4FF461620023044683
:10B288008A464FF46168FDF72FFE08FB00F88146F7
:10B29800B4EB08004FF03C026AEBE8710023FDF7BD
:10B2A80023FE6A1C8242D8D13C233B2A14BF154690
:10B2B8004FF0FF35A4EB0804B9F1180F03FB124354
:10B2C80014BF49460021384619F047FB00F074FDC9
:10B2D800044B186800F0AAFE034819F03EFBBAE7D1
:10B2E800ADBA0200500F02206EC002001FB50B78E5
:10B2F800052B29D8DFE803F003952C6B84488B686D
:10B3080013B3486800B3514A1368FBB1181F0023F0
:10B3180013604F4A13601EF02CFA002200234D4898
:10B3280014F00CFD80B1B0F85A20011D4A4819F0FC
:10B3380041F948B1494B0222029300231846CDE94E
:10B348000033474919F01FF904B010BD0438E2E78B
:10B358004A68CB68B2F85600034442489BB2A2F848
:10B3680056300278002AEFD14A68134413F8013C9A
:10B378000A2B01D00D2BE7D101230370364804B006
:10B38800BDE8104019F028B90024364B5C201C7029
:10B398001EF0F6F9034648B13222A0F85A40011DC2
:10B3A8002D4804B0BDE8104019F0FCB82E4A0090B2
:10B3B800CDE901022A49022219F0E5F840F2676254
:10B3C80000232A4804B0BDE8104015F0C1BA5C203B
:10B3D8001EF0D6F9034660B10022A0F85A201E4894
:10B3E800191D826814695622234604B0BDE810402E
:10B3F80018471D4A1A49CDE9010200900222A1E727
:10B408004B68191FB3F856302BB1194804B0BDE882
:10B4180010401EF001B8084604B0BDE810401EF008
:10B42800A8B90A4A13680BB94B68136008488B68B7
:10B4380001680B4411680360B1F856200648D21A17
:10B44800194404B0BDE8104019F0B4B8CC9D0020F0
:10B45800C89D0020B08B0020A8A10200DDBA020020
:10B46800C8A70200A7150220FBBA0200E09100203D
:10B47800948B002008B5054814F0CAFC1DF043F869
:10B48800BDE808400146024819F067BA008B002061
:10B4980024BB020008B5054814F0BAFC1DF033F8C7
:10B4A800BDE808400146024819F057BAE88A00206A
:10B4B8003CBB020008B5074814F0AAFC0121064865
:10B4C800FFF7A0FC1DF01FF8BDE80840014603483F
:10B4D80019F043BA308B002060AA020054BB020066
:10B4E8002DE9F0475C201EF04BF90125164FDFF8D7
:10B4F8005C90DFF85C804FF0FF324FF0FF33384646
:10B5080014F01CFC044638461DF079FFB4F85A10B4
:10B5180048466FF0020A013918F000F9E61CAAEB58
:10B52800040AB4F85A300AEB0602013B934205D8E4
:10B538002946084818F0F2F80135DCE7404616F8C5
:10B54800011F18F0EBF8ECE7788B00206CBB0200C9
:10B5580078BB02007CBB020070B54FF0FF324FF0A1
:10B56800FF330D4819F02EF80C4D0D4E4FF0FF32F9
:10B578004FF0FF33284614F0E1FB0446B0F85A2098
:10B58800011D002004F0B2FB10B1304619F0E5F9B6
:10B5980020461EF0EEF8E9E7D08A0020948B0020C0
:10B5A80082BB020070B53348334CA0621DF0BBFE6D
:10B5B80030B9A36A31481968BDE8704019F0CDB9AF
:10B5C8000021A06A21602E4D2A461CF04AFD20B1B8
:10B5D8002C48BDE8704019F0C0B96B682046A381BB
:10B5E8004FF40063E38103F0D3FA08B12648F0E78B
:10B5F800264D04232A460121204619F09DFD0028E6
:10B6080021DD01212A68224819F0A7F9214C0423D9
:10B6180022460221184819F08FFD00281EDD2268F5
:10B6280002211D4819F099F91C4B1A68B2F5B46F3C
:10B638003EBF226801321A601A68B2F5B46F01D1B0
:10B6480000221A6070BD0121154819F086F90423FB
:10B658002A460121204603F06DFCD7E70221114854
:10B6680019F07BF92246BDE8704004230221024804
:10B6780003F060BC38A20200E89D0020B6BB0200BF
:10B68800DC9D0020D4BB0200EDBB0200D89D002049
:10B6980000BC0200500F02204ABC0200540F0220D6
:10B6A8001DBC020068BC020084B02DE9F04106AC64
:10B6B80084E80F003D20BDF8F0671EF061F8002413
:10B6C8000546DFF85480771EA7421DD9B44201D33E
:10B6D80000220FE000226B1E04F1180169440132B8
:10B6E800097992B23D2A03F8011F04F1010401D03F
:10B6F800A642F1D82946002004F0F8FA0028E3D041
:10B70800404619F02AF9DFE728461EF032F8BDE86E
:10B71800F041002004B070479CBC020010B5054CF5
:10B728004FF0FF324FF0FF33204618F04BFF18F070
:10B7380056FFF5E7608B0020F8B5304C4FF48031A8
:10B748002046FFF711FC2046FFF7C4F92C492D4B82
:10B758002D4C4B604FF4000320468B602B4D18F0A6
:10B7680033FF26682A4F17223146284619F0F5F884
:10B778004FF480313846FFF7F7FB3846FFF7AAF950
:10B788002449254B20464B604FF08073234F8B6034
:10B7980018F01AFF18223146284619F0DEF84FF43F
:10B7A80080313846FFF7E0FB3846FFF793F91C492C
:10B7B8001C4B20464B604FF480731B4F8B6018F076
:10B7C80003FF08223146284619F0C7F84FF48031A4
:10B7D8003846FFF7C9FB3846FFF77CF91349144B85
:10B7E80020464B604FF400738B6018F0EDFE314635
:10B7F8002846BDE8F840092219F0AFB8A8AA020007
:10B80800789E002071AE000048A10200C0BC020072
:10B81800A0AA02006C9E0020BDB4000098AA0200F5
:10B82800609E00209DB4000090AA0200549E002053
:10B838007DB40000F8B52E4C4FF480312046FFF758
:10B8480093FB2046FFF740F801462A4819F085F88F
:10B858002046FFF73FF92849284B294C4B60102315
:10B8680020468B60274D18F0AFFE2668264F04222D
:10B878003146284619F071F84FF480313846FFF701
:10B8880073FB3846FFF720F80146204819F065F8A1
:10B898003846FFF71FF91E491E4B1F4F4B602023E8
:10B8A80020468B6018F090FE05223146284619F094
:10B8B80054F84FF480313846FFF756FB3846FFF707
:10B8C80003F80146154819F048F83846FFF702F919
:10B8D8001349144B20464B6040238B6018F074FECC
:10B8E80031462846BDE8F840062219F036B800BFB0
:10B8F80088AA0200DCBC0200489E002031A9000092
:10B9080030A10200F4BC020080AA020017BD0200A8
:10B918003C9E002055A9000078AA02002FBD020015
:10B92800309E002079A9000008B54FF400310A487C
:10B93800FFF71AFB4FF400310848FFF715FB4FF4E7
:10B9480000310748FFF710FBBDE808404FF400310D
:10B958000448FFF709BB00BF70AA020068AA0200EA
:10B9680060AA020058AA020008B500210848FFF79B
:10B9780049FA00210748FFF745FA00210648FFF772
:10B9880041FABDE8084000210448FFF73BBA00BF70
:10B9980070AA020068AA020060AA020058AA02005F
:10B9A80038B50025124C54F8060C1DF0BCFC20B923
:10B9B8001048BDE8384018F0D0BF14F8013C6BB10E
:10B9C80054F8060C836821461B689847021E08DA5B
:10B9D8002946BDE83840084818F0BFBF6FF0850217
:10B9E800F6E70135062D04F11404DCD138BD00BF9B
:10B9F800E6A9020047BD020068BD020070B58CB020
:10BA080066481DF0E9FCFFF78FFFFFF7ADFFFFF772
:10BA180093FEFFF70FFFFFF7C3FF614D28461DF0A8
:10BA280082FCD8B15C201DF0ABFE0446B0B1002604
:10BA38005C49A0F85A605C4814F06EFEAB681B685D
:10BA480073B920461DF095FE584B0122029300233E
:10BA580057491846CDE9003318F095FD18F0D5FD83
:10BA680032462846534998470028EAD15C201DF001
:10BA780087FE06460028F1D0031D18464E491DF0E2
:10BA8800F6FF26220146A6F85A20284618F092FD0D
:10BA9800014618B1494817F041FEDFE7211D56223B
:10BAA800284618F07FFD04460028D7D1444E30467A
:10BAB8001DF039FC0028D1D05C201DF061FE414901
:10BAC800A0F85A400546404814F026FEB3681B68A3
:10BAD8001BB1224630463D49984732223848291D35
:10BAE80018F060FD3A4808F0BBFF28B139480CB09F
:10BAF800BDE8704018F031BF374808F0CBFF08B1F7
:10BB08003648F4E706F05EFE0028A7D1344817F05F
:10BB180005FE344817F002FE334817F0FFFD33489E
:10BB280014F076F9324804F0D5F8014628B13148C6
:10BB38000CB0BDE8704017F0F1BD2F4D07AC0FCD2C
:10BB48000FC42B680125236002222C4B2C49009539
:10BB580007A807F02BFD044628B10146294817F02D
:10BB6800DDFD0CB070BD284B42F2676000211D60FE
:10BB780018F030FDFFF716FD244E05AD013496E8A8
:10BB8800030085E80300284604F00101FFF73AF9AD
:10BB98004FF40040002118F01DFDEFE71C9E002027
:10BBA800A8A10200F1A90000E09100208ABD0200CE
:10BBB800C8A70200F5B20000AABD0200D1BD02006C
:10BBC80090A102009DA90000B09100204DB1000095
:10BBD800CC830020FABD0200BC83002027BE0200EF
:10BBE80059BE020072BE020093BE0200D08A002035
:10BBF800B0830020BCBE020010A80200C8A9020041
:10BC0800D0A90200E8BE0200189E002068AA02001F
:10BC1800104B37B55A790546D2B1DA791C7C042A1B
:10BC280009BF1A68D989926811899A7A92060268B6
:10BC380048BF04F1FF3401FB02F2987901A948BF1B
:10BC4800E4B201920DF0D4FC10B9019B23412B60A2
:10BC580003B030BDE0A9020010B50D4C01212368E6
:10BC68002246013323600B48042303F063F90423BD
:10BC780022460121074819F05FFA002806DD2268EC
:10BC88000121BDE81040044818F067BE10BD00BF90
:10BC9800D89D0020E89D002000BC020008B51DF0DA
:10BCA80079FC4FF47A72A0FB020302FB0131C00B4E
:10BCB8004FF47A72002340EA4140C90BFDF7C4F8FB
:10BCC80003460148184408BD8099CF6138B50D4630
:10BCD8000446FFF7E3FF0021044B33F9152023F84E
:10BCE8001510C4E90002204638BD00BF68150220BF
:10BCF80070B506460D4640201DF042FD05F57A71E7
:10BD080002464023044689B2094819F015FA354617
:10BD180081B2084817F002FD0FCC0FC50FCC0FC534
:10BD28000FCC0FC594E80F0085E80F00304670BDB2
:10BD3800E89D0020B0BF0200F8B54021064618482B
:10BD480017F0ECFC40201DF01BFD05460746154C7E
:10BD580004EB86140FCC0FC50FCC0FC50FCC0FC545
:10BD680094E80F00104C85E80F0031460F4817F093
:10BD7800D5FC06F57A713A464023204689B203F08D
:10BD8800D9F881B20A4817F0C9FC042320460221D9
:10BD9800084A03F0CFF83846BDE8F8401DF0E9BC82
:10BDA800C6BF020050A70020E89D0020E2BF0200A5
:10BDB800EFBF0200500F02202DE9F341314D324B05
:10BDC8002E68B6F5B46F1E6059D2FFF767FF4FF0C3
:10BDD80000082E4C2F6804EB8616C6E902887060AE
:10BDE800FFF75CFF2A4E04EB8713B6F900206F4675
:10BDF800C3E90402FFF752FF2B68728804EB831330
:10BE08009A83FFF74BFF2B68B28804EB83139A845D
:10BE1800FFF744FF2B68F28804EB83139A85FFF73A
:10BE28003DFF2B6804EB83139861FFF737FF2B68FE
:10BE380004EB83131862FFF731FF2E68414604EBC9
:10BE48008616B0623846FFF741FF97E803002B6873
:10BE5800303604EB831486E8030038340121384671
:10BE6800FFF734FF97E8030084E803002868FFF72A
:10BE780063FF2B6801332B6002B0BDE8F08100231B
:10BE8800F9E700BF540F0220500F022050A70020EE
:10BE980078150220F0B51C4B89B018689B88009073
:10BEA800182200210DF10600ADF8043001261DF01E
:10BEB800B6FC0023154C7025C4E900364FF08043CA
:10BEC800A360134B0527E3600B232361114B6361C8
:10BED800A56169462677667704F11E001DF0C7FD47
:10BEE80005F2E73384F8326084F83370636305F54C
:10BEF8007A70FCF705FE0135762DA06304F1240461
:10BF0800E6D1024809B0F0BD6CA8020060A6002086
:10BF18000000404000004041F0B5ADF2144D074626
:10BF2800FFF7B8FF02228DF83020ADF832203A4AE8
:10BF38000CAE0D9231460C22034645688468C068F1
:10BF4800013A8D60CC60086101F10C01F8D11C69DF
:10BF580058690CA901320C2AC1F89840C1F89C0014
:10BF680001F10801F6D103F11E0503F1F60455F8B5
:10BF7800063C2946C6F8F83015F8023C06F1FE00E2
:10BF880086F8FC3015F8013C86F8FD301DF06FFD91
:10BF98002B7D002286F812316B7DD5F8160086F8C5
:10BFA80013313346D5F81A1001320C2AC3F814019C
:10BFB800C3F8181103F10803F6D12435A54206F198
:10BFC8007C06D4D16C464FF4FB626846134907AD32
:10BFD80000F050F90FCC0FC5236811490CAA07A827
:10BFE8002B6000F0C7FB00230A980C490D4A8342D6
:10BFF8000BD10D4940F2DC723846A1F8D8371DF054
:10C00800D4FB38460DF2144DF0BD11F8014B013345
:10C0180002F8014FEBE700BF87D61200A8150220EF
:10C02800BCAA0200879E0020849E00202DE9F04FC4
:10C038000446234D85B001464FEA8418214805EB94
:10C04800841417F06BFBD4E9021263681E4817F0DA
:10C0580065FB636903A80393FFF7DAFDD4E90412CB
:10C06800039B1A4817F05AFB0026DFF86490771CE8
:10C07800A08BF9B2D4F818A0B4F91CB0FDF774F984
:10C08800FCF7CAF95B46CDE90001524631464846FD
:10C0980017F044FB032F3E4604F10804E7D145445A
:10C0A800D5E90C2300210B4817F038FBD5E90E23FE
:10C0B8000121084805B0BDE8F04F17F02FBB00BFBD
:10C0C80050A7002006C002001FC002004BC002009B
:10C0D80071C0020097C002002DE9F047074694B0EE
:10C0E80040201DF04DFB06463546394602A802ACF5
:10C0F800FFF7FEFD0FCC0FC50FCC0FC50FCC0FC53A
:10C1080094E80F0085E80F003946214817F006FB30
:10C11800D6E9021273681F4817F000FB736913A869
:10C128001393FFF775FDD6E90412139B1A4817F00D
:10C13800F5FA34460025DFF864806F1CA08BF9B24D
:10C14800D4F81890B4F91CA0FDF70EF9FCF764F9BF
:10C158005346CDE900014A462946404617F0DEFA23
:10C16800032F3D4604F10804E7D1D6E90C2300214A
:10C178000B4817F0D3FAD6E90E230121084817F027
:10C18800CDFA304614B0BDE8F0471DF0F2BA00BF52
:10C1980006C002001FC002004BC0020071C00200AE
:10C1A80097C0020000B5837D01463F2B8BB049D86C
:10C1B80013F030001CD0202802D10B6A188806E042
:10C1C8003028FAD0102806D10A6A22B11078B0FABD
:10C1D80080F040090CE00A68906880B903F00F020B
:10C1E800052A0ED8CB694A8A1A44934203D1012002
:10C1F8000BB05DF804FB13F8011B0029F5D00020F3
:10C20800F6E7062A01D1CB69D8E7072A02D1CB691C
:10C218001878DCE70B2A01D1488AD8E703F00E0327
:10C22800082BE5D1CA696846496A18F099FA0028C6
:10C23800DDD06846FFF7B6FF0028D9D0684618F069
:10C24800B2FAF4E703F0C002802A01D1C069BEE760
:10C25800402AD4D103F00F030A2B02D1CB69186806
:10C26800B5E70368024AD8689042B0D1F6E700BF44
:10C27800CD4702008260002210B5034CC0E90322BA
:10C28800C0E9004110BD00BFFD470200F8B50446F3
:10C298001546C3689AB106688EB1D31802D287686A
:10C2A8009F4207D22369084A002B08BF1346002083
:10C2B8002361F8BDB04710B92369044AF4E7E3687D
:10C2C80001202B44E360F4E7B9C00200C5C00200B6
:10C2D80010B48C7D4B8A04F00F04022C17D1012B6B
:10C2E80005D1CB691A78002310BC18F08CBA022B40
:10C2F80002D1CB691A88F6E7042B02D1CB691A68F8
:10C30800F1E7082B1FD1CB69D3E90023ECE7012B18
:10C3180008D1CB6993F90020D317032CE4D110BCC2
:10C3280018F0B0BA022B03D1CB69B3F90020F3E7B8
:10C33800042B02D1CB691A68EEE7082B03D1CB692D
:10C34800D3E90023E9E70369034A002B08BF134632
:10C35800036110BC00207047CEC002004A8A042A3C
:10C3680002D1C96918F097BA082A02D1C96918F028
:10C3780095BA02690349002A08BF0A4602610020EB
:10C38800704700BFCEC002008A7D0B4602F00F0244
:10C398000B2A11D8DFE802F00C0C0C0C0E060A0A66
:10C3A8000A0A100A01211A8A18F07BBA0221FAE750
:10C3B8000021F8E70521F6E70369034A002B08BFC7
:10C3C8001346036100207047E0C002002DE9F041E8
:10C3D8000E46174686B014220021044601A81DF017
:10C3E8001EFA3A46314601A800F0C4F910B9059B77
:10C3F800236108E04FF00008049D43462A46204682
:10C4080018F001FA18B9002006B0BDE8F0812168DB
:10C4180021B92A462046FFF739FFF5E7E368A26805
:10C428002B44934205D923690E4A002B08BF1346B3
:10C43800DEE763683A46019101A83146CDE9023545
:10C44800CDE9048800F096F9049AE368AA421344F7
:10C45800E360029B6360059B01D12361D4E7024A34
:10C46800E3E700BFB9C00200F3C0020070B5CB69B2
:10C4780004460D46002B7FD0FFF786FF002873D0B7
:10C48800A87D00F00F030B2B73D8DFE803F006112B
:10C49800111117171D355252726FEB692046BDE80E
:10C4A80070401A780023003A18BF012218F0ABB97F
:10C4B80029462046BDE87040FFF70ABF29462046B6
:10C4C800BDE87040FFF74ABFE96909B90A460EE0BE
:10C4D8003F280A880AD86B8A023B934206D223690E
:10C4E800264A002B08BF134623613DE0023120464F
:10C4F800BDE8704018F0DBB900F0C00080286B8AF6
:10C50800E9690ED013B923691D4AEAE7013B0029FE
:10C51800DCD000229A42885C06D00028E7D001329D
:10C52800F8E74FF0FF33F2E70028E0D02369154A17
:10C53800D7E76A6A12B92369134AD2E7092B06D0EA
:10C548002046EA69696ABDE87040FFF73FBF2A6A7A
:10C55800002AF5D052F8083C002BF1D02946204695
:10C56800043A98470028EBD1002070BD6A8AE9692F
:10C57800BDE72369054AB4E70120F6E707C10200D1
:10C588001BC102002EC1020042C10200E0C002002D
:10C598002DE9F0438B7D054603F03002302A0C4626
:10C5A80087B012D10B6A1A880B8A9A4214D1E269B1
:10C5B800A37DEAB913F0300F0ED12B69694A002B1D
:10C5C80008BF13462B61002007E0102AEFD10A6A42
:10C5D80032B11378002BEAD1012007B0BDE8F0830F
:10C5E8003F2BE4D80846FFF7DDFD0028DFD0F3E74E
:10C5F80003F0C002402A0CD12368DB68002BEBD083
:10C6080022462946002098470028E5D12B69564A3A
:10C61800D5E703F03001202940F09D80216A0E887B
:10C62800002ED9D0802A20D103F00F03052B5ED825
:10C6380002212846228A18F034F90028C3D0A37DA5
:10C6480003F00F03042B16D1B7003A4600232846FF
:10C6580018F0D9F80028B6D0296879BB3A46284698
:10C6680007B0BDE8F043FFF711BEA28AB242DBD2A1
:10C678002B693E4AA3E7052B01D1F700E5E7002720
:10C688001422002101A81DF0CAF8D4F81C80214604
:10C6980001A8FFF71DFE28B92B69002B92D1059B35
:10C6A800334A8CE7E369628A01371344E361BBB21A
:10C6B8009E42ECD8049FC4F81C80C6E70027A37DDF
:10C6C800214603F00E03042B28460DD1FFF746FE42
:10C6D80000283FF478AFE369628A01371344E361C5
:10C6E800BBB29E42EBD877E7FFF7F2FDF0E74FF0D9
:10C6F8000008A37D03F0CE03862B27D1E7692146E6
:10C70800D7F800902846C4F81C90B9F1000F1AD148
:10C71800FFF73AFE08B9E76155E70122284601A963
:10C728008DF80490FFF7B2FDE76100283FF44BAFA6
:10C73800E369628A08F101081344E3611FFA88F388
:10C748009E42D6D848E7FFF791FEEDE721462846F6
:10C75800FFF78CFEE9E72146284607B0BDE8F0431D
:10C76800FFF784BE5BC1020072C1020081C10200F2
:10C7780099C1020030B595B00446684618F01EF815
:10C7880070B39DF8163003F00F030A2B21D1079BD5
:10C798001D681DB9684618F006F8F1E72B682946A8
:10C7A8005B6823B12046984758B1AD68F1E70AA8FD
:10C7B80018F006F840B923690A4A002B08BF134647
:10C7C8002361002015B030BD20460AA9FFF7E0FE1E
:10C7D800EAE769462046FFF7DBFE0028DAD1F0E7F2
:10C7E8000120EFE7A0C102002DE9F04F91B00093BE
:10C7F80002F004030193C2F3C203013304938307D5
:10C8080005460E46DDF86890029240F0FE81041D50
:10C8180030B1072909D86FF01B0011B0BDE8F08FBF
:10C8280001F00706341DC6F108064FF000084FF066
:10C83800040B009B4746591E4FF0FF324346DA4629
:10C84800CDF80C800DB1009820600498002800F302
:10C85800E1809C48DDF800C0844503D39A488445AC
:10C86800C0F0D880DDF808C0A4EB050E1CF0020F5C
:10C878004FEA9E0000F0E9804FF0000CD3E07A28E0
:10C8880064D84B280FD8472860D829282FD82528BE
:10C898005BD05BD820287FD0A0F12309D9F1000311
:10C8A80043EB090378E0A0F14C0EBEF12E0F4DD8F2
:10C8B800DFE80EF0724C4C4C4C4C4C4C4C4C4C4CF5
:10C8C8004E4C4C4C4C4C4C4C4C5C4C4E4E5C5C5C5A
:10C8D800724E6F4C724C184E184C4C817E4E4C4C1C
:10C8E8004E4C7E00002000234FF0040B3CE0A0F1EA
:10C8F8002A0E01205FFA8EFE00FA0EFE4FF6DA705D
:10C908001EEA000F48D11EF062502FD11EF001031D
:10C9180042D0013C5C44CBF1000E04EA0E04002D29
:10C928005ED0AAEB050EA6447645FFF474AF002846
:10C9380068D1BAF1040F43D1E14659F8040B2060DD
:10C94800CC464FF0040A043426E0013A002323E0E1
:10C9580011F8013C6C2B30D1002011F8023C6C2BF3
:10C968000346C1D14FF0080BDA46D2E70CF10709AC
:10C9780029F0070C073424F00704FCE802AB35B1B2
:10C9880005982044B0423FF646AFC4E900AB002307
:10C9980008344FF0080BDA4611F8010F002800F0B0
:10C9A800BC80002B7FF46BAF2528F5D10123013221
:10C9B8004FF0040BEFE7184695E700200346A8E779
:10C9C800BAF1080F40F09B800CF1070929F0070C19
:10C9D800FCE8029AC4E9009A4FF0080A0834DBE739
:10C9E80080B9BAF1040F02D10CF10409A8E7BAF131
:10C9F800080F40F084800CF1070929F0070909F1B4
:10CA0800080CE9E7E14604980138049059F8040B4A
:10CA1800009017E70298800748D54FF0010CA4EB67
:10CA2800050E4FEA9E00BEF5007F1DD3274940F250
:10CA38007B23274A274818F052F9274818F04FF95E
:10CA480040F27B21224818F043F90F2F0ED8002D11
:10CA580046D007F1400CEC440CF8200C0CF8102CD4
:10CA680003980130039020E00F2F0CD917494FF499
:10CA78002073174A174818F032F9184818F02FF998
:10CA88004FF42071DEE7BDB107F1400EEE44C0B2AD
:10CA98000EF8200C0EF8102CBCF1000FE0D060F05E
:10CAA8007F000EF8200C08F101080137C5F10800D5
:10CAB800CC46043405906FE7BCF1000F10D0013666
:10CAC800F3E700BF20A00200201203001D0F03009F
:10CAD800B2C10200A9B60200E0C1020001C2020010
:10CAE800019802360028E0D10098CDE90631059278
:10CAF800FCF732FCDDE90631059A0644D5E740F239
:10CB0800C523434A4349444818F0E9F85146434885
:10CB180018F0E5F840F2C52194E7631BB3F5806F80
:10CB28000CD33C4940F2D123394A3B4818F0D7F896
:10CB38003B4818F0D4F840F2D12183E71DB9A6F19B
:10CB48000804E01869E6019A9B0828602B709DF894
:10CB58000C30C2B1EB7085F80280B8F1000F05D037
:10CB6800002208A8C5F1010C97420ED14FF0000A27
:10CB7800C5F101030DF1200902930DF1300B574562
:10CB880012D1601B49E66B70E5E710F8013B190606
:10CB980008D504EB0C0E764503F07F03FFF43BAE9B
:10CBA80004F8013B0132DFE7B8F1000F03D099F92F
:10CBB8000020002A17DB019BD3B11AF80B2004F8D8
:10CBC800012B0022029B981820448642FFF423AED2
:10CBD80099F80000009904F8010B204603921CF014
:10CBE800E4FD039A14440AF1010A09F10109C6E7B0
:10CBF80099F8002055F822300093019B009845F8D9
:10CC08002230FCF7A9FB421CDCE76FF00D0004E6BC
:10CC1800B2C102001D0F0300A9B602001BC2020028
:10CC280030C20200014B1B68184700BFF883002080
:10CC3800014B1860704700BFF883002007B50B460A
:10CC4800002102460091034800F0B0FC03B05DF8F3
:10CC580004FB00BF2DCC000030B5002587B0CDE91E
:10CC680003010446009503A90548059500F09EFCBC
:10CC7800DDE904309842B8BF255407B030BD00BF85
:10CC88003D49020070B50C46002934D002680B1FDC
:10CC98009B1AD90823F0070313445D88E8070DD4CD
:10CCA800AF23154A1549164818F019F821461548B2
:10CCB80018F015F8AF21104818F00AF8104617F0C8
:10CCC80070FE084432F83060801B81420BD0B723D5
:10CCD800094A0D490A4818F002F821460B4817F08E
:10CCE800FEFFB721E7E725F001055D801046BDE8A6
:10CCF800704017F013BF70BD58C2020079C202001D
:10CD0800A9B602008AC20200C2C20200E8C202003A
:10CD18002DE9F8434B1E0B400F461446066810D009
:10CD2800C1F1000909EA01094A46591E042A28BF27
:10CD3800042219420CD11F46E4B900252846BDE853
:10CD4800F883042913D8BDE8F843114617F017BF34
:10CD58002C494FF4A2732C4A2C4817F0C0FF2C48DA
:10CD680017F0BDFF4FF4A271274817F0B1FF99469D
:10CD78000422E1E7B368B3EBD40FDED904F10B0169
:10CD88003944891A3046C90817F061FE80460028E0
:10CD9800D3D009F1040505EBC0057B1E35441D44BD
:10CDA8007F423D40A5EB09052C442B1F07349B1BF4
:10CDB80024F00704A41BB0EBD30F4FEAD3074FEAC4
:10CDC800E40408D201463A46304617F08DFE414643
:10CDD800304617F0EBFD3946304617F0E2FD38448F
:10CDE800844207D23046224617F07EFE214630465E
:10CDF80017F0DCFD06EBC706738843F00103738068
:10CE08009CE700BF24C3020058C20200A9B6020072
:10CE18003FC30200B2F5802FF8B504460ED33A4955
:10CE280040F2EB13394A3A4817F059FF394817F0DE
:10CE380056FF40F2EB11354817F04AFF042A0CD888
:10CE480035494FF4F973314A314817F048FF3348F0
:10CE580017F045FF4FF4F971EDE7043AC81D0A448D
:10CE680020F0070022F00702121A172A4FEAD2030D
:10CE78000CD82B4940F2FB13244A254817F02FFF02
:10CE8800264817F02CFF40F2FB11D4E7B3FA83F1E0
:10CE980020600024C1F12006C1F124018900073176
:10CEA800C9084D1C9D428360C4600CD91D494FF4CC
:10CEB8000373164A164817F012FF184817F00FFFA9
:10CEC8004FF40371B7E700F10C0505EB860645F84A
:10CED800044FB542FBD14D0045F0010545805D1A70
:10CEE80000EBC1066F0004807780861820F83110A7
:10CEF80000EBC303748085525A8842F001025A80BD
:10CF0800BDE8F84017F052BD5CC3020058C20200E9
:10CF1800A9B6020072C3020089C30200AAC30200B4
:10CF2800C3C30200ECC302002DE9F84F0446A38BEB
:10CF380008461907154612D4022803F0070164D1E0
:10CF4800204617F045FE88B10138042800F23481E4
:10CF5800DFE810F05B0032018100D10001010128F7
:10CF68000CBF43F0100143F02001A1831434204684
:10CF780012F0A4FC002840F09B819849C223984AEB
:10CF8800984817F0ACFE2146B0E003F00702501FA6
:10CF980001281ED80020062A2768C4E9000014D1F9
:10CFA8003A4603E0E08B0130E0831268002AF9D1A9
:10CFB80023F0070343F002022046A28317F008FE7D
:10CFC80090B342F02002A2832EE023F007039AB226
:10CFD800F2E7042A33D123F007039AB22046A2834A
:10CFE80017F0F6FD10B142F02002A283A38B03F0E4
:10CFF8000709894540F0EA80A18BCA0640F14F81B4
:10D0080021F01003A38301F00701D4F81880A38B43
:10D01800B8F1000FB9DA0022276823F00703C4E942
:10D02800002243F00103A383A38B03F0070989457A
:10D0380040F0CD80002FDFD00026B24644E06A4998
:10D0480040F21B13694A674817F049FE40F21B116A
:10D05800664817F03DFE49B165494FF4AB73634A22
:10D06800604817F03CFE4FF4AB71F1E723684BB909
:10D07800604940F257135D4A5A4817F030FE40F2B3
:10D088005711E5E723691E684EB95B494FF4AD7344
:10D09800564A544817F023FE4FF4AD71D8E70F46AF
:10D0A80088464FF00609A38B23F0070343F00603D5
:10D0B8009BB2A383A268002A40F08B80002F40F027
:10D0C8008B80002E98D0BA4643F0080304F1140B65
:10D0D8005846A38312F0F2FB002840F097803F499E
:10D0E800C2233F4A3F4817F0FAFD5946434817F014
:10D0F800F6FDC221AEE0022909D0414940F25D1394
:10D108003A4A384817F0EBFD40F25D11A0E7E78B8B
:10D118004FB13C494FF4AF73344A324817F0DFFD42
:10D128004FF4AF7194E723695E684EB9324940F213
:10D1380061132E4A2B4817F0D2FD40F2611187E7A0
:10D14800A38BB84623F0070343F004039BB24FF0C8
:10D158000409A383AEE7012909D02B494FF4B27320
:10D16800224A204817F0BBFD4FF4B27170E72368DC
:10D178004BB9204940F265131C4A1A4817F0AFFD15
:10D1880040F2651164E723699E684EB91A494FF465
:10D19800B473164A134817F0A2FD4FF4B47157E759
:10D1A8000027A38BB84623F0070343F005039BB27F
:10D1B8004FF00509A3837DE70B4940F26B130B4A37
:10D1C800084817F08CFD40F26B1141E70027002654
:10D1D80070E74FF0010A77E7924675E7E7C4020067
:10D1E800BAC40200A9B602001D0F030017C402004A
:10D1F80039C4020045C4020068C40200FEC402002B
:10D208007FC4020095C40200A4C4020085F31188FB
:10D21800BFF36F8FBAF1000F1ED1002F2FD116B1B7
:10D2280020462649B0474FF02003EFF3118583F3DA
:10D238001288BFF36F8F584612F032FB38BB942325
:10D248001F4A2049204817F04AFD59461F4817F041
:10D2580046FD94211A48FCE6A1680029DDD00D6836
:10D268000029DAD043464A462046D1F804A0D047E0
:10D278001DB12B6829461D46F2E72B46FAE73946C9
:10D2880043464A4620463F6817F0CEFCC5E7584655
:10D2980012F022FBA38B23F00803A383ACE68B06D2
:10D2A8007FF564AE21F02003A38301F0070147E670
:10D2B80085F31188BFF36F8FBDE8F88FD9D20000CE
:10D2C800BAC4020013C50200A9B6020028C50200AC
:10D2D800F8B504460D4600F114064FF02003EFF3AD
:10D2E800118783F31288BFF36F8F304612F0D8FA94
:10D2F80068B994230B4A0C490C4817F0F0FC3146E6
:10D308000B4817F0ECFC9421064817F0E1FC304676
:10D3180012F0E2FAA5613A462046BDE8F84001213C
:10D32800FFF702BEBAC4020013C50200A9B6020084
:10D3380028C502002DE9F04704460F4617F064FCA3
:10D34800051E67DB04F114094FF02003EFF3118A7F
:10D3580083F31288BFF36F8F484612F0A1FA804614
:10D3680060B99423374A3849384817F0B8FC494619
:10D37800374817F0B4FC9421324840E0484612F090
:10D38800ABFA4FF6FF72E38BA68B934206F00706C3
:10D3980043D0022E13D135460133E383484612F0B9
:10D3A8008DFA00283FD1C223264A2A49274817F078
:10D3B80096FC4946284817F092FCC221DCE7062E65
:10D3C80013D8DFE806F0092D1212090409006FF0DE
:10D3D80085054FF00008E1E700233B60636883B9E7
:10D3E800C4E9007786B13546F3E71C4917484FF47E
:10D3F800E4731B4A17F073FC4FF4E471184817F0F4
:10D4080067FC1F606760EDE7524602212046FFF780
:10D418008BFD35462846BDE8F0876FF00A05D8E74A
:10D428006FF00405D5E78AF31188BFF36F8FB8F161
:10D43800000FEFD0002332463946204617F0F4FBA0
:10D44800E8E700BFBAC4020013C50200A9B602008B
:10D4580028C50200E7C40200FEC40200A4C40200FA
:10D4680017C4020008B54268034602F00302022A04
:10D4780081600AD0032A4FF0000103D0012A0AD1A3
:10D48800596006E01868596008BD186800225A609B
:10D4980058B90020F8E7064906484523064A17F018
:10D4A8001EFC4521044817F013FC15F0FFFBF0E7BC
:10D4B8001D0F0300A9B6020040C5020010B5094CB3
:10D4C8000A44914200D110BD11F8013B58400309AC
:10D4D800E35C0001C0B243401809205C1B01DBB2C9
:10D4E8005840EEE763C50200F0B5024601680A2716
:10D4F8000020074E0B461C780131355D6D0701D4BD
:10D508001360F0BD07FB0043A3F13000F2E700BF52
:10D518007F0F03002DE9F84F15469A46D378224A23
:10D528006F2B12F803B080460F460BF0030B29D07F
:10D5380024D8582B0CBF10260A26DDF8289032462E
:10D54800002340463946FBF7CFFC092AD4B21ED83F
:10D558003034B045E4B277F1000709F8014D01D342
:10D56800D14511D82B789B0605D5082E15D1AB7857
:10D5780043F00803AB704846BDE8F88F03F0F703A3
:10D58800702BD7E70826D8E780460F46D7E7BBF1C8
:10D59800010F0CBF37345734DBE7102EEBD1AB78D3
:10D5A80043F01003E6E700BF7F0F03002DE9F04FBB
:10D5B800824617461C46002597B00391387808B96B
:10D5C800284649E37B1C2528049306D00399D047B5
:10D5D8000028C0F241830135F0E11822002110A88B
:10D5E8001CF01DF97B78252B00F0A38000239846BA
:10D5F8009E469C461846791C0E4611F8012B2B2A8C
:10D6080000F0C68000F2BD80202A00F0C480232AE2
:10D6180000F0C4802BB19DF8483043F040038DF8EA
:10D628004830B8F1000F05D09DF8483043F020038A
:10D638008DF84830BEF1000F05D09DF8483043F012
:10D6480010038DF84830BCF1000F05D09DF8483024
:10D6580043F008038DF8483028B19DF8483043F06E
:10D6680004038DF848309DF8483003F044014429FC
:10D6780003D16FF386138DF848309DF848302A2A75
:10D6880043F0800309968DF8483040F08C809DF86F
:10D69800493043F001038DF84930731C1A782E2A5B
:10D6A8000CBF012100219DF8492061F341028DF84A
:10D6B80049200CD15A1C09925A782A2A40F08380B2
:10D6C8009DF84920023342F004028DF849201A7867
:10D6D8006C2A00F0A48000F28680682A00F08C8012
:10D6E8006A2A00F0A5804C2A00F0AA801A4612F88F
:10D6F800013B782B04928DF84B309DF8492000F2BD
:10D7080017816D2B00F2A980692B00F21181572B2C
:10D7180000F2BE80412B03D0453B022B00F208816A
:10D7280004229DF84A3062F302038DF84A3001233F
:10D73800CAE0BA1C04928DF84B309DF84930DA07DC
:10D7480040F1FD8054F8049BB9F1000F07DA9DF809
:10D758004820C9F1000942F004028DF848205E070C
:10D7680040F1F68054F804BBBBF1000F80F2F5805D
:10D778009DF849306FF341038DF849304FF0FF3B76
:10D78800EBE02D2A0DD0302A7FF444AF012333E794
:10D798004FF0010C30E74FF0010E2DE74FF0010874
:10D7A8002AE7012028E709A8FFF79EFE099BB34254
:10D7B8003FF474AF9DF848201390C00F60F3410206
:10D7C8008DF848206AE709A8FFF78EFE9DF84830D3
:10D7D8001490C3F3400242EAD07262F341038DF819
:10D7E8004830099B73E7742A26D07A2A7FF47EAFE3
:10D7F80006219DF849200CE05A78682A9DF84920AE
:10D8080006D1012161F3C6028DF8492002336DE784
:10D81800022161F3C6028DF84920013366E75A7880
:10D828006C2A9DF8492001D10421EBE70321F0E798
:10D8380005219DF84920ECE707219DF84920E8E7F4
:10D84800BDF8482022F4F04222F0020242F480425D
:10D8580042F00202ADF84820DFE76E3BD9B201235F
:10D868008B4040F282410B4238D113F0240F52D141
:10D87800D8075DD503219DF84A3061F302038DF87E
:10D888004A3002F07803A3F140014B424B411BE0C0
:10D898000120A3F15801C9B200FA01F111F4624F55
:10D8A8007FF43EAF40F6010631421DD111F4043F2A
:10D8B8003ED09DF84A3060F3020302F07802402A15
:10D8C8008DF84A3034D000239DF84820C2F3400137
:10D8D8000B4363F341028DF848202EE702219DF89F
:10D8E8004A3061F30203E8E702209DF84A1002F08B
:10D8F800780260F30201402A8DF84A1002BF9DF8B1
:10D90800481041F001018DF84810632BDBD1131E3C
:10D9180018BF0123D8E703219DF84A3012F0780F89
:10D9280061F302038DF84A3014BF01230023CBE7CB
:10D938009DF8483043F001038DF84830C3E79DF95E
:10D948004820002AACBF4FF0FF39DDF84C9006E7BD
:10D9580098077FF513AFDDF850B00023CDE91333F6
:10D968009DF84A309DF8491003F00703012BC1F3D5
:10D97800C30133D1CB1E042B04D8DFE803F02146C2
:10D9880046212100236801294FEAE372CDE91032CC
:10D998001CD19DF94030DA17CDE9103204349DF8D6
:10D9A800483013F0030650D03A465046049B03997A
:10D9B80017F077F90028C0F24F810544049FFDE570
:10D9C80054F8043BDA17CDE91032E8E70229E5D12B
:10D9D8001AB243F3C033CDE91023DFE7022B24D179
:10D9E800CB1E042B04D8DFE803F018101018180019
:10D9F80001294FF0000254F8043B14D00229CDE964
:10DA08001032CCD19BB21093C9E7073424F0070435
:10DA1800F4E80223CDE91023C1E754F8043B10933E
:10DA280000231193BBE7DBB2CDE7042B08D1073401
:10DA380024F00704D4E900230834CDE91023AEE725
:10DA4800032BACD154F8043BDDE79DF84B00782854
:10DA5800B4D862281CD825283FF4B8AD5828ADD1D1
:10DA6800DDE910010DF13E03009312AA0AABFFF79E
:10DA780051FDBBF1000F074680F29780002F9DD023
:10DA88000DF13E08A8EB0700002E4ED001304CE007
:10DA98006338152892D801A252F820F023DB000041
:10DAA80089DB0000C5D90000C5D90000C5D9000030
:10DAB800C5D9000089DB0000C5D90000C5D9000020
:10DAC800C5D90000C5D9000011DC0000ADDB00009D
