:10800000084203201D14010017840200F11301002F
:10801000F1130100F1130100F1130100F11301004C
:10802000000000000000000000000000990C0100AA
:10803000F113010000000000390C0100F1130100F0
:10804000210D0100210D0100210D0100210D010074
:10805000210D0100210D0100210D0100210D010064
:10806000210D0100210D0100210D0100210D010054
:10807000210D0100210D0100210D0100210D010044
:10808000210D0100210D0100210D0100210D010034
:10809000210D0100210D0100210D0100210D010024
:1080A000210D0100210D0100210D0100210D010014
:1080B000210D0100210D0100210D0100210D010004
:1080C000210D0100210D0100210D0100210D0100F4
:1080D000210D0100210D0100210D0100210D0100E4
:1080E000210D0100210D0100210D0100210D0100D4
:1080F000210D0100210D0100210D0100210D0100C4
:10810000210D0100210D0100210D0100210D0100B3
:10811000210D0100210D0100210D0100210D0100A3
:10812000210D0100210D0100210D0100210D010093
:10813000210D0100210D0100210D0100210D010083
:10814000210D0100210D0100210D0100210D010073
:04815000210D0100FC
:04815400FFFFFFFF2B
:1081580081F0004102E000BF83F0004330B54FEAF0
:1081680041044FEA430594EA050F08BF90EA020F5D
:108178001FBF54EA000C55EA020C7FEA645C7FEAF0
:10818800655C00F0E2804FEA5454D4EB5555B8BF13
:108198006D420CDD2C4480EA020281EA030382EA84
:1081A800000083EA010180EA020281EA0303362D16
:1081B80088BF30BD11F0004F4FEA01314FF4801CE9
:1081C8004CEA113102D0404261EB410113F0004FFB
:1081D8004FEA03334CEA133302D0524263EB4303B2
:1081E80094EA050F00F0A780A4F10104D5F1200E50
:1081F8000DDB02FA0EFC22FA05F2801841F10001AB
:1082080003FA0EF2801843FA05F359410EE0A5F17E
:1082180020050EF1200E012A03FA0EFC28BF4CF0AF
:10822800020C43FA05F3C01851EBE37101F0004565
:1082380007D54FF0000EDCF1000C7EEB00006EEB72
:108248000101B1F5801F1BD3B1F5001F0CD34908FC
:108258005FEA30004FEA3C0C04F101044FEA445253
:1082680012F5800F80F09A80BCF1004F08BF5FEADA
:10827800500C50F1000041EB045141EA050130BDBA
:108288005FEA4C0C404141EB0101013C28BFB1F5CC
:10829800801FE9D291F0000F04BF01460020B1FA17
:1082A80081F308BF2033A3F10B03B3F120020CDAEA
:1082B8000C3208DD02F1140CC2F10C0201FA0CF0C8
:1082C80021FA02F10CE002F11402D8BFC2F1200C2D
:1082D80001FA02F120FA0CFCDCBF41EA0C019040E3
:1082E800E41AA2BF01EB0451294330BD6FEA04042C
:1082F8001F3C1CDA0C340EDC04F11404C4F1200217
:1083080020FA04F001FA02F340EA030021FA04F328
:1083180045EA030130BDC4F10C04C4F1200220FA7F
:1083280002F001FA04F340EA0300294630BD21FABD
:1083380004F0294630BD94F0000F83F4801306BF83
:1083480081F480110134013D4EE77FEA645C18BF77
:108358007FEA655C29D094EA050F08BF90EA020F0E
:1083680005D054EA000C04BF1946104630BD91EA06
:10837800030F1EBF0021002030BD5FEA545C05D109
:108388004000494128BF41F0004130BD14F5800448
:108398003CBF01F5801130BD01F0004545F0FE41BC
:1083A80041F470014FF0000030BD7FEA645C1ABFF1
:1083B800194610467FEA655C1CBF0B46024650EA28
:1083C800013406BF52EA033591EA030F41F4002154
:1083D80030BD00BF90F0000F04BF0021704730B5DA
:1083E8004FF4806404F132044FF000054FF00001AF
:1083F80050E700BF90F0000F04BF0021704730B570
:108408004FF4806404F1320410F0004548BF404244
:108418004FF000013EE700BF42004FEAE2014FEA99
:1084280031014FEA02701FBF12F07F4393F07F4F74
:1084380081F06051704732F07F4208BF704793F077
:108448007F4F04BF41F40021704730B54FF460748A
:1084580001F0004521F000411CE700BF50EA01028D
:1084680008BF704730B54FF000050AE050EA010236
:1084780008BF704730B511F0004502D5404261EBA6
:1084880041014FF4806404F132045FEA915C3FF4E7
:10849800D8AE4FF003025FEADC0C18BF03325FEA84
:1084A800DC0C18BF033202EBDC02C2F1200300FA35
:1084B80003FC20FA02F001FA03FE40EA0E0021FA5A
:1084C80002F11444BDE600BF70B54FF0FF0C4CF448
:1084D800E06C1CEA11541DBF1CEA135594EA0C0FFA
:1084E80095EA0C0F00F0DEF82C4481EA030621EA35
:1084F8004C5123EA4C5350EA013518BF52EA033570
:1085080041F4801143F4801338D0A0FB02CE4FF021
:108518000005E1FB02E506F00042E0FB03E54FF051
:108528000006E1FB03569CF0000F18BF4EF0010E49
:10853800A4F1FF04B6F5007F64F5407404D25FEA45
:108548004E0E6D4146EB060642EAC62141EA5551F8
:108558004FEAC52040EA5E504FEACE2EB4F1FD0C3A
:1085680088BFBCF5E06F1ED8BEF1004F08BF5FEAB8
:10857800500E50F1000041EB045170BD06F000466A
:1085880046EA010140EA020081EA0301B4EB5C0417
:10859800C2BFD4EB0C0541EA045170BD41F480110F
:1085A8004FF0000E013C00F3AB8014F1360FDEBF34
:1085B800002001F0004170BDC4F10004203C35DA10
:1085C8000C341BDC04F11404C4F1200500FA05F393
:1085D80020FA04F001FA05F240EA020001F0004234
:1085E80021F0004110EBD37021FA04F642EB0601AA
:1085F8005EEA430E08BF20EAD37070BDC4F10C04D4
:10860800C4F1200500FA04F320FA05F001FA04F297
:1086180040EA020001F0004110EBD37041F1000183
:108628005EEA430E08BF20EAD37070BDC4F120058E
:1086380000FA05F24EEA020E20FA04F301FA05F2F6
:1086480043EA020321FA04F001F0004121FA04F29E
:1086580020EA020000EBD3705EEA430E08BF20EA6E
:10866800D37070BD94F0000F0FD101F000464000A8
:1086780041EB010111F4801F08BF013CF7D041EA2A
:10868800060195F0000F18BF704703F0004652002E
:1086980043EB030313F4801F08BF013DF7D043EAFF
:1086A8000603704794EA0C0F0CEA135518BF95EAB5
:1086B8000C0F0CD050EA410618BF52EA4306D1D13C
:1086C80081EA030101F000414FF0000070BD50EA5B
:1086D800410606BF1046194652EA430619D094EAE5
:1086E8000C0F02D150EA013613D195EA0C0F05D1CF
:1086F80052EA03361CBF104619460AD181EA030123
:1087080001F0004141F0FE4141F470014FF00000DA
:1087180070BD41F0FE4141F4780170BD70B54FF075
:10872800FF0C4CF4E06C1CEA11541DBF1CEA1355F5
:1087380094EA0C0F95EA0C0F00F0A7F8A4EB0504D7
:1087480081EA030E52EA03354FEA013100F08880CE
:108758004FEA03334FF0805545EA131343EA126397
:108768004FEA022245EA111545EA10654FEA00264C
:108778000EF000419D4208BF964244F1FD0404F505
:10878800407402D25B084FEA3202B61A65EB030561
:108798005B084FEA32024FF480104FF4002CB6EB1E
:1087A800020E75EB030E22BFB61A754640EA0C009E
:1087B8005B084FEA3202B6EB020E75EB030E22BFDE
:1087C800B61A754640EA5C005B084FEA3202B6EB1F
:1087D800020E75EB030E22BFB61A754640EA9C00DE
:1087E8005B084FEA3202B6EB020E75EB030E22BFAE
:1087F800B61A754640EADC0055EA060E18D04FEA6C
:10880800051545EA16754FEA06164FEAC30343EA0B
:1088180052734FEAC2025FEA1C1CC0D111F4801FD8
:108828000BD141EA00014FF000004FF0004CB6E7D1
:1088380011F4801F04BF01430020B4F1FD0C88BF70
:10884800BCF5E06F3FF6AFAEB5EB030C04BFB6EB7B
:10885800020C5FEA500C50F1000041EB045170BD6E
:108868000EF0004E4EEA113114EB5C04C2BFD4EB9B
:108878000C0541EA045170BD41F480114FF0000E1F
:10888800013C90E645EA060E8DE60CEA135594EA9B
:108898000C0F08BF95EA0C0F3FF43BAF94EA0C0F9E
:1088A8000AD150EA01347FF434AF95EA0C0F7FF413
:1088B80025AF104619462CE795EA0C0F06D152EA67
:1088C80003353FF4FDAE1046194622E750EA41064B
:1088D80018BF52EA43067FF4C5AE50EA41047FF45C
:1088E8000DAF52EA43057FF4EBAE12E74FEA4102BF
:1088F800B2F1E04324BFB3F5001CDCF1FE5C0DD9F6
:1089080001F0004C4FEAC0024CEA5070B2F1004F3F
:1089180040EB830008BF20F00100704711F0804F42
:1089280021D113F13872BCBF01F00040704741F407
:1089380080114FEA5252C2F11802C2F1200C10FA0B
:108948000CF320FA02F018BF40F001004FEAC123EF
:108958004FEAD32303FA0CFC40EA0C0023FA02F393
:108968004FEA4303CCE77FEA625307D150EA013369
:108978001EBF4FF0FE4040F44000704701F0004039
:1089880040F0FE4040F40000704700BF80F0004017
:1089980002E000BF81F0004142001FBF5FEA4103CF
:1089A80092EA030F7FEA226C7FEA236C6AD04FEACF
:1089B8001262D2EB1363C1BFD21841404840414014
:1089C800B8BF5B42192B88BF704710F0004F40F4C6
:1089D800000020F07F4018BF404211F0004F41F4E2
:1089E800000121F07F4118BF494292EA030F3FD0AE
:1089F800A2F1010241FA03FC10EB0C00C3F12003C1
:108A080001FA03F100F0004302D5494260EB40004F
:108A1800B0F5000F13D3B0F1807F06D340084FEABA
:108A2800310102F10102FE2A51D2B1F1004F40EBAF
:108A3800C25008BF20F0010040EA03007047490017
:108A480040EB0000013A28BFB0F5000FEDD2B0FAB4
:108A580080FCACF1080CB2EB0C0200FA0CF0AABFD7
:108A680000EBC25052421843BCBFD0401843704775
:108A780092F0000F81F4000106BF80F4000001327B
:108A8800013BB5E74FEA41037FEA226C18BF7FEA52
:108A9800236C21D092EA030F04D092F0000F08BF94
:108AA8000846704790EA010F1CBF0020704712F07B
:108AB8007F4F04D1400028BF40F00040704712F1BA
:108AC80000723CBF00F50000704700F0004343F01F
:108AD800FE4040F4000070477FEA226216BF084655
:108AE8007FEA23630146420206BF5FEA412390EA18
:108AF800010F40F4800070474FF0000304E000BF0E
:108B080010F0004348BF40425FEA000C08BF7047BE
:108B180043F0964301464FF000001CE050EA010282
:108B280008BF70474FF000030AE000BF50EA010297
:108B380008BF704711F0004302D5404261EB410184
:108B48005FEA010C02BF84460146002043F0B643A9
:108B580008BFA3F18053A3F50003BCFA8CF2083ACE
:108B6800A3EBC25310DB01FA02FC634400FA02FCD7
:108B7800C2F12002BCF1004F20FA02F243EB0200DE
:108B880008BF20F00100704702F1200201FA02FC40
:108B9800C2F1200250EA4C0021FA02F243EB020033
:108BA80008BF20EADC7070474FF0FF0C1CEAD05277
:108BB8001EBF1CEAD15392EA0C0F93EA0C0F6FD038
:108BC8001A4480EA010C400218BF5FEA41211ED016
:108BD8004FF0006343EA501043EA5111A0FB013102
:108BE8000CF00040B1F5000F3EBF490041EAD371D7
:108BF8005B0040EA010062F17F02FD2A1DD8B3F153
:108C0800004F40EBC25008BF20F00100704790F0C1
:108C1800000F0CF0004C08BF49024CEA502040EA13
:108C280051207F3AC2BFD2F1FF0340EAC2507047D9
:108C380040F400004FF00003013A5DDC12F1190F17
:108C4800DCBF00F000407047C2F10002410021FA89
:108C580002F1C2F1200200FA02FC5FEA310040F1A1
:108C6800000053EA4C0308BF20EADC70704792F01A
:108C7800000F00F0004C02BF400010F4000F013A52
:108C8800F9D040EA0C0093F0000F01F0004C02BF4D
:108C9800490011F4000F013BF9D041EA0C018FE7BC
:108CA8000CEAD15392EA0C0F18BF93EA0C0F0AD0C2
:108CB80030F0004C18BF31F0004CD8D180EA0100E8
:108CC80000F00040704790F0000F17BF90F0004F81
:108CD800084691F0000F91F0004F14D092EA0C0F63
:108CE80001D142020FD193EA0C0F03D14B0218BFF6
:108CF800084608D180EA010000F0004040F0FE403C
:108D080040F40000704740F0FE4040F440007047D7
:108D18004FF0FF0C1CEAD0521EBF1CEAD15392EA56
:108D28000C0F93EA0C0F69D0A2EB030280EA010C46
:108D380049024FEA402037D04FF0805343EA1111DF
:108D480043EA10130CF000408B4238BF5B0042F13D
:108D58007D024FF4000C8B4224BF5B1A40EA0C00E2
:108D6800B3EB510F24BFA3EB510340EA5C00B3EB14
:108D7800910F24BFA3EB910340EA9C00B3EBD10F02
:108D880024BFA3EBD10340EADC001B0118BF5FEA54
:108D98001C1CE0D1FD2A3FF650AF8B4240EBC2507D
:108DA80008BF20F0010070470CF0004C4CEA50203E
:108DB8007F32C2BFD2F1FF0340EAC250704740F48D
:108DC80000004FF00003013A37E792F0000F00F07F
:108DD800004C02BF400010F4000F013AF9D040EAFD
:108DE8000C0093F0000F01F0004C02BF490011F491
:108DF800000F013BF9D041EA0C0195E70CEAD15389
:108E080092EA0C0F08D142027FF47DAF93EA0C0F6F
:108E18007FF470AF084676E793EA0C0F04D14B0253
:108E28003FF44CAF08466EE730F0004C18BF31F005
:108E3800004CCAD130F000427FF45CAF31F00043FF
:108E48007FF43CAF5FE700BF7BB972B90029BEBFB2
:108E580000204FF0004106E008BF00281CBF6FF05B
:108E680000414FF0FF3000F057B8ADF1080C6DE944
:108E780004CE002909DB002B1ADB00F015F9DDF818
:108E880004E0DDE9022304B07047404261EB410190
:108E9800002B1BDB00F008F9DDF804E0DDE9022314
:108EA80004B0404261EB4101524263EB4303704717
:108EB800524263EB430300F0F7F8DDF804E0DDE924
:108EC800022304B0404261EB41017047524263EB18
:108ED800430300F0E9F8DDF804E0DDE9022304B01B
:108EE800524263EB4303704753B94AB9002908BF9C
:108EF80000281CBF4FF0FF314FF0FF3000F00CB8D6
:108F0800ADF1080C6DE904CE00F0CEF8DDF804E010
:108F1800DDE9022304B07047704700BF4FF0FF3C03
:108F280006E000BF4FF0010C02E000BF4FF0010C5B
:108F38004DF804CD4FEA410C7FEA6C5C4FEA430CD4
:108F480018BF7FEA6C5C1BD001B050EA410C0CBF23
:108F580052EA430C91EA030F02BF90EA020F002085
:108F6800704710F1000F91EA030F58BF994208BFEC
:108F780090422CBFD8176FEAE37040F001007047A9
:108F88004FEA410C7FEA6C5C02D150EA013C07D100
:108F98004FEA430C7FEA6C5CD6D152EA033CD3D04B
:108FA8005DF8040B704700BF8446104662468C4645
:108FB8001946634600E000BF01B5FFF7B7FF002878
:108FC80048BF10F1000F01BD4DF808EDFFF7F4FFA1
:108FD8000CBF012000205DF808FB00BF4DF808ED2C
:108FE800FFF7EAFF34BF012000205DF808FB00BF4F
:108FF8004DF808EDFFF7E0FF94BF012000205DF871
:1090080008FB00BF4DF808EDFFF7CEFF94BF012025
:1090180000205DF808FB00BF4DF808EDFFF7C4FF1E
:1090280034BF012000205DF808FB00BF4FEA410C67
:109038007FEA6C5C02D150EA013C0AD14FEA430C4A
:109048007FEA6C5C02D152EA033C02D14FF0000087
:1090580070474FF0010070474FEA410212F50012C5
:1090680015D211D56FF47873B3EB625212D94FEA67
:10907800C12343F0004343EA505311F0004F23FA51
:1090880002F018BF404270474FF00000704750EAA6
:10909800013005D111F0004008BF6FF00040704763
:1090A8004FF00000704700BF2DE9F04786468C4618
:1090B8000846089E154674461946002B40F0C180A4
:1090C8008542B2FA82F245D94AB1C2F1200300FAC8
:1090D80002FC954094402EFA03F343EA0C0C4FEA45
:1090E800154EA8B2230CBCFBFEF80EFB18CC08FBEF
:1090F80000F943EA0C43994528D9EB1808F1FF37E2
:1091080004D2994502D9A8F102072B44A3EB09031D
:10911800A4B2B3FBFEFC0EFB1C330CFB00F044EACC
:109128000344A04214D92C190CF1FF3304D2A042F5
:1091380002D9ACF102032C44241A43EA07401EB1B9
:10914800D440002334607360BDE8F0874746DDE70C
:109158006346F1E792BB431B01214FEA154EAFB2BC
:10916800200CB3FBFEFC0EFB1C330CFB07F840EA9B
:109178000343984561D9EB180CF1FF3004D29845A8
:1091880002D9ACF102002B44A3EB0803A4B2B3FB51
:10919800FEFC0EFB1C330CFB07F744EA0344A74212
:1091A8004DD92C190CF1FF3304D2A74202D9ACF1E6
:1091B80002032C44E41B43EA0040C0E7C2F1200349
:1091C8009540944020FA03F12EFA03F34FEA154E26
:1091D8009040AFB20343B1FBFEFC0EFB1C10190C10
:1091E8000CFB07F841EA0041884522D969180CF1BF
:1091F800FF3004D2884502D9ACF102002944A1EB22
:1092080008019BB2B1FBFEFC0EFB1C110CFB07F71F
:1092180043EA01439F420ED9EB180CF1FF3104D207
:109228009F4202D9ACF102012B44DB1B41EA004109
:1092380093E76046E3E76146F7E76046A4E76346DD
:10924800B8E7834206D916B9002108467CE7C6E983
:1092580000E0F9E7B3FA83F78FB9834201D3724587
:1092680008D8BEEB020460EB030301209C461EB93C
:10927800002169E73846FAE7C6E9004CF8E7C7F184
:10928800200CBB400EFA07F522FA0CF42EFA0CF16A
:10929800BA401C4320FA0CF3B8404FEA1449014382
:1092A8001FFA84FEB3FBF9F809FB18300B0C08FB16
:1092B8000EFA43EA00439A4540D9E31808F1FF3013
:1092C80004D29A4502D9A8F102002344A3EB0A0369
:1092D80089B2B3FBF9F809FB183308FB0EFE41EA23
:1092E80003418E452CD9611808F1FF3304D28E450D
:1092F80002D9A8F10203214443EA0040A1EB0E0180
:10930800A0FB02984145CE46434602D306D14D45BF
:1093180004D20138B9EB020E68EB0403002EA7D083
:10932800B5EB0E0261EB030101FA0CFC22FA07F31C
:10933800F9404CEA0303C6E9003199E74046C5E71E
:109348004346D9E710F8012B11F8013B012A28BF41
:109358009A42F7D0D01A7047034613F8012B002A17
:10936800FBD1181A01387047F8B50C46FFF742F8D8
:1093780025A3D3E90023FFF7A7F8FFF7B7FA0546B7
:10938800631EDBB2022B96BF274A002052F8230047
:109398002946FFF709FCFFF73FF8064628460F461F
:1093A800FFF73AF802460B4600202049FEF7D4FEA4
:1093B80002460B4630463946FFF7B0F9FFF796FAF2
:1093C8001B49FFF7A5FCFFF727F81BF0A3FC10A328
:1093D800D3E90023FFF7A2F90FA3D3E90023FEF78F
:1093E800BDFE02460B4600201249FFF797F9FFF72A
:1093F8007DFAFFF711F80AA3D3E90023FEF7ACFEC4
:10940800FFF774FAF8BD00BF02A0663AB3CD2C3F4F
:10941800000000000002AF4083DBB5DCE1796B3F60
:10942800666666666612714010D102000000084048
:1094380000401C460000F03FF0B5654D89B0D5F8F6
:109448006031996811F001011AD140F6034001AA70
:1094580009F06EFA0446002840F0B6800198C36807
:109468001B785BB905F1CC03D3E8AF2F02F00902F2
:10947800D3E8EF1FC3E8E42F002CF9D111F0B8FDB1
:10948800002141F2030001AA09F052FA044600281B
:1094980040F09A80019B4F4EDA68D2F80100D2F86A
:1094A800051003C6184611F0A3FD214641F201003C
:1094B80001AA09F03DFA0446002840F08580019889
:1094C800C3685A7885F868205A88A5F86A201A79F6
:1094D80085F86920B3F80720A5F86C20B3F80530A3
:1094E800A5F86E3011F084FD214641F2020001AA70
:1094F80009F01EFA0446002866D1019FFA68531C39
:109508004132344618685968083303C493422646E2
:10951800F7D1384611F06CFD0BF05AF804460028D4
:1095280052D195F882309A061AD42B4B4FF48451B5
:1095380007930223294806AA06931FF0AEF895F868
:1095480074305B064ED4264B4FF4825107930223A6
:10955800224806AA06936FF012041FF09EF833E023
:10956800072140F6334009F095F90646002800F037
:10957800418107210C3011F05DFE4523037006235D
:10958800C0F802408471447004712246C3703146A9
:1095980040F6334009F0CCF90446A8B9012140F659
:1095A800314009F077F90646002800F023810121AF
:1095B8000C3020F0D1FE2246314640F6314009F009
:1095C800B7F904460028BAD0204609B0F0BD00BF5C
:1095D8000080002070800020DB040300E8CC02003B
:1095E80009050300002142F2030002AA09F0A0F9CC
:1095F80004460028E8D1029BBF4EDA68D2F8010081
:10960800D2F8051003C6184611F0F2FC214642F2C2
:10961800020002AA09F08CF904460028D4D1029C61
:10962800E368B3F8012091B2A5F8FC2029B1DA78F3
:10963800114606F1280022F00BFA204611F0D8FC5A
:1096480095F8746016F0200618D1022140F66D4096
:1096580009F020F90446002800F0CC8002210C30E3
:1096680011F0E8FD0123214603704670324640F6AA
:109678006D4009F05DF904460028A5D195F89430AD
:109688001F0712D5002142F21C0002AA09F050F966
:109698000446002898D10298C368D3F80120D3F86B
:1096A8000530C5E9362311F0A3FC95F8D0309E06A5
:1096B80024D501A90DF1020009F0B6F904460028E5
:1096C80082D1042142F2240009F0E4F80646002879
:1096D80000F0908004210C3011F0ACFDBDF8023090
:1096E80022460380BDF804303146438042F224000C
:1096F80009F01EF9044600287FF466AF95F8D030CB
:109708005C0610D5002142F22A0002AA09F010F9DD
:10971800044600287FF458AF0298C3685B7885F840
:10972800183111F065FC082142F2010009F0B2F885
:10973800044600285ED008210C3011F07BFD95F816
:10974800D01040F2022311F0400F08BF0323024655
:1097580088074CBF43F02C0043F00C0095F8D1303B
:109768008F0648BF40F0400013F0090F95F89A3073
:1097780018BF40F4006003F00603CE0748BF40F06E
:109788001000062B08BF40F4C07000211EF090FFA7
:109798002146002242F2010009F0CAF804460028D6
:1097A8007FF412AF95F87430B5F8FC10980624D4FD
:1097B800C9B941F2050002AA09F0BAF8044600281E
:1097C8007FF402AFB5F8FC30029C4BB9E368B3F8FC
:1097D8000120A5F8FC209A884848114622F038F95B
:1097E800204611F005FC082140F6014009F052F826
:1097F800044688B96FF06804E6E60029F3D1404BC7
:109808004FF48251079302233E4806AA06936FF04D
:1098180004041EF042FFD7E608210C3011F00AFDBF
:1098280095F8D0300246D90731D44FF00051364868
:109838001EF03EFF2146002240F6014009F078F86C
:10984800044600287FF4C0AE014601AA4FF6014045
:1098580009F06EF80446F0B12C4B079302234FF43D
:109868008451284806AA06931EF017FF1FF0B4F883
:10987800044600287FF4A8AE0CF046F804460028F9
:109888007FF4A2AE09B0BDE8F04009F06DBE18A1A2
:10989800D1E90001CCE7019811F0AAFB21464FF667
:1098A800024001AA09F044F8044608B1184BD4E76D
:1098B8000198C368B3F80130A5F8B93011F098FBE6
:1098C80095F8B9305B07D1D521464FF6034001AA78
:1098D80009F02EF808B10F4BBFE70198C3685B7811
:1098E80085F8B83011F084FBC0E700BFAFF3008003
:1098F8009088000200800020D08000200081002095
:109908002D050300E8CC0200108800025005030072
:10991800740503009D050300B1F5801F02460B4640
:109928002DE9F04F0D4687B024DA21F000440443B6
:1099380008D1002200230020C949FEF7EFFE07B036
:10994800BDE8F08F002904DAFEF706FC00220023A8
:10995800F3E70022C34BFEF7B7FD0B460D46024660
:109968006FF03501C048854206DD10461946FEF7FE
:10997800F5FBE4E70021F5E72C15C5F313051046C0
:109988000022A4F2FF340C4405F5152101F6647198
:1099980001F4801686F07F5104EB165481F44011CF
:1099A80041EA05031946B14BFEF7D6FBAB1C8246CC
:1099B8008B46C3F313030022022B53DC0023FFF76B
:1099C80003FBD0B1002C00F020812046FEF712FDE9
:1099D80006460F468EA3D3E90023FEF775FD04461D
:1099E8000D46304639468CA3D3E90023FEF76CFDBB
:1099F80002460B4620462946B9E789A3D3E9002346
:109A080050465946FEF760FD02460B46002098492D
:109A1800FEF7A2FB06460F4652465B46504659469D
:109A2800FEF752FD02460B4630463946FEF74CFD1E
:109A380006460F4614B932463B46A0E02046FEF7DC
:109A4800D9FC8046894672A3D3E90023FEF73CFD82
:109A580004460D46404649466FA3D3E90023FEF766
:109A680033FDA5E04FF08043A5F5C226FEF776FB4F
:109A780002460B4650465946C5F5D725FEF74EFE19
:109A8800A6F27A465135CDE9000120463543FEF766
:109A9800B1FCDDE90023CDE9020110461946FEF7C5
:109AA80013FD02460B46CDE90423FEF70DFD804663
:109AB80089465DA3D3E90023FEF706FD5CA3D3E93D
:109AC8000023FEF74BFB42464B46FEF7FDFC5AA32C
:109AD800D3E90023FEF742FB42464B46FEF7F4FC6F
:109AE80057A3D3E90023FEF739FBDDE90423FEF78A
:109AF800EBFC55A3D3E90023CDE9040140464946D0
:109B0800FEF7E2FC52A3D3E90023FEF727FB424607
:109B18004B46FEF7D9FC50A3D3E90023FEF71EFB02
:109B280042464B46FEF7D0FC02460B46DDE90401EF
:109B3800FEF714FB002D8046894648DD00224C4B79
:109B480050465946FEF7C0FC52465B46FEF7BCFC41
:109B580002460B4606460F4640464946FEF7FEFAC1
:109B6800DDE90023FEF7B0FC8046894664B9024669
:109B78000B4630463946FEF7EFFA02460B4650468A
:109B88005946FEF7E9FADAE621A3D3E90023DDE92D
:109B98000201FEF799FC04460D461FA3D3E90023F2
:109BA800DDE90201FEF790FC42464B46FEF7D6FA85
:109BB80002460B4630463946FEF7CEFA52465B4619
:109BC800FEF7CAFA02460B4620462946D9E702465E
:109BD8000B4650465946FEF7BFFADDE90023FEF76B
:109BE80073FC06460F46002C3FF425AF08A3D3E9C3
:109BF8000023DDE90201FEF767FC04460D4606A3D3
:109C0800D3E90023DDE9020129E70020002196E6D7
:109C18000000E0FE422EE63F763C7935EF39EA3D1A
:109C2800555555555555D53F44523EDF12F1C23F63
:109C3800DE03CB966446C73F599322942449D23F0A
:109C4800935555555555E53F9FC678D0099AC33F5A
:109C5800AF788E1DC571CC3F04FA97999999D93F71
:109C6800000050C300005043FFFFEF7F0000F03FAB
:109C78000000E03F000000002DE9F04F144697B0C7
:109C88001D46476A8346239ECDE904457FB91020C7
:109C98001BF080F80246CBF8240020B9A24BEA2139
:109CA800A2481BF02BFDC0E901770760C760DBF80D
:109CB8002430196859B15A680123584693404A60BC
:109CC8008B601BF05BFEDBF8243000221A602B1E31
:109CD800B7BF23F00043002301220593A8BF3360D8
:109CE800059F934BB8BF3260BB4319D142F20F7343
:109CF800229A1360C7F31303234300F0E085249BE3
:109D080053B98C4B21E08C4B08930833249A136089
:109D1800089817B0BDE8F08F864B08930333F5E732
:109D2800DDE90423CDE90C23DDE90C010022002341
:109D3800FFF74AF9804650B10123229A1360249B09
:109D480013B17E4B249A13607D4B0893E0E714AB64
:109D5800C7F30A565846019315AB0093DDE90C2367
:109D68001CF092F80390002E78D00D9BA6F2FF36D7
:109D7800CDF84C80C3F3130343F07F53DDE90C01A6
:109D880043F44013194600226E4BFEF7E5F960A331
:109D9800D3E90023FEF798FB5FA3D3E90023FEF77E
:109DA800DDF904460D463046FEF724FB5CA3D3E9F3
:109DB8000023FEF789FB02460B4620462946FEF79C
:109DC800CDF904460D46FFF747F900220746002360
:109DD80020462946FFF702F940B13846FEF70AFB4C
:109DE80022462B46FFF7F0F800B9013F162F54D84A
:109DF800554B03EBC703DDE90C01D3E90023FFF75B
:109E0800EDF800284BD0013F00231293149B9B1BB5
:109E18005A1E4CBFC3F1010300230A9245BF0693A3
:109E2800002306930A93002F3BDB0A9B0F973B44C2
:109E38000A9300230B93209B092B00F28980052BA2
:109E4800C5BF043B002401242093209B023B032B25
:109E580000F28980DFE803F02D3A3859DDE9146310
:109E68001E4406F23243202BC9BFC3F14003C3F19D
:109E780020039F4006F21243D8BF04FA03F006F10C
:109E8800FF36C4BF24FA03F347EA0300FEF7A2FA39
:109E98000122A1F1F873139274E70123B5E7129038
:109EA800B4E7069BDB1B06937B420B9300230F93BF
:109EB800C1E700230E93219B002B57DC0123994611
:109EC8001A46099321920CE00123F3E700230E932D
:109ED800219BFB1803F1010909934B46012BB8BFDD
:109EE8000123DBF824000021042202F114059D421D
:109EF80040D9416058461BF001FD089000283CD12C
:109F0800124B02464FF4D571CAE60123DFE700BFC2
:109F180061436F63A787D23FB3C8608B288AC63F67
:109F2800FB799F501344D33F0B3C0300223C0300B2
:109F38000000F07F073C0300FE3B0300333A0300B8
:109F4800323A03000000F83F60CF0200963C03005D
:109F5800012400230E9420934FF0FF3300229946EA
:109F680009931223AEE701230E93F5E7219B994647
:109F78000993B6E701315200B7E7DBF82430B9F1AD
:109F88000E0F089A1A606FD8002C6DD0002F36DD9E
:109F980007F00F02A04BF80503EBC203D3E9003426
:109FA800CDE910344FEA271417D59C4B04F00F0461
:109FB8004FF00308D3E90823DDE90C01FEF7AEFBF7
:109FC800CDE90401954D5CB9DDE91023DDE9040113
:109FD800FEF7A4FBCDE904012BE04FF00208F1E7FE
:109FE800E10709D508F10108DDE91001D5E90023E9
:109FF800FEF76AFACDE9100164100835E3E700F0CE
:10A0080007817C42844B854D4FF0020804F00F0213
:10A01800241103EBC203DDE90C01D3E90023FEF7A9
:10A0280053FA0023CDE90401002C40F0E580002B11
:10A03800D0D1129BDDE90445002B00F04C810022B1
:10A04800774B20462946FEF7C9FF002800F04381D8
:10A05800B9F1000F00F03F81099B002B00F3E48069
:10A06800DDE90C34CDE90434159B002B02DB0E2FFF
:10A0780040F342820E9A002A40F067820B9C00252A
:10A08800DDF81880B8F1000F0DD00A9B002B0ADD0F
:10A098004345069AA8BF4346D21AA8EB030806927E
:10A0A8000A9AD31A0A930B9B0BB30E9B002B00F052
:10A0B800A682002C00F0A1822946224658461BF0B1
:10A0C80087FD039A0146054658461BF0D7FC0399BD
:10A0D800064658461BF052FC0B9B1B1B0B9300F0CB
:10A0E80091820B9A314658461BF072FD039001216C
:10A0F80058461BF0ADFC0F9B0446002B00F08482F1
:10A108001A46014658461BF063FD209B0446012B66
:10A1180003DC049B002B00F07C820026236904EBFF
:10A128008303186922F0B3F8C0F120000F960A9B48
:10A13800184410F01F0000F09182C0F12003042B96
:10A1480040F38182C0F11C00069B034480440693BF
:10A158000A9B03440A93069B002B05DD1A460399C4
:10A1680058461BF08FFD03900A9B002B05DD214606
:10A178001A4658461BF086FD0446129B002B00F039
:10A1880076822146039822F0D1F8002880F26F8267
:10A1980000230A22039958461BF012FC0E9B7E1ED0
:10A1A8000390002B00F05C82002329460A225846BF
:10A1B8001BF006FC099B0546002B03DC209B022BA9
:10A1C80000F35E82B8F1000F05DD29464246584685
:10A1D8001BF058FD05460F9B002B00F0D0826968E4
:10A1E80058461BF08BFB0746002840F07F820D4B3A
:10A1F800024640F2EA2153E5E20706D508F10108D4
:10A20800D5E90023FEF760F90123641008350BE750
:10A218004FF002080DE700BF60CF020038CF020000
:10A228000000F03F963C030020460022AC4B294634
:10A23800FEF74AF97E1E08F10108099CCDE90401E0
:10A248004046FEF7D7F8DDE90423FEF73DF9A54BB4
:10A258000022FDF783FFA1F15073CDE9100111939E
:10A26800002C3BD10022A04BDDE90401FDF774FF6F
:10A2780002460B46CDE90423DDE91023FEF7CCFEA8
:10A28800002840F05781DDE9102101F10043DDE9A4
:10A298000401FEF7A3FE00283FF4E2AE00242546A1
:10A2A800219BDDF820A0DE434FF0000821465846E8
:10A2B8001BF064FB002D00F0A980B8F1000F05D059
:10A2C800A84503D0414658461BF058FB2946584636
:10A2D8001BF054FB9AE03E464C46B1E7834B03EB38
:10A2E800C40353E90201089B1C440E9B002B4AD06F
:10A2F80002460B4600207E49FEF710FADDE91023DE
:10A30800FDF72AFFDDF820A0CDE91001DDE9040101
:10A31800FEF7A2FE0546FEF76DF8024630350B46FD
:10A32800DDE90401FDF718FF0AF8015B02460B4658
:10A33800CDE90401DDE91001FEF76EFE002865D1C4
:10A3480000206C49DDE90423FDF706FF02460B46B1
:10A35800DDE91001FEF760FE002840F00D81A245FE
:10A3680000F0EA8000225E4BDDE91001FEF7ACF850
:10A3780000225B4BCDE91001DDE90401FEF7A4F8EA
:10A38800CDE90401C2E7DDE91023FEF79DF8A046F8
:10A39800DDF820A0CDE91001DDE90401FEF75CFE3F
:10A3A8000546FEF727F8024630350B46DDE904017D
:10A3B800FDF7D2FE0AF8015B02460B46A245CDE93D
:10A3C80004234FF0000223D1494BDDE91001FDF7CA
:10A3D800C5FE02460B46DDE90401FEF71DFE002816
:10A3E80040F0CA8000204249DDE91023FDF7B4FEA1
:10A3F80002460B46DDE90401FEF7F0FD70B1C246E6
:10A4080008F1FF381AF8013C302BF8D0374655E0F0
:10A41800334BFEF759F8CDE90401BDE7DDE90C340B
:10A42800CDE90434159B002BFFF628AE0E2F3FF71D
:10A4380025AE2E4B03EBC703D3E90034CDE9063430
:10A44800219B002B02DAB9F1000F64D0DDF820A0BF
:10A45800DDE90445DDE9062320462946FEF75EF9D5
:10A46800FEF7FAFD0646FDF7C5FFDDE90623FEF710
:10A478002BF80246204606F130040B462946FDF724
:10A488006BFE0AF8014B089C02460B46AAEB040433
:10A49800A14540F08280FDF761FE04460D46DDE9E6
:10A4A8000623FEF7B9FD002865D120462946DDE9D7
:10A4B8000623FEF789FD08B1F3075CD403995846D3
:10A4C8001BF05CFA002301378AF80030229B1F60DA
:10A4D800249B002B3FF41CACC3F800A018E400BF79
:10A4E8000000244000001C400000144060CF02001F
:10A4F8000000E03F0000F03FA24B03EBC703D3E9A5
:10A508000034CDE90634219B002B9FDAB9F1000F06
:10A518009CDC7FF4C3AE00229B4BDDE90601FDF70E
:10A52800D3FFDDE90423FEF76DFD044600287FF420
:10A53800B5AE3E462546B4E0DDE90C34CDE9043439
:10A54800159B002B01DB0E2FD6DD209A012A36DC65
:10A55800139A82B303F233430B9CDDF81880069AF2
:10A56800012158461A4406920A9A1A440A921BF084
:10A578006FFA054686E53E4653469A4613F8012D7E
:10A58800392A06D1089A9A42F7D130220899013619
:10A598000A701A7801321A7038E700227B4BFDF7EF
:10A5A80093FF0022002304460D46FEF70DFD002808
:10A5B8003FF450AF82E7149BC3F13603CCE709F1AF
:10A5C800FF340B9BA34208DBB9F1000FA3EB040493
:10A5D8000EDBDDF818804B46C1E70B9B0F9AE31A98
:10A5E8000B94DDF8188000241A444B460F92B6E706
:10A5F800069BA3EB09080023B1E7039E71E50B9ABC
:10A60800039970E5039672E5209B012B17DC049BE8
:10A61800ABB9059BC3F313039BB9059B23F0004615
:10A62800360D360536B1069B0126013306930A9B83
:10A6380001330A930F9B002B7FF470AD0F96012016
:10A6480075E50026F6E73FF486AD1C33069A1A44F2
:10A65800984406920A9A1A440A927CE50346F4E75B
:10A66800099B002B2BDC209B022B09DC27E0B9F18E
:10A67800000F1DDC209B022B1ADD3E46CDF82490EE
:10A68800099B002B7FF40CAE2146052258461BF08F
:10A6980097F901460446039821F048FE00287FF701
:10A6A800FFADDDF820A0312301360AF8013BFBE5B8
:10A6B8000E9B3E46CDF82490002B7FF483AD089F77
:10A6C8002146039821F021FD089B00F13009099AE1
:10A6D80007F8019BFB1A9A4240F3CB8000230A2219
:10A6E800039958461BF06CF90390E9E72A6905F1CC
:10A6F8000C010C300232920021F06CFB0122394629
:10A7080058461BF0BFFA089BA846054603F1010A04
:10A71800DDE9082313440A93049B03F001030B9318
:10A728000AF1FF3321460398069321F0EEFC4146D7
:10A73800099000F13009039821F0F8FD2A462146D6
:10A74800074658461BF00AFBC268014602B3584642
:10A758001BF014F9002F3ADA0122039958461BF02E
:10A7680091FA2146039021F0E1FD002803DC29D16C
:10A7780019F0010F26D0B9F1390F1DD132E0284662
:10A78800C1E700BF60CF0200000014400000244071
:10A798000E90039821F0CAFD0E990C9058461BF0B4
:10A7A800EDF80C9A5ABB209B53B90B9B43B9B9F1EE
:10A7B800390F17D0002F05DD099B03F1310901E09E
:10A7C800002F2ADADDF818A00AF8019B6EE5209B15
:10A7D8003B4304D1049B03F00103002BBCD0B9F127
:10A7E800390F36D1069F392307F8013BBA46013F96
:10A7F8001AF8013C392B5AD001333B7056E5002F2B
:10A8080006DB209B3B4306D1049B03F0010313B9ED
:10A81800002AA1DCD6E7002AE1DC0A9B57460AF8A1
:10A82800019C53452ED000230A22039958461BF059
:10A83800C7F8A84503904FF000034FF00A024146BD
:10A8480058460BD11BF0BCF8804605460AF1010AB0
:10A8580066E7DDF818A009F10109B5E71BF0B0F8C3
:10A868002946804600230A2258461BF0A9F80546C7
:10A87800ECE7099B4FF00008002BCCBF1F460127CF
:10A88800089B1F440122039958461BF0FBF92146F7
:10A89800039021F04BFD0028A8DC02D119F0010F2C
:10A8A800A4D1BA4617F8013D302BFAD0FEE4089B34
:10A8B800BB429BD13123089A01361370F6E4249BDE
:10A8C800002B7FF420AA014BFFF73FBAFE3B0300A1
:10A8D800034637B501241B7900689C4043681B6810
:10A8E8001C420ED10E4940F2E4430E4A0E481CF0B9
:10A8F8004CFA0E481CF049FA40F2E44109481CF0B1
:10A908003DFA0569836801A95B68984730B92A68E8
:10A91800019B5340234214BF0120002003B030BDE7
:10A9280063DD020032DD0200A1DD0200BEDD0200AF
:10A9380008B520F00FF9014604481CF064F8044AF1
:10A948001388138801331BB2138008BDD0DD0200C1
:10A95800881A022008B520F0FDF8014604481CF0CA
:10A9680052F8044A5388538801331BB2538008BDF8
:10A97800EBDD0200881A022008B520F0EBF801464A
:10A9880004481CF040F8044A9388938801331BB2AA
:10A99800938008BD06DE0200881A02207FB5094BA5
:10A9A80004AA059302234FF48451074804931BF02B
:10A9B800B3FD40F267620023044807B05DF804EB7A
:10A9C80017F012BF21DE0200B0CD0200A0910020D6
:10A9D8007FB5094B04AA059302234FF48451074815
:10A9E80004931BF099FD40F267620023044807B006
:10A9F8005DF804EB17F0F8BE4CDE0200B0CD0200A3
:10AA0800D091002008B5302021F0C1F938B10023D9
:10AA18008385011DBDE8084003481BF080BDBDE8E3
:10AA28000840FFF7BBBF00BFA0C7020008B5302031
:10AA380021F0ADF938B100238385011DBDE8084038
:10AA480003481BF06CBDBDE80840FFF7C1BF00BF5D
:10AA5800B8C7020070B5094E094D4FF0FF324FF0EC
:10AA6800FF3330461BF06BFD0024204601F008FA46
:10AA78002B680134A342F0D3F7E700BF648B0020B2
:10AA88001014022038B5192021F081F949234422F5
:10AA98000370C27053234F22437002714123522224
:10AAA8000446084D83704271837128464FF0FF3287
:10AAB8004FF0FF331BF043FD07222146002005F02D
:10AAC800FBFDF2E77C8B0020034670B5006819791E
:10AAD800012345688B402D6882682B4204690ED19A
:10AAE8000E494FF41D730E4A0E481CF04EF90E48DD
:10AAF8001CF04BF94FF41D7109481CF03FF924680C
:10AB08002342946918BF4FF00073A446BDE8704013
:10AB180008BF4FF080634FF0A072604763DD02000A
:10AB280032DD0200A1DD0200BEDD020070B503784F
:10AB38008AB004460E4607AD032B20D8DFE803F0A1
:10AB480002191B1D1149284621F0A6FA05956378BC
:10AB58001E210493A37830460393E3780C4A0293AA
:10AB68002379019363790093A3791BF059FF0AB005
:10AB780070BD0849E7E70849E5E70849E3E70A211E
:10AB88002846074A1BF04CFFE0E700BF75DE0200CD
:10AB980097DE02007CDE020083DE02008DDE02000A
:10ABA800491A0300F0B5144689B000AF0D461EF0EF
:10ABB800F2F83946FFF7BAFFACB96C468AB06A4674
:10ABC800144BD561C2E905374FF400731384124B57
:10ABD8004FF41351114842F8103F1BF09DFCA54655
:10ABE8002437BD46F0BD6E468AB06B460C4AC3E9B1
:10ABF8000754C3E905274FF400729A841A46094B93
:10AC08004FF43251054842F8103F1BF085FCB54619
:10AC1800E6E700BFBADE020004000001B0CD020082
:10AC2800D8DE02000500000190B589B000AF0C46DF
:10AC38001EF0B1F83946FFF779FF8AB06A46094B2A
:10AC4800D461C2E905374FF400731384064B4FF4FF
:10AC58001351064842F8103F1BF05EFC2437BD46EE
:10AC680090BD00BFFCDE020004000001B0CD020070
:10AC780090B589B000AF0C461EF08DF83946FFF745
:10AC880055FF8AB06A46094BD461C2E905374FF4CB
:10AC980000731384064B4FF41351064842F8103FD3
:10ACA8001BF03AFC2437BD4690BD00BF1FDF0200F1
:10ACB80004000001B0CD020080B588B000AF1EF0DE
:10ACC8006AF83946FFF732FF88B06A46084B4FF4F6
:10ACD800E651C2E905374FF400739383054B0648E4
:10ACE80042F8103F1BF018FC2037BD4680BD00BF5E
:10ACF80041DF020003000001B0CD020090B589B029
:10AD080000AF0C461EF047F83946FFF70FFF8AB030
:10AD18006A46094BD461C2E905374FF400731384BE
:10AD2800064B4FF41351064842F8103F1BF0F4FB52
:10AD38002437BD4690BD00BF57DF02000400000164
:10AD4800B0CD0200F0B58FB000AF0C4605460AF052
:10AD5800BFF8164B6E461860284607F118051EF016
:10AD68001AF82946FFF7E2FE8AB06A46104BD4610A
:10AD7800C2E905354FF400730E4C13840E4B4FF4A3
:10AD88001351204642F8103F1BF0C6FBB5460B4B4B
:10AD980007F110027B6102234FF486513B61204684
:10ADA8001BF0BAFB3C37BD46F0BD00BFD0A2002067
:10ADB80057DF0200B0CD0200040000016CDF020082
:10ADC8002DE9F0470024054688B00F46164621466F
:10ADD8001A2201A8009421F037F828461DF0DBFF5D
:10ADE8006946FFF7A3FE69461D481AF0E3FBDFF842
:10ADF8007480DFF87490B44207D0302020F0C7FF89
:10AE0800054628B919481AF0D5FB08B0BDE8F087FF
:10AE1800321B272A8CBF272292B200F1040A8285AE
:10AE28003919504620F0D6FFAB8D1C44A4B2A64277
:10AE380009D1BA1912F8012C0D2A04D10A21EA18ED
:10AE480001331171AB8551464046AA8D1BF06FFB4B
:10AE58000028D0D02946484620F0E5FDCBE700BFC2
:10AE68009BDF0200B8C70200288C0020B2DF020076
:10AE7800034610B50A4619790123006803FA01F15F
:10AE8800436804691B6819420ED10E4940F23D53CC
:10AE98000D4A0E481BF079FF0D481BF076FF40F273
:10AEA8003D5109481BF06AFF2368194203D022B1BB
:10AEB80083681B6903E0002AFAD08368DB68BDE871
:10AEC8001040184763DD020032DD0200A1DD0200F8
:10AED800BEDD020008B5074816F0E6FE0121064867
:10AEE800FFF7C6FF1FF036FEBDE8084001460348DD
:10AEF8001BF089BDF48B0020B8D00200DDDF020012
:10AF0800B0B588B0044600AF89B16C4688B06A46CF
:10AF1800174B1848C2E9053103234FF4C25142F8D0
:10AF2800103F1BF0F9FAA5462037BD46B0BD1DF00D
:10AF380032FF3946FFF7FAFD6D4688B06A460E4B78
:10AF48004FF4E651C2E905374FF4007393830B4B76
:10AF5800084842F8103F1BF0DFFA2046AD4609F0DA
:10AF6800B7FF074B012118600648FFF781FFDBE7B1
:10AF7800F5DF0200B0CD020010E00200030000017E
:10AF8800D4A20020D0D00200B0B588B000AF0C46E3
:10AF98001DF001FF3946FFF7C9FD6D468AB06A46C4
:10AFA800114BD461C2E905374FF4007313840F4B7A
:10AFB8000F4C10484FF4135142F8103F1BF0ACFAF5
:10AFC8002068AD4618B109F0ABFF002323600A4C96
:10AFD800206830B109F0A4FF002108482160FFF77C
:10AFE80047FF2037BD46B0BD1DE002000400000148
:10AFF800D0A20020B0CD0200D4A20020D0D0020000
:10B00800034670B50C46DA8800681979224302F0C5
:10B018003004302C0569D0E901360ED1254940F2BB
:10B02800B723254A25481BF0B0FE25481BF0ADFE86
:10B0380040F2B72120481BF0A1FE02F00214022CB6
:10B048000CD1204940F2BB231B4A1C481BF09DFE33
:10B058001D481BF09AFE40F2BB21EBE702F0060404
:10B06800042C09D1194940F2BF23134A13481BF095
:10B078008CFE40F2BF21DDE701241B688C401C4296
:10B088000CD1134940F2D2230B4A0C481BF07DFE29
:10B0980010481BF07AFE40F2D221CBE72B6812F061
:10B0A800010F14BF2343A3432B603368BDE87040EE
:10B0B800184700BF3AE0020032DD0200A1DD0200BD
:10B0C80073E00200B0E00200E5E0020037E10200B0
:10B0D80063DD0200BEDD020010B50B7886B0052BDB
:10B0E80028D8DFE803F0038A2B687A468B680BB30D
:10B0F8004868F8B14B4A1368F3B1181F002313606E
:10B10800494A136020F03CFE00220023474816F00D
:10B1180061FD78B1828D011D45481BF008FA48B1E0
:10B12800444B059302234FF48451434804AA0493E3
:10B138001BF0F2F906B010BD0438E3E74A68CB68A3
:10B14800108D03443D489BB213850278002AF1D143
:10B158004A68134413F8013C0A2B01D00D2BE9D19E
:10B1680001230370324883685B6906B0BDE810406C
:10B1780018470024314B30201C7020F008FE38B1ED
:10B188008485011D2A4806B0BDE810401BF0C7B9E8
:10B198002B4B04AA059302234FF4845126480493A9
:10B1A8001BF0BAF940F267620023264806B0BDE8F2
:10B1B800104017F019BB302020F0E9FD014650B1CE
:10B1C8000023282283851A48043183681B6906B046
:10B1D800BDE8104018471A4BA3E74B68191F1B8D91
:10B1E8002BB1194806B0BDE8104020F01CBC084639
:10B1F80006B0BDE8104020F0C3BD0A4A13680BB979
:10B208004B68136008488B6801680B441168036039
:10B218000A8D0748D21A194406B0BDE810401BF041
:10B2280086B900BFCCA20020C8A20020288C00202C
:10B23800B8C702006AE10200B0CD0200C61A0220B7
:10B248004CDE0200D09100200C8C00202DE9F84F34
:10B2580020F0A7FC4FF47A72A0FB020302FB013135
:10B26800C00B4FF47A72002340EA4140C90BFDF746
:10B27800EBFD4FF4616200230D460646FDF734FEF0
:10B288004FF4616303FB00F1701A65EBE1713C2236
:10B298000023FDF729FE0546224F4FF47A7620F069
:10B2A80080FCA0FB064306FB0131E40B44EA414065
:10B2B8004FF47A720023C90BFDF7C6FD4FF46162A3
:10B2C800002304468A464FF46168FDF70DFE08FB2B
:10B2D80000F88146B4EB08004FF03C026AEBE871D5
:10B2E8000023FDF701FE6A1C8242D8D13C233B2A89
:10B2F80014BF15464FF0FF35A4EB0804B9F1180F39
:10B3080003FB124314BF4946002138461BF07BFB60
:10B3180000F080FC044B186800F0B2FD03481BF0F5
:10B3280072FBBAE788E1020010140220BAE60200B4
:10B3380070B54FF0FF324FF0FF330D481BF0FFF8A8
:10B348000C4D0D4E4FF0FF324FF0FF33284616F0EC
:10B3580041FC0446828D011D002005F0ADF910B1B5
:10B3680030461BF050FB204620F00AFDEAE700BFFC
:10B378004C8B00200C8C0020B8E102002DE9F04F26
:10B38800364EDFF8DCA085B0364C0027A346DFF840
:10B39800D88063793BB10123227993407360237C81
:10B3A8003374637C73744FF0FF324FF0FF335046B1
:10B3B80016F018FA2568AB68314628465B68984746
:10B3C8002279B8F90010294B019223F81210DFF8FE
:10B3D800A090504616F0D6FAD9F80030019A012B01
:10B3E8002DD1296823481BF00EFBB8F9001022481C
:10B3F8001BF009FB6379B8F90050E3B11421E37934
:10B4080001FB07B1042B0ABF2368E2899B68897A8C
:10B4180008BF1A89237C6A43890644BF03F1FF33B6
:10B42800DBB2A07903A9019303920FF02FFF10B9A3
:10B43800039D019B1D41294610481BF0E4FA013782
:10B44800062F04F11404A4D10023C9F80030002108
:10B4580040F6CD4018F01CFB96E700BFE4830020BF
:10B46800DCA2002040D00200A81A0220981A02206C
:10B47800D8A20020ECE10200FFE1020003E2020092
:10B4880008B5054816F010FC1FF064FBBDE808403D
:10B49800014602481BF0B7BA7C8B00200DE202007F
:10B4A80008B5054816F000FC1FF054FBBDE808403D
:10B4B800014602481BF0A7BA648B002025E202006F
:10B4C80008B5074816F0F0FB01210648FFF7D0FC45
:10B4D8001FF040FBBDE80840014603481BF093BA43
:10B4E800C48B0020C0D002003DE2020010B530201D
:10B4F80020F04DFC44F24123032283804323044679
:10B5080083718285011D04481BF011F82046BDE8AF
:10B51800104020F035BC00BFA0C7020030B585B090
:10B528003B4815F029FC0190102020F030FC01ABBD
:10B53800C360029002A9072004F05AFC014635486E
:10B548001AF038F8029B34485A7819781AF032F809
:10B558000298002182681CF0D7F90024029B01465A
:10B568009A682E481AF026F803AA04231421029890
:10B5780003941CF09FF90546039929481AF01AF814
:10B58800294628481AF016F8274B03AA03931421D2
:10B59800042302981CF0A3F9014624481AF00AF87B
:10B5A800042303AA1421029803941CF083F9054686
:10B5B80003991F4819F0FEFF29461E4819F0FAFFA3
:10B5C8000298214682681CF09FF901461A4819F032
:10B5D800F1FF1A4B03AA03931421042302981CF0C9
:10B5E8007EF90146164819F0E5FF042303AA142141
:10B5F800029803941CF05EF904460399114819F067
:10B60800D9FF2146104819F0D5FF05B030BD00BF5D
:10B6180055E2020062E2020073E202008AE20200DE
:10B62800A5E20200B7E2020057535251CBE20200F2
:10B63800E0E20200F2E2020006E30200585352512F
:10B6480018E302002DE302003FE3020010B5054CA9
:10B658004FF0FF324FF0FF3320461AF070FFFFF72C
:10B668005DFFF5E7C48B002084B02DE9F04106ACFE
:10B6780084E80F003D20BDF8F06720F088FB002427
:10B688000546DFF85480771EA7421DD9B44201D37E
:10B6980000220FE000226B1E04F1180169440132F8
:10B6A800097992B23D2A03F8011F04F1010401D07F
:10B6B800A642F1D82946002004F0FEFF0028E3D076
:10B6C80040461BF0A0F9DFE7284620F059FBBDE80B
:10B6D800F041002004B0704753E3020010B5054C58
:10B6E8004FF0FF324FF0FF3320461AF028FF1AF0D0
:10B6F8002EFFF5E7F48B0020F8B5304C4FF480317D
:10B708002046FFF77DFC2046FFF7DEF92C492D4B3C
:10B718002D4C4B604FF4000320468B602B4D1AF0E4
:10B7280010FF26682A4F1722314628461BF06BF96E
:10B738004FF480313846FFF763FC3846FFF7C4F909
:10B748002449254B20464B604FF08073234F8B6074
:10B758001AF0F7FE1822314628461BF054F94FF428
:10B7680080313846FFF74CFC3846FFF7ADF91C49E5
:10B778001C4B20464B604FF480731B4F8B601AF0B4
:10B78800E0FE0822314628461BF03DF94FF480318F
:10B798003846FFF735FC3846FFF796F91349144B3E
:10B7A80020464B604FF400738B601AF0CAFE314696
:10B7B8002846BDE8F84009221BF025B908D1020047
:10B7C80038A30020DDAE000058C7020077E302006E
:10B7D80000D102002CA30020C9B40000F8D0020058
:10B7E80020A30020A9B40000F0D0020014A3002078
:10B7F80089B40000F8B52E4C4FF480312046FFF78D
:10B80800FFFB2046FFF764F801462A481BF0FBF8C7
:10B818002046FFF759F92849284B294C4B6010233B
:10B8280020468B60274D1AF08CFE2668264F04228E
:10B83800314628461BF0E7F84FF480313846FFF7C9
:10B84800DFFB3846FFF744F8014620481BF0DBF8D9
:10B858003846FFF739F91E491E4B1F4F4B6020230E
:10B8680020468B601AF06DFE0522314628461BF0F3
:10B87800CAF84FF480313846FFF7C2FB3846FFF765
:10B8880027F8014615481BF0BEF83846FFF71CF9A3
:10B898001349144B20464B6040238B601AF051FE2D
:10B8A80031462846BDE8F84006221BF0ACB800BF78
:10B8B800E8D0020093E3020008A3002039A90000A1
:10B8C80040C70200ABE30200E0D00200CEE3020072
:10B8D800FCA200205DA90000D8D00200E6E3020027
:10B8E800F0A2002081A9000008B54FF400310A48F1
:10B8F800FFF786FB4FF400310848FFF781FB4FF450
:10B9080000310748FFF77CFBBDE808404FF40031E1
:10B918000448FFF775BB00BFD0D00200C8D00200B2
:10B92800C0D00200B8D0020008B500210848FFF7CF
:10B938009FFA00210748FFF79BFA00210648FFF706
:10B9480097FABDE8084000210448FFF791BA00BF04
:10B95800D0D00200C8D00200C0D00200B8D0020087
:10B9680038B50025124C54F8060C1FF0F3FF20B927
:10B978001048BDE838401BF046B814F8013C6BB1DC
:10B9880054F8060C836821461B689847021E08DA9B
:10B998002946BDE8384008481BF035B86FF08502E5
:10B9A800F6E70135062D04F11404DCD138BD00BFDB
:10B9B80046D00200FEE302001FE4020070B58AB020
:10B9C800624820F010F8FFF78FFFFFF7ADFFFFF791
:10B9D80093FEFFF70FFFFFF7C3FF5D4D28461FF0EB
:10B9E800B9FFD0B1302020F0D2F90446A8B1002622
:10B9F80058498685584816F0DBFDAB681B6873B953
:10BA0800204620F0BDF9554B4FF48251099302238B
:10BA1800534808AA08931AF07FFD1AF0AEFD324683
:10BA28002846504998470028EAD1302020F0AFF93D
:10BA380006460028F1D0031D18464B4920F02CFB80
:10BA480026220146B28528461AF071FD014618B132
:10BA5800464819F0AFFDE0E7211D28461AF05FFDC2
:10BA680004460028D9D1424E30461FF073FF002803
:10BA7800D3D0302020F08BF93E49848505463E48D6
:10BA880016F096FDB3681B681BB1224630463B4949
:10BA980098473748291D1AF042FD394809F0FEFE3B
:10BAA80028B138480AB0BDE870401AF0ACBF364833
:10BAB80009F00EFF08B13548F4E707F081FD0028CA
:10BAC800ABD1334819F076FD324819F073FD32488E
:10BAD80019F070FD314816F0E7F81BF04BFF3048BD
:10BAE80004F0DEFD014628B12E480AB0BDE87040DA
:10BAF80019F060BD2C4D04AC0FCD0FC42B68012587
:10BB080023600222294B2A49009504A808F032FC38
:10BB1800044628B10146274819F04CFD0AB070BD0B
:10BB2800254B264E1D6002AD0134FFF7DFFC96E879
:10BB3800030085E80300284604F00101FFF798F99F
:10BB480000214FF4004017F0A3FFEDE7DCA200202E
:10BB5800B8C7020035AA0000D091002041E40200D5
:10BB6800B0CD0200E1B0000061E4020088E4020008
:10BB7800A0C702000DAA0000A09100201F650200C6
:10BB8800CC830020B1E40200BC830020DEE4020084
:10BB980010E5020029E502004AE502004C8B00206E
:10BBA800B083002073E5020080CE020028D0020096
:10BBB80030D002009FE50200D8A20020C8D00200C1
:10BBC80008B51FF0EEFF4FF47A72A0FB020302FBE8
:10BBD8000131C00B4FF47A72002340EA4140C90B8F
:10BBE800FDF732F903460148184408BD8099CF6132
:10BBF80038B50D460446FFF7E3FF0021044B33F93F
:10BC0800152023F81510C4E90002204638BD00BFEE
:10BC1800881A02202DE9F3412F4D304B2E68B6F5D6
:10BC2800B46F1E6056D2FFF7CBFF4FF000082C4CC4
:10BC38002F6804EB8616C6E902887060FFF7C0FF1C
:10BC4800284E04EB8713B6F900206F46C3E90402B7
:10BC5800FFF7B6FF2B68728804EB83139A83FFF70C
:10BC6800AFFF2B68B28804EB83139A84FFF7A8FF11
:10BC78002B68F28804EB83139A85FFF7A1FF2B68E2
:10BC880004EB83139861FFF79BFF2B6804EB831386
:10BC98001862FFF795FF2E68414604EB8616B062DE
:10BCA8003846FFF7A5FF97E803002B68303604EB0A
:10BCB800831486E80300383401213846FFF798FFDB
:10BCC80097E803002B6884E8030001332B6002B077
:10BCD800BDE8F0810023F9E71414022010140220B3
:10BCE80010AC0020981A0220F0B51C4B89B01868D7
:10BCF8009B880090182200210DF10600ADF8043051
:10BD0800012620F0A1F80023154C7025C4E900365F
:10BD18004FF08043A360134B0527E3600B23236197
:10BD2800114B6361A56169462677667704F11E00A9
:10BD380020F0B2F905F2E73384F8326084F8337002
:10BD4800636305F57A70FCF7DBFE0135762DA06399
:10BD580004F12404E6D1024809B0F0BDD4CE0200B3
:10BD680020AB00200000404000004041F0B5ADF29B
:10BD7800144D0746FFF7B8FF02228DF83020ADF8C2
:10BD880032203A4A0CAE0D9231460C2203464568E1
:10BD98008468C068013A8D60CC60086101F10C01CB
:10BDA800F8D11C6958690CA901320C2AC1F89840CD
:10BDB800C1F89C0001F10801F6D103F11E0503F159
:10BDC800F60455F8063C2946C6F8F83015F8023C42
:10BDD80006F1FE0086F8FC3015F8013C86F8FD30C7
:10BDE80020F05AF92B7D002286F812316B7DD5F8A8
:10BDF800160086F813313346D5F81A1001320C2A8A
:10BE0800C3F81401C3F8181103F10803F6D1243557
:10BE1800A54206F17C06D4D16C464FF4FB62684615
:10BE2800134907AD00F006F90FCC0FC52368114977
:10BE38000CAA07A82B6000F07DFB00230A980C4988
:10BE48000D4A83420BD10D4940F2DC723846A1F805
:10BE5800D8371FF0BFFF38460DF2144DF0BD11F86A
:10BE6800014B013302F8014FEBE700BF87D6120000
:10BE7800C71A02201CD1020047A3002044A30020B7
:10BE88002DE9F04F0446304D014685B02F48A601F4
:10BE980005EB841419F08EFBD4E9021263682C4870
:10BEA80019F088FB2B4A67695379CBB1D379917A1A
:10BEB800042B0ABF1368D3899B68147C08BF1B89AD
:10BEC800890607FB03F348BF04F1FF34907903A9FF
:10BED80048BFE4B203930FF0D9F908B9039F27418B
:10BEE800AC193B46D4E904121B4819F063FB002740
:10BEF800DFF8689007F10108A08B5FFA88F1D4F8A1
:10BF080018A0B4F91CB0FDF72FFAFCF785FACDE9B3
:10BF18000001394647465B465246484619F04AFBF7
:10BF2800032F04F10804E5D13544D5E90C23002199
:10BF38000B4819F03FFBD5E90E230121084805B04D
:10BF4800BDE8F04F19F036BB10AC002052E60200F5
:10BF58006BE6020040D0020097E60200BDE6020050
:10BF6800E3E6020000B5837D01463F2B8BB049D83C
:10BF780013F030001CD0202802D10B6A188806E084
:10BF88003028FAD0102806D10A6A22B11078B0FAFF
:10BF980080F040090CE00A68906880B903F00F024D
:10BFA800052A0ED8CB694A8A1A44934203D1012044
:10BFB8000BB05DF804FB13F8011B0029F5D0002035
:10BFC800F6E7062A01D1CB69D8E7072A02D1CB695F
:10BFD8001878DCE70B2A01D1488AD8E703F00E036A
:10BFE800082BE5D1CA696846496A1AF071FB00282E
:10BFF800DDD06846FFF7B6FF0028D9D068461AF0AA
:10C008008AFBF4E703F0C002802A01D1C069BEE7C9
:10C01800402AD4D103F00F030A2B02D1CB69186848
:10C02800B5E70368024AD8689042B0D1F6E700BF86
:10C038003D6702008260002210B5034CC0E903226C
:10C04800C0E9004110BD00BF6D670200F8B50446A5
:10C058001546C3689AB106688EB1D31802D28768AC
:10C068009F4207D22369084A002B08BF13460020C5
:10C078002361F8BDB04710B92369044AF4E7E368BF
:10C0880001202B44E360F4E705E7020011E7020012
:10C0980010B48C7D4B8A04F00F04022C17D1012BAD
:10C0A80005D1CB691A78002310BC1AF064BB022BA7
:10C0B80002D1CB691A88F6E7042B02D1CB691A683A
:10C0C800F1E7082B1FD1CB69D3E90023ECE7012B5B
:10C0D80008D1CB6993F90020D317032CE4D110BC05
:10C0E8001AF088BB022B03D1CB69B3F90020F3E720
:10C0F800042B02D1CB691A68EEE7082B03D1CB6970
:10C10800D3E90023E9E70369034A002B08BF134674
:10C11800036110BC002070471AE702004A8A042A0B
:10C1280002D1C9691AF06FBB082A02D1C9691AF08D
:10C138006DBB02690349002A08BF0A460261002054
:10C14800704700BF1AE702008A7D0B4602F00F0213
:10C158000B2A11D8DFE802F00C0C0C0C0E060A0AA8
:10C168000A0A100A01211A8A1AF053BB0221FAE7B7
:10C178000021F8E70521F6E70369034A002B08BF09
:10C1880013460361002070472CE702002DE9F041B7
:10C198000E46174686B014220021044601A81FF057
:10C1A80053FE3A46314601A800F0C4F910B9059B80
:10C1B800236108E04FF00008049D43462A462046C4
:10C1C8001AF0D9FA18B9002006B0BDE8F081216844
:10C1D80021B92A462046FFF739FFF5E7E368A26848
:10C1E8002B44934205D923690E4A002B08BF1346F6
:10C1F800DEE763683A46019101A83146CDE9023588
:10C20800CDE9048800F096F9049AE368AA42134439
:10C21800E360029B6360059B01D12361D4E7024A76
:10C22800E3E700BF05E702003FE7020070B5CB690E
:10C2380004460D46002B7FD0FFF786FF002873D0F9
:10C24800A87D00F00F030B2B73D8DFE803F006116D
:10C25800111117171D355252726FEB692046BDE850
:10C2680070401A780023003A18BF01221AF083BAE6
:10C2780029462046BDE87040FFF70ABF29462046F8
:10C28800BDE87040FFF74ABFE96909B90A460EE000
:10C298003F280A880AD86B8A023B934206D2236950
:10C2A800264A002B08BF134623613DE00231204691
:10C2B800BDE870401AF0B3BA00F0C00080286B8A5D
:10C2C800E9690ED013B923691D4AEAE7013B002941
:10C2D800DCD000229A42885C06D00028E7D00132E0
:10C2E800F8E74FF0FF33F2E70028E0D02369154A5A
:10C2F800D7E76A6A12B92369134AD2E7092B06D02D
:10C308002046EA69696ABDE87040FFF73FBF2A6ABC
:10C31800002AF5D052F8083C002BF1D029462046D7
:10C32800043A98470028EBD1002070BD6A8AE96971
:10C33800BDE72369054AB4E70120F6E753E70200A1
:10C3480067E702007AE702008EE702002CE70200A6
:10C358002DE9F0438B7D054603F03002302A0C4668
:10C3680087B012D10B6A1A880B8A9A4214D1E269F3
:10C37800A37DEAB913F0300F0ED12B69694A002B5F
:10C3880008BF13462B61002007E0102AEFD10A6A84
:10C3980032B11378002BEAD1012007B0BDE8F08351
:10C3A8003F2BE4D80846FFF7DDFD0028DFD0F3E790
:10C3B80003F0C002402A0CD12368DB68002BEBD0C5
:10C3C80022462946002098470028E5D12B69564A7D
:10C3D800D5E703F03001202940F09D80216A0E88BE
:10C3E800002ED9D0802A20D103F00F03052B5ED868
:10C3F80002212846228A1AF00CFA0028C3D0A37D0D
:10C4080003F00F03042B16D1B7003A460023284641
:10C418001AF0B1F90028B6D0296879BB3A462846FF
:10C4280007B0BDE8F043FFF711BEA28AB242DBD2E3
:10C438002B693E4AA3E7052B01D1F700E5E7002762
:10C448001422002101A81FF0FFFCD4F81C8021460B
:10C4580001A8FFF71DFE28B92B69002B92D1059B77
:10C46800334A8CE7E369628A01371344E361BBB25C
:10C478009E42ECD8049FC4F81C80C6E70027A37D21
:10C48800214603F00E03042B28460DD1FFF746FE84
:10C4980000283FF478AFE369628A01371344E36107
:10C4A800BBB29E42EBD877E7FFF7F2FDF0E74FF01B
:10C4B8000008A37D03F0CE03862B27D1E769214628
:10C4C800D7F800902846C4F81C90B9F1000F1AD18B
:10C4D800FFF73AFE08B9E76155E70122284601A9A6
:10C4E8008DF80490FFF7B2FDE76100283FF44BAFE9
:10C4F800E369628A08F101081344E3611FFA88F3CB
:10C508009E42D6D848E7FFF791FEEDE72146284638
:10C51800FFF78CFEE9E72146284607B0BDE8F0435F
:10C52800FFF784BEA7E70200BEE70200CDE70200DE
:10C53800E5E7020030B595B0044668461AF0F6F80B
:10C5480070B39DF8163003F00F030A2B21D1079B17
:10C558001D681DB968461AF0DEF8F1E72B68294610
:10C568005B6823B12046984758B1AD68F1E70AA83F
:10C578001AF0DEF840B923690A4A002B08BF1346AF
:10C588002361002015B030BD20460AA9FFF7E0FE60
:10C59800EAE769462046FFF7DBFE0028DAD1F0E734
:10C5A8000120EFE7ECE702002DE9F04F97B000AF6C
:10C5B8000446C7E90A12D7F880A0FB6158B9AB490D
:10C5C8004FF46573AA4AAB481AF0DFFB4FF4657164
:10C5D800A7481AF0D3FBCAF3C0037B61BB6A53B9FF
:10C5E800037846788078BD6A00EB83002044B54222
:10C5F80019D3031BBB62E37894F802B0BB61BBF1AB
:10C60800000F02D01AF0010F16D1BB6953BBFB6AA9
:10C618001BB12046FA69B96A9847BD6A28465C3753
:10C62800BD46BDE8F08F00F101084046FCF794FED6
:10C63800013040440135DAE7237862687B629B0069
:10C648003B617B6A3A6204EB8309FB6A002B40F08A
:10C658000181C8460026BD6A09EB0B0343454ED14C
:10C66800D94413E01AF0020FD1D0237899467B629F
:10C678009B003B61636804EB89093B62FB6A002B02
:10C688007CD1BD6ABBF1000F50D15E461AF0050F90
:10C698000CBF02230123FB62BB6909EB430B0AF0C1
:10C6A8000203BB62D945B9D019F8021B19F8013C3D
:10C6B80054F82380704B984502D3704B98453BD370
:10C6C8007B69002B45D0386A1AF0EAF8002840D078
:10C6D800E8468AB06A466A4B53613B6AC2E906314A
:10C6E8004FF400731384674B42F8103F00234FF454
:10C6F8001251654802F03AF9023DC546D2E718F8EA
:10C70800012BFB6254F82200FCF726FED7F88420A0
:10C71800FB6A013042B1D7F8882096423EBFD7F86D
:10C72800842022F816000136054497E71AF004061B
:10C738001CBFFE6AD944A9E77B6923B1386A1AF09D
:10C74800AFF80028C4D11AF0010F05D1FB6AED1A21
:10C75800A8E7BB6A002BA5D04046FCF7FDFDD7F83B
:10C7680084304BB1D7F888309E423FBFD7F8842039
:10C77800431C22F816300136054493E7BBF1000F3D
:10C788006ED01AF004066ED0D846002607F148008D
:10C798005A4649461FF01EFBBB69D9445B00FB6043
:10C7A800BB6909EB4303BB600AF002037B60BB680B
:10C7B8004B456BD163781AF0020F18BF002106EBC6
:10C7C800030208BF4FEA58011AF0010FD2B240F035
:10C7D800E1801AF0040F14BF404600203B626270EB
:10C7E800A070E1702046FA693969FB6A9847051E0E
:10C7F800FFF614AF7B6A414623703B6AFA6963709F
:10C80800BB6984F802B0E37007F14800FB6A9847F7
:10C81800B0F10008C0F2EC80BB6A4846A3EB0B01FC
:10C828003B69FA69C91AFB68C91AFB6A9847002864
:10C83800C0F2E0804FF0000BA84408EB000507F1B8
:10C84800380AB345C0F2A8800021FA690846FB6A95
:10C858009847E3E65E464FF0000807F1380097E78F
:10C868005E46D84698E7B04696E700BF93E80200D0
:10C87800FEE70200A1DD020030C60200343D0300DD
:10C88800AEE802000400000138CD020019F8021BCE
:10C89800594B19F8015C54F82500984202D3574BBC
:10C8A800984216D37B692BB1386A19F0F9FF002832
:10C8B8007FF47DAF7B68002B4AD00F2E3ED95049BC
:10C8C8004FF489634F4A50481AF05FFA4FF4896170
:10C8D8007EE67B692BB1386A19F0E2FF00287FF405
:10C8E80066AF1AF0010F0BD00F2E27D9444940F23A
:10C8F8003E43444A44481AF048FA40F23E4167E64B
:10C908001AF0040F3FF453AFB8F10F0F09D93F499C
:10C9180040F241433B4A3C481AF037FA40F2414161
:10C9280056E608F1280307F1300208F1010103EB8C
:10C93800020808F8105C5FFA81F838E706F1280366
:10C9480007F13002711C9E1806F8205CCEB22EE763
:10C95800B8F10F0F09D92D4940F24B43294A2A480B
:10C968001AF013FA40F24B4132E608F1280307F1B6
:10C97800300208F1010003EB020C07F1580308F13B
:10C98800020853FA80F00CF8101C5FFA88F800F8D7
:10C99800105C0CE7002021E71BF80A3054F82390BC
:10C9A80087F83730D7F88430FBB133F81B80012182
:10C9B800FA69FB6A07F13700984700281ADB054433
:10C9C800B8F1000F06D14846FCF7C6FC00F1010893
:10C9D8001FFA88F841464846FA69FB6A98470028D2
:10C9E80008DB05440BF1010B2BE7D7F88480DEE761
:10C9F800454613E6054611E630C60200343D0300FD
:10CA080051E90200FEE70200A1DD020070E9020020
:10CA1800014B1B68184700BFF8830020014B1860C2
:10CA2800704700BFF883002007B50B460021024677
:10CA38000091034800F0B0FC03B05DF804FB00BFB0
:10CA480019CA000030B5002587B0CDE903010446B6
:10CA5800009503A90548059500F09EFCDDE9043022
:10CA68009842B8BF255407B030BD00BFE96902003D
:10CA780070B50C46002934D002680B1F9B1AD908E0
:10CA880023F0070313445D88E8070DD4AF23154A44
:10CA9800154916481AF079F9214615481AF075F91A
:10CAA800AF2110481AF06AF9104619F0D0FF08446F
:10CAB80032F83060801B81420BD0B723094A0D49F8
:10CAC8000A481AF062F921460B481AF05EF9B721B4
:10CAD800E7E725F001055D801046BDE870401AF0D3
:10CAE80073B870BDA1E90200C2E90200A1DD02002D
:10CAF800D3E902000BEA020031EA02002DE9F8430B
:10CB08004B1E0B400F461446066810D0C1F10009B1
:10CB180009EA01094A46591E042A28BF0422194273
:10CB28000CD11F46E4B900252846BDE8F88304293E
:10CB380013D8BDE8F84311461AF077B82C494FF4DA
:10CB4800A2732C4A2C481AF020F92C481AF01DF927
:10CB58004FF4A27127481AF011F999460422E1E727
:10CB6800B368B3EBD40FDED904F10B013944891A49
:10CB78003046C90819F0C1FF80460028D3D009F112
:10CB8800040505EBC0057B1E35441D447F423D402E
:10CB9800A5EB09052C442B1F07349B1B24F0070425
:10CBA800A41BB0EBD30F4FEAD3074FEAE40408D233
:10CBB80001463A46304619F0EDFF4146304619F035
:10CBC8004BFF3946304619F042FF3844844207D2B9
:10CBD8003046224619F0DEFF2146304619F03CFF68
:10CBE80006EBC706738843F0010373809CE700BF18
:10CBF8006DEA0200A1E90200A1DD020088EA020054
:10CC0800B2F5802FF8B504460ED33A4940F2EB133B
:10CC1800394A3A481AF0B9F839481AF0B6F840F2E1
:10CC2800EB1135481AF0AAF8042A0CD835494FF404
:10CC3800F973314A31481AF0A8F833481AF0A5F8C0
:10CC48004FF4F971EDE7043AC81D0A4420F00700D3
:10CC580022F00702121A172A4FEAD2030CD82B49DE
:10CC680040F2FB13244A25481AF08FF826481AF098
:10CC78008CF840F2FB11D4E7B3FA83F1206000246A
:10CC8800C1F12006C1F1240189000731C9084D1CF2
:10CC98009D428360C4600CD91D494FF40373164A42
:10CCA80016481AF072F818481AF06FF84FF4037122
:10CCB800B7E700F10C0505EB860645F8044FB542C9
:10CCC800FBD14D0045F0010545805D1A00EBC1061A
:10CCD8006F0004807780861820F8311000EBC303BA
:10CCE800748085525A8842F001025A80BDE8F840A3
:10CCF80019F0B2BEA5EA0200A1E90200A1DD020016
:10CD0800BBEA0200D2EA0200F3EA02000CEB0200DE
:10CD180035EB02002DE9F84F0446A38B08461907A6
:10CD2800154612D4022803F0070164D1204619F0F1
:10CD3800A5FF88B10138042800F23481DFE810F03B
:10CD48005B0032018100D100010101280CBF43F0D2
:10CD5800100143F02001A1831434204614F0FAFC9A
:10CD6800002840F09B819849C223984A98481AF0B5
:10CD78000CF82146B0E003F00702501F01281ED826
:10CD88000020062A2768C4E9000014D13A4603E0C7
:10CD9800E08B0130E0831268002AF9D123F0070301
:10CDA80043F002022046A28319F068FF90B342F0D4
:10CDB8002002A2832EE023F007039AB2F2E7042AA6
:10CDC80033D123F007039AB22046A28319F056FF05
:10CDD80010B142F02002A283A38B03F00709894512
:10CDE80040F0EA80A18BCA0640F14F8121F0100380
:10CDF800A38301F00701D4F81880A38BB8F1000FC2
:10CE0800B9DA0022276823F00703C4E9002243F0B7
:10CE18000103A383A38B03F00709894540F0CD8064
:10CE2800002FDFD00026B24644E06A4940F21B13C7
:10CE3800694A674819F0A9FF40F21B11664819F0C2
:10CE48009DFF49B165494FF4AB73634A604819F0D7
:10CE58009CFF4FF4AB71F1E723684BB9604940F28E
:10CE680057135D4A5A4819F090FF40F25711E5E709
:10CE780023691E684EB95B494FF4AD73564A54484E
:10CE880019F083FF4FF4AD71D8E70F4688464FF08D
:10CE98000609A38B23F0070343F006039BB2A38381
:10CEA800A268002A40F08B80002F40F08B80002E73
:10CEB80098D0BA4643F0080304F1140B5846A383EC
:10CEC80014F048FC002840F097803F49C2233F4AAD
:10CED8003F4819F05AFF5946434819F056FFC221F6
:10CEE800AEE0022909D0414940F25D133A4A384878
:10CEF80019F04BFF40F25D11A0E7E78B4FB13C49B9
:10CF08004FF4AF73344A324819F03FFF4FF4AF7112
:10CF180094E723695E684EB9324940F261132E4A9C
:10CF28002B4819F032FF40F2611187E7A38BB8460E
:10CF380023F0070343F004039BB24FF00409A383D3
:10CF4800AEE7012909D02B494FF4B273224A204891
:10CF580019F01BFF4FF4B27170E723684BB92049F1
:10CF680040F265131C4A1A4819F00FFF40F2651188
:10CF780064E723699E684EB91A494FF4B473164A98
:10CF8800134819F002FF4FF4B47157E70027A38B39
:10CF9800B84623F0070343F005039BB24FF0050999
:10CFA800A3837DE70B4940F26B130B4A084819F03D
:10CFB800ECFE40F26B1141E70027002670E74FF0C6
:10CFC800010A77E7924675E730EC020003EC0200AD
:10CFD800A1DD0200323A030060EB020082EB02009E
:10CFE8008EEB0200B1EB020047EC0200C8EB020036
:10CFF800DEEB0200EDEB020085F31188BFF36F8FC3
:10D00800BAF1000F1ED1002F2FD116B120462649A4
:10D01800B0474FF02003EFF3118583F31288BFF375
:10D028006F8F584614F088FB38BB94231F4A204959
:10D03800204819F0AAFE59461F4819F0A6FE942167
:10D048001A48FCE6A1680029DDD00D680029DAD06D
:10D0580043464A462046D1F804A0D0471DB12B6864
:10D0680029461D46F2E72B46FAE7394643464A4623
:10D0780020463F6819F02EFEC5E7584614F078FBA5
:10D08800A38B23F00803A383ACE68B067FF564AE7D
:10D0980021F02003A38301F0070147E685F31188F7
:10D0A800BFF36F8FBDE8F88FC5D0000003EC020016
:10D0B8005CEC0200A1DD020071EC0200F8B5044648
:10D0C8000D4600F114064FF02003EFF3118783F3A8
:10D0D8001288BFF36F8F304614F02EFB68B9942383
:10D0E8000B4A0C490C4819F050FE31460B4819F010
:10D0F8004CFE9421064819F041FE304614F038FBE6
:10D10800A5613A462046BDE8F8400121FFF702BE76
:10D1180003EC02005CEC0200A1DD020071EC0200ED
:10D128002DE9F04704460F4619F0C4FD051E67DBDC
:10D1380004F114094FF02003EFF3118A83F31288E6
:10D14800BFF36F8F484614F0F7FA804660B994230E
:10D15800374A3849384819F018FE4946374819F00F
:10D1680014FE9421324840E0484614F001FB4FF683
:10D17800FF72E38BA68B934206F0070643D0022E7C
:10D1880013D135460133E383484614F0E3FA002807
:10D198003FD1C223264A2A49274819F0F6FD4946B5
:10D1A800284819F0F2FDC221DCE7062E13D8DFE883
:10D1B80006F0092D1212090409006FF085054FF0D9
:10D1C8000008E1E700233B60636883B9C4E900779E
:10D1D80086B13546F3E71C4917484FF4E4731B4AF8
:10D1E80019F0D3FD4FF4E471184819F0C7FD1F601A
:10D1F8006760EDE7524602212046FFF78BFD354672
:10D208002846BDE8F0876FF00A05D8E76FF00405F7
:10D21800D5E78AF31188BFF36F8FB8F1000FEFD00D
:10D22800002332463946204619F054FDE8E700BF8E
:10D2380003EC02005CEC0200A1DD020071EC0200CC
:10D2480030EC020047EC0200EDEB020060EB02005C
:10D2580008B54268034602F00302022A81600AD038
:10D26800032A4FF0000103D0012A0AD1596006E0D1
:10D278001868596008BD186800225A6058B900201B
:10D28800F8E7064906484523064A19F07EFD452178
:10D29800044819F073FD17F055FCF0E7323A030023
:10D2A800A1DD020089EC020010B5094C0A44914244
:10D2B80000D110BD11F8013B58400309E35C00019F
:10D2C800C0B243401809205C1B01DBB25840EEE7AE
:10D2D800ACEC0200F0B5024601680A270020074EB0
:10D2E8000B461C780131355D6D0701D41360F0BD24
:10D2F80007FB0043A3F13000F2E700BF943A0300B4
:10D308002DE9F84F15469A46D378224A6F2B12F822
:10D3180003B080460F460BF0030B29D024D8582BB6
:10D328000CBF10260A26DDF8289032460023404616
:10D338003946FBF7D9FD092AD4B21ED83034B04596
:10D34800E4B277F1000709F8014D01D3D14511D8AE
:10D358002B789B0605D5082E15D1AB7843F008032A
:10D36800AB704846BDE8F88F03F0F703702BD7E79A
:10D378000826D8E780460F46D7E7BBF1010F0CBF58
:10D3880037345734DBE7102EEBD1AB7843F010037A
:10D39800E6E700BF943A03002DE9F04F82461746AE
:10D3A8001C46002597B00391387808B9284649E308
:10D3B8007B1C2528049306D00399D0470028C0F287
:10D3C80041830135F0E11822002110A81EF03CFD30
:10D3D8007B78252B00F0A380002398469E469C4628
:10D3E8001846791C0E4611F8012B2B2A00F0C6802E
:10D3F80000F2BD80202A00F0C480232A00F0C480F7
:10D408002BB19DF8483043F040038DF84830B8F10F
:10D41800000F05D09DF8483043F020038DF84830C0
:10D42800BEF1000F05D09DF8483043F010038DF889
:10D438004830BCF1000F05D09DF8483043F0080390
:10D448008DF8483028B19DF8483043F004038DF832
:10D4580048309DF8483003F04401442903D16FF364
:10D4680086138DF848309DF848302A2A43F0800307
:10D4780009968DF8483040F08C809DF8493043F08B
:10D4880001038DF84930731C1A782E2A0CBF01212C
:10D4980000219DF8492061F341028DF849200CD103
:10D4A8005A1C09925A782A2A40F083809DF849200C
:10D4B800023342F004028DF849201A786C2A00F0F1
:10D4C800A48000F28680682A00F08C806A2A00F026
:10D4D800A5804C2A00F0AA801A4612F8013B782B46
:10D4E80004928DF84B309DF8492000F217816D2B7E
:10D4F80000F2A980692B00F21181572B00F2BE803F
:10D50800412B03D0453B022B00F2088104229DF8F1
:10D518004A3062F302038DF84A300123CAE0BA1C8C
:10D5280004928DF84B309DF84930DA0740F1FD80C0
:10D5380054F8049BB9F1000F07DA9DF84820C9F1A7
:10D54800000942F004028DF848205E0740F1F68099
:10D5580054F804BBBBF1000F80F2F5809DF8493008
:10D568006FF341038DF849304FF0FF3BEBE02D2A74
:10D578000DD0302A7FF444AF012333E74FF0010C7C
:10D5880030E74FF0010E2DE74FF001082AE70120A0
:10D5980028E709A8FFF79EFE099BB3423FF474AF42
:10D5A8009DF848201390C00F60F341028DF8482081
:10D5B8006AE709A8FFF78EFE9DF848301490C3F378
:10D5C800400242EAD07262F341038DF84830099B69
:10D5D80073E7742A26D07A2A7FF47EAF06219DF855
:10D5E80049200CE05A78682A9DF8492006D1012183
:10D5F80061F3C6028DF8492002336DE7022161F319
:10D60800C6028DF84920013366E75A786C2A9DF8DE
:10D61800492001D10421EBE70321F0E705219DF81A
:10D628004920ECE707219DF84920E8E7BDF84820A4
:10D6380022F4F04222F0020242F4804242F0020256
:10D64800ADF84820DFE76E3BD9B201238B4040F2AA
:10D6580082410B4238D113F0240F52D1D8075DD53F
:10D6680003219DF84A3061F302038DF84A3002F035
:10D678007803A3F140014B424B411BE00120A3F189
:10D688005801C9B200FA01F111F4624F7FF43EAFBC
:10D6980040F6010631421DD111F4043F3ED09DF8F9
:10D6A8004A3060F3020302F07802402A8DF84A30CB
:10D6B80034D000239DF84820C2F340010B4363F3A4
:10D6C80041028DF848202EE702219DF84A3061F387
:10D6D8000203E8E702209DF84A1002F0780260F39E
:10D6E8000201402A8DF84A1002BF9DF8481041F007
:10D6F80001018DF84810632BDBD1131E18BF0123DD
:10D70800D8E703219DF84A3012F0780F61F302033D
:10D718008DF84A3014BF01230023CBE79DF8483029
:10D7280043F001038DF84830C3E79DF94820002AEB
:10D73800ACBF4FF0FF39DDF84C9006E798077FF54E
:10D7480013AFDDF850B00023CDE913339DF84A300C
:10D758009DF8491003F00703012BC1F3C30133D12E
:10D76800CB1E042B04D8DFE803F021464621210014
:10D77800236801294FEAE372CDE910321CD19DF9E3
:10D788004030DA17CDE9103204349DF8483013F0F0
:10D79800030650D03A465046049B039919F0D7FA2D
:10D7A8000028C0F24F810544049FFDE554F8043B6E
:10D7B800DA17CDE91032E8E70229E5D11AB243F3C6
:10D7C800C033CDE91023DFE7022B24D1CB1E042B75
:10D7D80004D8DFE803F018101018180001294FF0DA
:10D7E800000254F8043B14D00229CDE91032CCD100
:10D7F8009BB21093C9E7073424F00704F4E8022326
:10D80800CDE91023C1E754F8043B1093002311938A
:10D81800BBE7DBB2CDE7042B08D1073424F00704BB
:10D82800D4E900230834CDE91023AEE7032BACD1AB
:10D8380054F8043BDDE79DF84B007828B4D86228FB
:10D848001CD825283FF4B8AD5828ADD1DDE9100122
:10D858000DF13E03009312AA0AABFFF751FDBBF18D
:10D86800000F074680F29780002F9DD00DF13E08EB
:10D87800A8EB0700002E4ED001304CE06338152885
:10D8880092D801A252F820F00FD9000075D90000F3
:10D89800B1D70000B1D70000B1D70000B1D7000060
:10D8A80075D90000B1D70000B1D70000B1D700008A
:10D8B800B1D70000FDD9000099D90000BFD90000F8
:10D8C800B1D70000B1D70000E9D80000B1D70000F7
:10D8D80099D90000B1D70000B1D7000099D900004C
:10D8E800BBF1000F109F0ADB594638461EF001FCB9
:10D8F80007EB0008002F3FF457AF00260BE038462F
:10D90800FBF72AFDF4E700260120109B0DF12908FA
:10D918008DF828300AAF9DF84A3013F010020592AE
:10D9280000F0838002305B06DDF84CB048BF149BE2
:10D93800584448BFC018B9F1000F40F390809DF8D3
:10D948004820A9EB0009C2F380035007069300F1B1
:10D958008680510679D53EB130460399D0470028D4
:10D9680070DB069B01351E4630226FE019075ABF4F
:10D97800C3F300135E012B26DDE91023002BBFF64D
:10D9880065AF524263EB43032D26CDE910235DE7D3
:10D9980000265BE700269DF848200DF13E03DB1BBF
:10D9A8006FF386129B458DF848207FF65DAFABEB91
:10D9B8000303139358E7109880B30DF13E080AABA0
:10D9C8000021CDF8008012AAFFF79AFCBDF84A3072
:10D9D800BBF1000F03F0EF0343F4F04343F01003EF
:10D9E8000746ADF84A30D5DA00283FF4DDAEA8EB9B
:10D9F800000082E7109B07293FF6D6AEDFE801F06A
:10DA08000C04060C08080C0C1D70CDE61D80CBE636
:10DA1800EA17C3E90052C7E61D60C5E6DFF8BC8017
:10DA28000646A8F10507052075E71A0748BF013023
:10DA380079E71046079306920399D047DDE9062354
:10DA4800002804DA17B0BDE8F08F20224B461946AB
:10DA5800002903F1FF33ECDC4D4499466D1A2EB1D1
:10DA680030460399D0470028ECDB01359DF84A3051
:10DA7800DA0601D41B0705D530200399D0470028C2
:10DA8800E0DB0135059B33B103999DF84B00D04786
:10DA98000028D7DB0135AB4405E030200399D04797
:10DAA8000028CFDB0135ABEB0503002BF5DC434643
:10DAB8003A465046039919F04AF90028C2DB054452
:10DAC800A944A9EB0503002B7FF76EAE202003992C
