:10800000C03A0520591901006BB802002D19010072
:108010002D1901002D1901002D1901002D19010044
:10802000000000000000000000000000BD12010080
:108030002D19010000000000591201002D19010046
:1080400049130100491301004913010049130100BC
:1080500049130100491301004913010049130100AC
:10806000491301004913010049130100491301009C
:10807000491301004913010049130100491301008C
:10808000491301004913010049130100491301007C
:10809000491301004913010049130100491301006C
:1080A000491301004913010049130100491301005C
:1080B000491301004913010049130100491301004C
:1080C000491301004913010049130100491301003C
:1080D000491301004913010049130100491301002C
:1080E000491301004913010049130100491301001C
:1080F000491301004913010049130100491301000C
:1081000049130100491301004913010049130100FB
:1081100049130100491301004913010049130100EB
:1081200049130100491301004913010049130100DB
:1081300049130100491301004913010049130100CB
:1081400049130100491301004913010049130100BB
:0481500049130100CE
:04815400FFFFFFFF2B
:1081580081F0004102E000BF83F0004330B54FEAF0
:1081680041044FEA430594EA050F08BF90EA020F5D
:108178001FBF54EA000C55EA020C7FEA645C7FEAF0
:10818800655C00F0E2804FEA5454D4EB5555B8BF13
:108198006D420CDD2C4480EA020281EA030382EA84
:1081A800000083EA010180EA020281EA0303362D16
:1081B80088BF30BD11F0004F4FEA01314FF4801CE9
:1081C8004CEA113102D0404261EB410113F0004FFB
:1081D8004FEA03334CEA133302D0524263EB4303B2
:1081E80094EA050F00F0A780A4F10104D5F1200E50
:1081F8000DDB02FA0EFC22FA05F2801841F10001AB
:1082080003FA0EF2801843FA05F359410EE0A5F17E
:1082180020050EF1200E012A03FA0EFC28BF4CF0AF
:10822800020C43FA05F3C01851EBE37101F0004565
:1082380007D54FF0000EDCF1000C7EEB00006EEB72
:108248000101B1F5801F1BD3B1F5001F0CD34908FC
:108258005FEA30004FEA3C0C04F101044FEA445253
:1082680012F5800F80F09A80BCF1004F08BF5FEADA
:10827800500C50F1000041EB045141EA050130BDBA
:108288005FEA4C0C404141EB0101013C28BFB1F5CC
:10829800801FE9D291F0000F04BF01460020B1FA17
:1082A80081F308BF2033A3F10B03B3F120020CDAEA
:1082B8000C3208DD02F1140CC2F10C0201FA0CF0C8
:1082C80021FA02F10CE002F11402D8BFC2F1200C2D
:1082D80001FA02F120FA0CFCDCBF41EA0C019040E3
:1082E800E41AA2BF01EB0451294330BD6FEA04042C
:1082F8001F3C1CDA0C340EDC04F11404C4F1200217
:1083080020FA04F001FA02F340EA030021FA04F328
:1083180045EA030130BDC4F10C04C4F1200220FA7F
:1083280002F001FA04F340EA0300294630BD21FABD
:1083380004F0294630BD94F0000F83F4801306BF83
:1083480081F480110134013D4EE77FEA645C18BF77
:108358007FEA655C29D094EA050F08BF90EA020F0E
:1083680005D054EA000C04BF1946104630BD91EA06
:10837800030F1EBF0021002030BD5FEA545C05D109
:108388004000494128BF41F0004130BD14F5800448
:108398003CBF01F5801130BD01F0004545F0FE41BC
:1083A80041F470014FF0000030BD7FEA645C1ABFF1
:1083B800194610467FEA655C1CBF0B46024650EA28
:1083C800013406BF52EA033591EA030F41F4002154
:1083D80030BD00BF90F0000F04BF0021704730B5DA
:1083E8004FF4806404F132044FF000054FF00001AF
:1083F80050E700BF90F0000F04BF0021704730B570
:108408004FF4806404F1320410F0004548BF404244
:108418004FF000013EE700BF42004FEAE2014FEA99
:1084280031014FEA02701FBF12F07F4393F07F4F74
:1084380081F06051704732F07F4208BF704793F077
:108448007F4F04BF41F40021704730B54FF460748A
:1084580001F0004521F000411CE700BF50EA01028D
:1084680008BF704730B54FF000050AE050EA010236
:1084780008BF704730B511F0004502D5404261EBA6
:1084880041014FF4806404F132045FEA915C3FF4E7
:10849800D8AE4FF003025FEADC0C18BF03325FEA84
:1084A800DC0C18BF033202EBDC02C2F1200300FA35
:1084B80003FC20FA02F001FA03FE40EA0E0021FA5A
:1084C80002F11444BDE600BF70B54FF0FF0C4CF448
:1084D800E06C1CEA11541DBF1CEA135594EA0C0FFA
:1084E80095EA0C0F00F0DEF82C4481EA030621EA35
:1084F8004C5123EA4C5350EA013518BF52EA033570
:1085080041F4801143F4801338D0A0FB02CE4FF021
:108518000005E1FB02E506F00042E0FB03E54FF051
:108528000006E1FB03569CF0000F18BF4EF0010E49
:10853800A4F1FF04B6F5007F64F5407404D25FEA45
:108548004E0E6D4146EB060642EAC62141EA5551F8
:108558004FEAC52040EA5E504FEACE2EB4F1FD0C3A
:1085680088BFBCF5E06F1ED8BEF1004F08BF5FEAB8
:10857800500E50F1000041EB045170BD06F000466A
:1085880046EA010140EA020081EA0301B4EB5C0417
:10859800C2BFD4EB0C0541EA045170BD41F480110F
:1085A8004FF0000E013C00F3AB8014F1360FDEBF34
:1085B800002001F0004170BDC4F10004203C35DA10
:1085C8000C341BDC04F11404C4F1200500FA05F393
:1085D80020FA04F001FA05F240EA020001F0004234
:1085E80021F0004110EBD37021FA04F642EB0601AA
:1085F8005EEA430E08BF20EAD37070BDC4F10C04D4
:10860800C4F1200500FA04F320FA05F001FA04F297
:1086180040EA020001F0004110EBD37041F1000183
:108628005EEA430E08BF20EAD37070BDC4F120058E
:1086380000FA05F24EEA020E20FA04F301FA05F2F6
:1086480043EA020321FA04F001F0004121FA04F29E
:1086580020EA020000EBD3705EEA430E08BF20EA6E
:10866800D37070BD94F0000F0FD101F000464000A8
:1086780041EB010111F4801F08BF013CF7D041EA2A
:10868800060195F0000F18BF704703F0004652002E
:1086980043EB030313F4801F08BF013DF7D043EAFF
:1086A8000603704794EA0C0F0CEA135518BF95EAB5
:1086B8000C0F0CD050EA410618BF52EA4306D1D13C
:1086C80081EA030101F000414FF0000070BD50EA5B
:1086D800410606BF1046194652EA430619D094EAE5
:1086E8000C0F02D150EA013613D195EA0C0F05D1CF
:1086F80052EA03361CBF104619460AD181EA030123
:1087080001F0004141F0FE4141F470014FF00000DA
:1087180070BD41F0FE4141F4780170BD70B54FF075
:10872800FF0C4CF4E06C1CEA11541DBF1CEA1355F5
:1087380094EA0C0F95EA0C0F00F0A7F8A4EB0504D7
:1087480081EA030E52EA03354FEA013100F08880CE
:108758004FEA03334FF0805545EA131343EA126397
:108768004FEA022245EA111545EA10654FEA00264C
:108778000EF000419D4208BF964244F1FD0404F505
:10878800407402D25B084FEA3202B61A65EB030561
:108798005B084FEA32024FF480104FF4002CB6EB1E
:1087A800020E75EB030E22BFB61A754640EA0C009E
:1087B8005B084FEA3202B6EB020E75EB030E22BFDE
:1087C800B61A754640EA5C005B084FEA3202B6EB1F
:1087D800020E75EB030E22BFB61A754640EA9C00DE
:1087E8005B084FEA3202B6EB020E75EB030E22BFAE
:1087F800B61A754640EADC0055EA060E18D04FEA6C
:10880800051545EA16754FEA06164FEAC30343EA0B
:1088180052734FEAC2025FEA1C1CC0D111F4801FD8
:108828000BD141EA00014FF000004FF0004CB6E7D1
:1088380011F4801F04BF01430020B4F1FD0C88BF70
:10884800BCF5E06F3FF6AFAEB5EB030C04BFB6EB7B
:10885800020C5FEA500C50F1000041EB045170BD6E
:108868000EF0004E4EEA113114EB5C04C2BFD4EB9B
:108878000C0541EA045170BD41F480114FF0000E1F
:10888800013C90E645EA060E8DE60CEA135594EA9B
:108898000C0F08BF95EA0C0F3FF43BAF94EA0C0F9E
:1088A8000AD150EA01347FF434AF95EA0C0F7FF413
:1088B80025AF104619462CE795EA0C0F06D152EA67
:1088C80003353FF4FDAE1046194622E750EA41064B
:1088D80018BF52EA43067FF4C5AE50EA41047FF45C
:1088E8000DAF52EA43057FF4EBAE12E74FEA4102BF
:1088F80012F5001215D211D56FF47873B3EB6252EA
:1089080012D94FEAC12343F0004343EA505311F010
:10891800004F23FA02F018BF404270474FF00000A2
:10892800704750EA013005D111F0004008BF6FF0E0
:10893800004070474FF00000704700BF4FEA410207
:10894800B2F1E04324BFB3F5001CDCF1FE5C0DD9A5
:1089580001F0004C4FEAC0024CEA5070B2F1004FEF
:1089680040EB830008BF20F00100704711F0804FF2
:1089780021D113F13872BCBF01F00040704741F4B7
:1089880080114FEA5252C2F11802C2F1200C10FABB
:108998000CF320FA02F018BF40F001004FEAC1239F
:1089A8004FEAD32303FA0CFC40EA0C0023FA02F343
:1089B8004FEA4303CCE77FEA625307D150EA013319
:1089C8001EBF4FF0FE4040F44000704701F00040E9
:1089D80040F0FE4040F40000704700BF80F00040C7
:1089E80002E000BF81F0004142001FBF5FEA41037F
:1089F80092EA030F7FEA226C7FEA236C6AD04FEA7F
:108A08001262D2EB1363C1BFD218414048404140C3
:108A1800B8BF5B42192B88BF704710F0004F40F475
:108A2800000020F07F4018BF404211F0004F41F491
:108A3800000121F07F4118BF494292EA030F3FD05D
:108A4800A2F1010241FA03FC10EB0C00C3F1200370
:108A580001FA03F100F0004302D5494260EB4000FF
:108A6800B0F5000F13D3B0F1807F06D340084FEA6A
:108A7800310102F10102FE2A51D2B1F1004F40EB5F
:108A8800C25008BF20F0010040EA030070474900C7
:108A980040EB0000013A28BFB0F5000FEDD2B0FA64
:108AA80080FCACF1080CB2EB0C0200FA0CF0AABF87
:108AB80000EBC25052421843BCBFD0401843704725
:108AC80092F0000F81F4000106BF80F4000001322B
:108AD800013BB5E74FEA41037FEA226C18BF7FEA02
:108AE800236C21D092EA030F04D092F0000F08BF44
:108AF8000846704790EA010F1CBF0020704712F02B
:108B08007F4F04D1400028BF40F00040704712F169
:108B180000723CBF00F50000704700F0004343F0CE
:108B2800FE4040F4000070477FEA226216BF084604
:108B38007FEA23630146420206BF5FEA412390EAC7
:108B4800010F40F4800070474FF0000304E000BFBD
:108B580010F0004348BF40425FEA000C08BF70476E
:108B680043F0964301464FF000001CE050EA010232
:108B780008BF70474FF000030AE000BF50EA010247
:108B880008BF704711F0004302D5404261EB410134
:108B98005FEA010C02BF84460146002043F0B64359
:108BA80008BFA3F18053A3F50003BCFA8CF2083A7E
:108BB800A3EBC25310DB01FA02FC634400FA02FC87
:108BC800C2F12002BCF1004F20FA02F243EB02008E
:108BD80008BF20F00100704702F1200201FA02FCF0
:108BE800C2F1200250EA4C0021FA02F243EB0200E3
:108BF80008BF20EADC7070474FF0FF0C1CEAD05227
:108C08001EBF1CEAD15392EA0C0F93EA0C0F6FD0E7
:108C18001A4480EA010C400218BF5FEA41211ED0C5
:108C28004FF0006343EA501043EA5111A0FB0131B1
:108C38000CF00040B1F5000F3EBF490041EAD37186
:108C48005B0040EA010062F17F02FD2A1DD8B3F102
:108C5800004F40EBC25008BF20F00100704790F071
:108C6800000F0CF0004C08BF49024CEA502040EAC3
:108C780051207F3AC2BFD2F1FF0340EAC250704789
:108C880040F400004FF00003013A5DDC12F1190FC7
:108C9800DCBF00F000407047C2F10002410021FA39
:108CA80002F1C2F1200200FA02FC5FEA310040F151
:108CB800000053EA4C0308BF20EADC70704792F0CA
:108CC800000F00F0004C02BF400010F4000F013A02
:108CD800F9D040EA0C0093F0000F01F0004C02BFFD
:108CE800490011F4000F013BF9D041EA0C018FE76C
:108CF8000CEAD15392EA0C0F18BF93EA0C0F0AD072
:108D080030F0004C18BF31F0004CD8D180EA010097
:108D180000F00040704790F0000F17BF90F0004F30
:108D2800084691F0000F91F0004F14D092EA0C0F12
:108D380001D142020FD193EA0C0F03D14B0218BFA5
:108D4800084608D180EA010000F0004040F0FE40EB
:108D580040F40000704740F0FE4040F44000704787
:108D68004FF0FF0C1CEAD0521EBF1CEAD15392EA06
:108D78000C0F93EA0C0F69D0A2EB030280EA010CF6
:108D880049024FEA402037D04FF0805343EA11118F
:108D980043EA10130CF000408B4238BF5B0042F1ED
:108DA8007D024FF4000C8B4224BF5B1A40EA0C0092
:108DB800B3EB510F24BFA3EB510340EA5C00B3EBC4
:108DC800910F24BFA3EB910340EA9C00B3EBD10FB2
:108DD80024BFA3EBD10340EADC001B0118BF5FEA04
:108DE8001C1CE0D1FD2A3FF650AF8B4240EBC2502D
:108DF80008BF20F0010070470CF0004C4CEA5020EE
:108E08007F32C2BFD2F1FF0340EAC250704740F43C
:108E180000004FF00003013A37E792F0000F00F02E
:108E2800004C02BF400010F4000F013AF9D040EAAC
:108E38000C0093F0000F01F0004C02BF490011F440
:108E4800000F013BF9D041EA0C0195E70CEAD15338
:108E580092EA0C0F08D142027FF47DAF93EA0C0F1F
:108E68007FF470AF084676E793EA0C0F04D14B0203
:108E78003FF44CAF08466EE730F0004C18BF31F0B5
:108E8800004CCAD130F000427FF45CAF31F00043AF
:108E98007FF43CAF5FE700BF7BB972B90029BEBF62
:108EA80000204FF0004106E008BF00281CBF6FF00B
:108EB80000414FF0FF3000F075B8ADF1080C6DE9D6
:108EC80004CE002909DB002B1ADB00F042F9DDF89B
:108ED80004E0DDE9022304B07047404261EB410140
:108EE800002B1BDB00F035F9DDF804E0DDE9022397
:108EF80004B0404261EB4101524263EB43037047C7
:108F0800524263EB430300F024F9DDF804E0DDE9A5
:108F1800022304B0404261EB41017047524263EBC7
:108F2800430300F016F9DDF804E0DDE9022304B09C
:108F3800524263EB4303704753B94AB9002908BF4B
:108F480000281CBF4FF0FF314FF0FF3000F02AB867
:108F5800ADF1080C6DE904CE00F0FBF8DDF804E093
:108F6800DDE9022304B07047D0B500220B4B06465A
:108F78000F46FFF7A9FA00F09FF80446FFF72AFA10
:108F88000022074BFFF7A0FA02460B463046394647
:108F9800FFF7E2F800F090F82146D0BD0000F03D60
:108FA8000000F041704700BF4FF0FF3C06E000BFF3
:108FB8004FF0010C02E000BF4FF0010C4DF804CD5A
:108FC8004FEA410C7FEA6C5C4FEA430C18BF7FEA1A
:108FD8006C5C1BD001B050EA410C0CBF52EA430C48
:108FE80091EA030F02BF90EA020F0020704710F1C8
:108FF800000F91EA030F58BF994208BF90422CBF57
:10900800D8176FEAE37040F0010070474FEA410C4F
:109018007FEA6C5C02D150EA013C07D14FEA430C6D
:109028007FEA6C5CD6D152EA033CD3D05DF8040BDE
:10903800704700BF8446104662468C461946634610
:1090480000E000BF01B5FFF7B7FF002848BF10F1E7
:10905800000F01BD4DF808EDFFF7F4FF0CBF01202C
:1090680000205DF808FB00BF4DF808EDFFF7EAFFA8
:1090780034BF012000205DF808FB00BF4DF808ED63
:10908800FFF7E0FF94BF012000205DF808FB00BF58
:109098004DF808EDFFF7CEFF94BF012000205DF8E2
:1090A80008FB00BF4DF808EDFFF7C4FF34BF0120EF
:1090B80000205DF808FB00BF4A0011D212F500122B
:1090C80011D20DD56FF47873B3EB62520ED44FEA18
:1090D800C12343F0004343EA505323FA02F0704798
:1090E8004FF00000704750EA013002D14FF0FF30D6
:1090F80070474FF0000070474FEA410C7FEA6C5C04
:1091080002D150EA013C0AD14FEA430C7FEA6C5C79
:1091180002D152EA033C02D14FF0000070474FF0F1
:109128000100704738B50022002304460D46FFF7BA
:109138009BFF28B920462946BDE83840FFF714BFF1
:10914800204605F10041FFF70FFF404261EB410166
:1091580038BD2DE9F04786468C460846089E1546D8
:1091680074461946002B40F0C1808542B2FA82F25B
:1091780045D94AB1C2F1200300FA02FC9540944057
:109188002EFA03F343EA0C0C4FEA154EA8B2230C4F
:10919800BCFBFEF80EFB18CC08FB00F943EA0C43B5
:1091A800994528D9EB1808F1FF3704D2994502D917
:1091B800A8F102072B44A3EB0903A4B2B3FBFEFCFE
:1091C8000EFB1C330CFB00F044EA0344A04214D904
:1091D8002C190CF1FF3304D2A04202D9ACF10203DE
:1091E8002C44241A43EA07401EB1D44000233460BB
:1091F8007360BDE8F0874746DDE76346F1E792BB59
:10920800431B01214FEA154EAFB2200CB3FBFEFC05
:109218000EFB1C330CFB07F840EA0343984561D961
:10922800EB180CF1FF3004D2984502D9ACF10200DA
:109238002B44A3EB0803A4B2B3FBFEFC0EFB1C33C8
:109248000CFB07F744EA0344A7424DD92C190CF14B
:10925800FF3304D2A74202D9ACF102032C44E41B29
:1092680043EA0040C0E7C2F120039540944020FA49
:1092780003F12EFA03F34FEA154E9040AFB20343C1
:10928800B1FBFEFC0EFB1C10190C0CFB07F841EAA5
:109298000041884522D969180CF1FF3004D288456D
:1092A80002D9ACF102002944A1EB08019BB2B1FB41
:1092B800FEFC0EFB1C110CFB07F743EA01439F421F
:1092C8000ED9EB180CF1FF3104D29F4202D9ACF150
:1092D80002012B44DB1B41EA004193E76046E3E7C8
:1092E8006146F7E76046A4E76346B8E7834206D9D4
:1092F80016B9002108467CE7C6E900E0F9E7B3FAA9
:1093080083F78FB9834201D3724508D8BEEB0204B4
:1093180060EB030301209C461EB9002169E738462B
:10932800FAE7C6E9004CF8E7C7F1200CBB400EFA93
:1093380007F522FA0CF42EFA0CF1BA401C4320FA75
:109348000CF3B8404FEA144901431FFA84FEB3FBFB
:10935800F9F809FB18300B0C08FB0EFA43EA004336
:109368009A4540D9E31808F1FF3004D29A4502D94A
:10937800A8F102002344A3EB0A0389B2B3FBF9F86E
:1093880009FB183308FB0EFE41EA03418E452CD930
:10939800611808F1FF3304D28E4502D9A8F10203FF
:1093A800214443EA0040A1EB0E01A0FB029841458D
:1093B800CE46434602D306D14D4504D20138B9EB17
:1093C800020E68EB0403002EA7D0B5EB0E0261EB8A
:1093D800030101FA0CFC22FA07F3F9404CEA0303F3
:1093E800C6E9003199E74046C5E74346D9E710F892
:1093F800012B11F8013B012A28BF9A42F7D0D01A55
:109408007047034613F8012B002AFBD1181A0138BC
:109418007047000000000000F8B50C46FEF7EAFFB0
:1094280025A3D3E90023FFF74FF8FFF787FA05468E
:10943800631EDBB2022B96BF274A002052F8230096
:109448002946FFF7D9FBFEF7E7FF064628460F46F1
:10945800FEF7E2FF02460B4600202049FEF77CFE9D
:1094680002460B4630463946FFF758F9FFF766FAC9
:109478001B49FFF775FCFEF7CFFF1DF071FB10A32A
:10948800D3E90023FFF74AF90FA3D3E90023FEF736
:1094980065FE02460B4600201249FFF73FF9FFF729
:1094A8004DFAFEF7B9FF0AA3D3E90023FEF754FEED
:1094B800FFF744FAF8BD00BF02A0663AB3CD2C3FCF
:1094C800000000000002AF4083DBB5DCE1796B3FB0
:1094D8006666666666127140C43303000000084081
:1094E80000401C460000F03FF0B5644D87B0D5F849
:1094F8005C31996811F001011AD140F6034005AAC0
:1095080010F0E4FB0446002840F0B5800598C368D5
:109518001B785BB905F1CC03D3E8AF2F02F0090241
:10952800D3E8EF1FC3E8E42F002CF9D116F0FEFFB3
:10953800002141F2030005AA10F0C8FB04460028E8
:1095480040F09980059B4E4EDA68D2F80100D2F8B7
:10955800051003C6184616F0E9FF214641F201003E
:1095680005AA10F0B3FB0446002840F08480059853
:10957800C3685A7885F868205A88A5F86A201A7945
:1095880085F86920B3F80720A5F86C20B3F80530F2
:10959800A5F86E3016F0CAFF214641F2020005AA6E
:1095A80010F094FB0446002865D1059FFA68531C07
:1095B8004132344618685968083303C49342264632
:1095C800F7D1384616F0B2FF12F0FCF8044600282E
:1095D80051D195F8823013F0200318D1294A2A492D
:1095E800CDE901320093022223F08DFE95F8743004
:1095F80013F040034CD1254A1846CDE901322249DF
:109608000122009323F07FFE6FF0120433E007215C
:1096180040F6334010F020FB0646002800F0408159
:1096280007210C3025F0CDFE452303700623C0F832
:1096380002408471447004712246C370314640F67A
:10964800334010F043FB0446A8B9012140F63140ED
:1096580010F002FB0646002800F0228101210C30A0
:1096680025F0BEFE2246314640F6314010F02EFB72
:1096780004460028BAD0204607B0F0BD008000207C
:1096880070800020E56A0300A82F0300136B030015
:10969800002142F2030005AA10F018FB0446002836
:1096A800E9D1059BBE4EDA68D2F80100D2F8051060
:1096B80003C6184616F03AFF214642F2020005AAF0
:1096C80010F004FB04460028D5D1059CE368B3F8E4
:1096D800012091B2A5F8FC2029B1DA78114606F1EB
:1096E800280027F01DFC204616F020FF95F874602E
:1096F80016F0200618D1022140F66D4010F0ACFAA1
:109708000446002800F0CC8002210C3025F059FED8
:109718000123214603704670324640F66D4010F032
:10972800D5FA04460028A6D195F894301F0712D51B
:10973800002142F21C0005AA10F0C8FA04460028CD
:1097480099D10598C368D3F80120D3F80530C5E945
:10975800362316F0EBFE95F8D0309E0624D50DF191
:10976800120104A810F028FB0446002883D1042124
:1097780042F2240010F070FA0646002800F09080AB
:1097880004210C3025F01DFEBDF810302246038060
:10979800BDF812303146438042F2240010F096FAA8
:1097A800044600287FF467AF95F8D0305C0610D5E2
:1097B800002142F22A0005AA10F088FA044600287F
:1097C8007FF459AF0598C3685B7885F8183116F0AF
:1097D800ADFE082142F2010010F03EFA04460028CE
:1097E8005ED008210C3025F0ECFD95F8D01040F241
:1097F800022311F0400F08BF0323024688074CBF1D
:1098080043F02C0043F00C008B0695F8D13048BF8C
:1098180040F0400013F0090F95F89A3018BF40F453
:10982800006003F00603CF0748BF40F01000062B86
:1098380008BF40F4C070002123F07CFD21460022BF
:1098480042F2010010F042FA044600287FF413AFF8
:1098580095F87430B5F8FC109E0624D4C9B941F2C5
:10986800050005AA10F032FA044600287FF403AF79
:10987800B5F8FC30059C4BB9E368B3F80120A5F8AE
:10988800FC209A884748114627F04AFB204616F0E4
:109898004DFE082140F6014010F0DEF9044680B97B
:1098A8006FF06804E7E60029F3D13F4B0122CDE9C8
:1098B80001033E490346009023F025FD6FF00404A0
:1098C800D9E608210C3025F07CFD95F8D030024609
:1098D800D9071CD44FF00051354823F02BFD214601
:1098E800002240F6014010F0F1F9044600287FF408
:1098F800C2AE014605AA4FF6014010F0E7F9064648
:1099080048B12C4BCDE901430094234613E022A132
:10991800D1E90001E1E7059816F008FE31464FF657
:10992800024005AA10F0D2F90446C0B1224B0096B5
:10993800CDE901633346022218461C4923F0E3FCB3
:1099480011F0ECFB044600287FF495AE12F014FFEA
:10995800044600287FF48FAE10F0ACFF8BE6059824
:10996800C368B3F80130A5F8B93016F0DFFD95F8F3
:10997800B9305B07E4D521464FF6034005AA10F03D
:10998800A5F908B10D4BBDE70598C3685B7885F864
:10999800B83016F0CBFDD3E7908800020080002095
:1099A800D080002000810020376B0300A82F03001F
:1099B800108800025A6B03007E6B0300A76B03003C
:1099C8002DE9F041C1F30A5702460B460C46A7F2AF
:1099D800FF3605468046132E36DC002E17DA34A3F0
:1099E800D3E90023FEF7BAFB00220023FFF75AFB56
:1099F80050B1002C58DA24F000442C430025AC4226
:109A08002D4C08BF4FF0004423462A4625E02B4F33
:109A1800374101EA070C5CEA000C1ED024A3D3E905
:109A28000023FEF79BFB00220023FFF73BFB0028E7
:109A3800EAD0002C4FF00005BEBF4FF4801333412D
:109A4800E41824EA0704DFE7332E0ADDB6F5806F51
:109A580003D1FEF783FB02460B4610461946BDE8C4
:109A6800F081A7F213474FF0FF3C2CFA07F70742A3
:109A7800F3D00FA3D3E90023FEF770FB00220023E5
:109A8800FFF710FB0028BFD0002C0ADA142E01D1F2
:109A9800013406E0C6F134060123B3401D444545B0
:109AA800F6D325EA0705AFE700252C46ACE700BF4B
:109AB8009C7500883CE4377E0000F0BFFFFF0F0074
:109AC800B1F5801F02460B462DE9F04F0D4687B0D1
:109AD80024DA21F00044044308D1002200230020A6
:109AE800C949FEF71BFE07B0BDE8F08F002904DA6C
:109AF800FEF732FB00220023F3E70022C34BFEF7F8
:109B0800E3FC0B460D4602466FF03501C04885421E
:109B180006DD10461946FEF721FBE4E70021F5E7CC
:109B28002C15C5F3130510460022A4F2FF340C448B
:109B380005F5152101F6647101F4801686F07F5150
:109B480004EB165481F4401141EA05031946B14B60
:109B5800FEF702FBAB1C82468B46C3F313030022BD
:109B6800022B53DC0023FFF775FAD0B1002C00F06C
:109B780020812046FEF73EFC06460F468EA3D3E919
:109B88000023FEF7A1FC04460D46304639468CA357
:109B9800D3E90023FEF798FC02460B4620462946E7
:109BA800B9E789A3D3E9002350465946FEF78CFC50
:109BB80002460B4600209849FEF7CEFA06460F46A5
:109BC80052465B4650465946FEF77EFC02460B4617
:109BD80030463946FEF778FC06460F4614B9324639
:109BE8003B46A0E02046FEF705FC8046894672A366
:109BF800D3E90023FEF768FC04460D464046494673
:109C08006FA3D3E90023FEF75FFCA5E04FF0804384
:109C1800A5F5C226FEF7A2FA02460B46504659465B
:109C2800C5F5D725FEF77AFDA6F27A465135CDE976
:109C3800000120463543FEF7DDFBDDE90023CDE9D1
:109C4800020110461946FEF73FFC02460B46CDE9D5
:109C58000423FEF739FC804689465DA3D3E9002337
:109C6800FEF732FC5CA3D3E90023FEF777FA4246FD
:109C78004B46FEF729FC5AA3D3E90023FEF76EFAF8
:109C880042464B46FEF720FC57A3D3E90023FEF7D4
:109C980065FADDE90423FEF717FC55A3D3E9002391
:109CA800CDE9040140464946FEF70EFC52A3D3E92C
:109CB8000023FEF753FA42464B46FEF705FC50A335
:109CC800D3E90023FEF74AFA42464B46FEF7FCFB6F
:109CD80002460B46DDE90401FEF740FA002D8046F6
:109CE800894648DD00224C4B50465946FEF7ECFBAE
:109CF80052465B46FEF7E8FB02460B4606460F4611
:109D080040464946FEF72AFADDE90023FEF7DCFB68
:109D18008046894664B902460B4630463946FEF706
:109D28001BFA02460B4650465946FEF715FADAE684
:109D380021A3D3E90023DDE90201FEF7C5FB0446B0
:109D48000D461FA3D3E90023DDE90201FEF7BCFBA2
:109D580042464B46FEF702FA02460B463046394663
:109D6800FEF7FAF952465B46FEF7F6F902460B464D
:109D780020462946D9E702460B4650465946FEF783
:109D8800EBF9DDE90023FEF79FFB06460F46002CA2
:109D98003FF425AF08A3D3E90023DDE90201FEF76C
:109DA80093FB04460D4606A3D3E90023DDE902012F
:109DB80029E70020002196E60000E0FE422EE63F5B
:109DC800763C7935EF39EA3D555555555555D53FCA
:109DD80044523EDF12F1C23FDE03CB966446C73FD2
:109DE800599322942449D23F935555555555E53FEB
:109DF8009FC678D0099AC33FAF788E1DC571CC3FF6
:109E080004FA97999999D93F000050C3000050432C
:109E1800FFFFEF7F0000F03F0000E03F0000000080
:109E28002DE9F04F1F469DB000230C4682460E9246
:109E380018934FF00008974B4FF000091D6828460B
:109E4800FFF7DFFA22468346179213782B2B3BD075
:109E58002CD80D2B26D8082B26D8002B2FD0002342
:109E68000C93179E3378302B72D1737803F0DF038D
:109E7800582B63D10C9B17A9874A5046019318ABFE
:109E88000297009319AB1EF005FA10F00705044677
:109E980035D0062D1AD10E9B0BB101361E604046F7
:109EA800494637E0202BDAD10132CDE72D2BD6D128
:109EB80001230C93531C17935378002BD1D10E9B7D
:109EC800002BECD01C60EAE70023F2E7189A3AB1BD
:109ED80035211AA828F075F9189950461EF09AFCF1
:109EE800013D199A042D06D8DFE805F01703202351
:109EF8001700DDE91A89210701D549F000490E9BB1
:109F080013B1179B0E9A13600C9B002BC7D04046C9
:109F180009F100411DB0BDE8F08FDDE91A8302F2B6
:109F2800334223F4801343EA0259E4E7DFF86C91E3
:109F3800E1E76FF000494FF0FF38DCE7179B5A1C48
:109F480017925B78302BF9D0002BD8D0012300E092
:109F58000023002704930A22179BCDE905770A936B
:109F680017980678A6F13003D9B2092924D95A4698
:109F7800294627F0B5FD00282DD000203246059D42
:109F880083460346652A01D0452A13D11DB9049A90
:109F9800024394D00025179C621C179262782B2AE2
:109FA8006ED02D2A72D04FF0000CA2F13001092991
:109FB8007AD91794002699E0059901300829179055
:109FC800D7BF069902FB073702FB01330693059BAF
:109FD80001330593C4E7179B03EB0B02179213F8A1
:109FE8000B20059BA3B383461D46A2F13003092B22
:109FF80012D90123C6E7179B01305A1C17925A78C9
:10A00800302AF8D0A2F13103082B00F2EA84834603
:10A018000020179B05460A93303A00F1010311D03E
:10A028009B4400EB050C2B460A21634512D12B18E3
:10A038000135082B054419DC06990A2303FB012383
:10A0480006930023179A1846511C17915278CCE7AB
:10A058000598D5E7082B03F1010303DC069E4E4360
:10A068000696E2E7102BD8BF4F43DEE70F2BDCBF85
:10A078000A2303FB0727E4E74FF0000B012386E7D9
:10A088004FF0000CA21C1792A2788EE74FF0010C3B
:10A09800F8E700BF78420300044203000000F07FA5
:10A0A800179A511C17915278302AF9D0A2F1310130
:10A0B80008293FF67FAF303A0792179A0D92179A00
:10A0C800561C17965278A2F1300EBEF1090F38D9F6
:10A0D8000D99761A082E44F61F6603DC07998E42FE
:10A0E800A8BF0E46BCF1000F00D07642002D4FD11C
:10A0F800049908437FF403AF002B7FF4E0AE692A8C
:10A1080029D026DC492A26D04E2A7FF4D8AE9D498C
:10A1180017A827F0E6FE00283FF4D1AE179B1B785E
:10A12800282B2FD11AAA984917A827F0EEFE052840
:10A1380028D11B9BDDF8688043F0FF4949F4E0090A
:10A14800DDE6079E0A2101FB0621A1F130020792F4
:10A15800B5E76E2AD9E78D4917A827F0C2FE00286F
:10A168003FF4ADAE179B17A88949013B179327F019
:10A17800B8FE10B9179B01331793DFF818924FF008
:10A188000008BCE684481CF025FD80468946B6E6F2
:10A19800A6EB0B0306982C460F93059B002B08BFD4
:10A1A8002B46102D0593A8BF1024FEF713F9092D8F
:10A1B8008046894614DCA6EB0B03002B3FF49FAEC8
:10A1C800A6EB0B0379DD162B45DC0F9B4246734942
:10A1D80001EBC3014B46D1E90001FEF775F9D4E75D
:10A1E8006E4B03EBC40353E91223FEF76DF9804667
:10A1F80089463846FEF7EEF802460B464046494681
:10A20800FDF7ACFF0F2D80468946D4DD2C1BA6EB4D
:10A218000B031C44002C26DC00F0A380644214F0DD
:10A228000F020AD05D4B4046494603EBC203D3E90F
:10A238000023FEF773FA80468946241100F09180C6
:10A248001F2C40F3B38022234FF000084FF0000981
:10A25800CAF8003053E6C5F12503A6EB0B0293427A
:10A2680019DA2C1B144414F00F030AD04B49424648
:10A2780001EBC3014B46D1E90001FEF725F9804601
:10A28800894634F00F046CD0B4F59A7F41DD22235F
:10A29800CAF8003071E7C5F10F05404C42464B46FD
:10A2A80004EBC501D1E90001FEF70EF90F9B5D1B18
:10A2B80004EBC504D4E900238FE71633A6DBABEB28
:10A2C8000602364B4046494603EBC203D3E9002356
:10A2D800FEF724FA59E7002306932223DFF8B49007
:10A2E8004FF00008CAF80030189950461EF092FA4C
:10A2F800069950461EF08EFA059950461EF08AFAC5
:10A30800109950461EF086FA079950461EF082FAB8
:10A31800F5E50023241140464946214F0493012CBA
:10A3280022DC0BB180468946049BA9F154791C496B
:10A33800424601EBC3014B46D1E90001FEF7C4F8E0
:10A34800144B0A4680460B4016498B429FD8A1F50C
:10A3580080118B4286BFDFF850904FF0FF3802F132
:10A368005479002304934CE0E20704D5D7E900238D
:10A37800FEF7AAF80123049A641008370132049200
:10A38800CDE700BF2D720300F0410300FC5103002C
:10A39800C08803000000F07F2765030038320300FF
:10A3A800103203000000A07CFFFFEF7F14F01003C1
:10A3B80040464946AB4F18BF6A2304930023E2077F
:10A3C80004D5D7E90023FEF77FF80123641007F1CD
:10A3D8000807F4D10BB180468946049B43B1C9F301
:10A3E8000A524946C2F16B03002B50DC6A230493DE
:10A3F8000022002340464946FEF72CFE00287FF441
:10A4080022AF069B5046059A00932B460A991EF0E8
:10A418006BFA109000283FF43AAF0F9BABEB060B9A
:10A42800002BB4BF5B46002311930F9B23EAE37311
:10A438001493002307930593109B504659681EF008
:10A44800A9F9069000283FF448AF109B0C301A6910
:10A4580003F10C010232920027F0B1F91AAB42461F
:10A468005046019319AB00934B46CDE90A891EF07B
:10A478000BFD189000283FF430AF012150461EF024
:10A488007DFA03460590D0B90023059325E71F2BD5
:10A498000EDD342B4FF00008DBBF4FF0FF33C2F165
:10A4A8004B024FF05C799340D8BF03EA01099DE75E
:10A4B8004FF0FF3202FA03F303EA080896E7199C03
:10A4C8001A9A002CA9BF119B149BE718149EB8BFB9
:10A4D8001E1B049BB8BF119FE41A634B1444C2F1BE
:10A4E8003602013C9C4280F2B0801B1B01251F2BC9
:10A4F800A2EB0302CDBFC4F17F449D40002404F5C4
:10A508007F04C2BF04F57B44E23405FA04F407EB88
:10A51800020B049B16445F451E443B46A8BF5B469E
:10A52800B342A8BF3346002BC2BFABEB030BF61AEE
:10A53800FF1A119B002B16DD1A46059950461EF08E
:10A54800DDFA059000289FD00146189A50461EF063
:10A558002BFA0D9000283FF4C0AE189950461EF013
:10A5680059F90D9B1893BBF1000F71DC0F9B002B61
:10A5780008DD149A504606991EF0C0FA0690002885
:10A588003FF4A9AE002E08DD3246069950461EF06B
:10A598000FFB069000283FF49EAE002F08DD3A46D8
:10A5A800059950461EF004FB059000283FF495AE2F
:10A5B800069A504618991EF067FB079000283FF44A
:10A5C8008CAEC36805990D930023C36027F0AEFDD8
:10A5D80000284BDA0D9B53EA080340F0BC80C9F30E
:10A5E8001303002B40F0B78029F000431B0D1B0517
:10A5F800B3F1D66F40F2AF80079B5B6923B9079B25
:10A608001B69012B40F3A7800122079950461EF0D1
:10A61800CFFA0599079027F089FD002840F39B8021
:10A6280029F00043049A1B0D1B05002A79D0B3F1C9
:10A63800D66F6DD8B3F15C7F46D84FF000084FF065
:10A6480000092223CAF800304EE6002401255EE7FF
:10A658005A46189950461EF0ABFA1890002885D132
:10A668003BE600BFE831030002FCFFFFCB4640F0A9
:10A67800A3800D9AC9F31303002A40D0964A934247
:10A6880058D1049B42467BB9B8F1FF3F40F089801E
:10A69800924B99453FF421AE914BDDF8108009EAC1
:10A6A800030303F580191FE68D4B09EA0303B3F191
:10A6B800D46F16D918F101011BD1884A91453FF48E
:10A6C8000CAE03F580198046864B40464946002269
:10A6D800FDF7FAFE0B468046894603437FF404AE35
:10A6E800AFE71E0D4FF0FF31C6F16B06B14088454C
:10A6F800E7D0002C5ED014EA0B0FE5D01EE0002B4B
:10A708004AD1B8F1000F8BD064B314EA0B0F2BE0D9
:10A71800A3F580134FF0FF386FEA13596FEA095910
:10A72800D2E7A3F580134FF0FF386FEA13596FEAA9
:10A738000959D9E59CB114EA090F0CD0049A40468E
:10A74800494627F014FA02460B46DDE90A01FDF7EF
:10A7580005FD80468946049B002BB5D1C4E515EA62
:10A76800080FEAE718EA050FF5D0049A404649466B
:10A7780027F0FDF902460B46DDE90A01FDF7ECFC7E
:10A788000022002304460D46FEF764FC00287FF4EF
:10A7980054AFA046A946DEE7002CB6D115EA080F4B
:10A7A800E2E724B114EA090F3FF49EADC6E718EAC0
:10A7B800050FF9E72A42A0E70599079827F0D1FC89
:10A7C80000224FF0804304460D46FEF757FC002850
:10A7D8006DD00D9B002B78D1B8F1000F56D1C9F37D
:10A7E8001303002B59D100223F4B20462946FEF780
:10A7F8003BFC002858D12046294600223B4BFDF758
:10A8080063FE04460D4605F1004308940993344B52
:10A81800334A0BEA03030BEA02021593344B9A42BC
:10A82800DDE9086740F09E80ABF15479404649461F
:10A838001EF0C0FADDE90823FDF746FE42464B4606
:10A84800FDF78CFC0B46264980462A4A194091425E
:10A8580054D90B9A214B9A4203D10A9B01333FF4F6
:10A868003CADDFF878904FF0FF38189950461DF04E
:10A87800D1FF069950461DF0CDFF059950461DF0B1
:10A88800C9FF079950461DF0C5FFD5E5B8F1010F7E
:10A8980003D1B9F1000F3FF4D0AE174C0023124D8D
:10A8A800CDE908340024B2E70024104DABE70F4B84
:10A8B800204629460022FDF707FE0D9B04460D465B
:10A8C800002BA0D0CDE90845A1E7074C0023254679
:10A8D800CDE908341C469AE7FFFF0F00FFFFEF7F22
:10A8E8000000F07F000050390000F03F0000E03F1A
:10A8F8000000E07FFFFF9F7C0000F0BF03F1547968
:10A90800049B4E46002BB0D129F00043159A1B0D2D
:10A918001B059A42A9D120462946FEF703FCC9F334
:10A928001306FDF7A3FD0B4602462946204646EAD4
:10A938000806FDF711FC0D9B04460D461E434AD040
:10A948002DA3D3E90023FEF78FFB00287FF4CCACBE
:10A95800204629462AA3D3E90023FEF7A3FB0028B3
:10A9680083D0C1E4049B13B3159BB3F1D46F1ED8F5
:10A978002046294624A3D3E90023FEF77FFB90B1A4
:10A9880029462046FEF798FB012838BF0120FDF72D
:10A9980021FD0D9B04460D46D3B901F100431290E9
:10A9A8001393DDE9126707F1D663159A9F1ADDE95B
:10A9B8000A011EF0FFF902460B4630463946FDF7FC
:10A9C80083FDDDE90A23FDF7C9FB8046894697E741
:10A9D800CDE91245E5E70EA3D3E90023FEF744FBD2
:10A9E800BDE7652A3FF448AB452A3FF445AB012350
:10A9F800FFF77EBBAFF300809535A094FFFFDF3FE4
:10AA080035E5AF350000E03F0000C0FFFFFFDF4144
:10AA18009535A094FFFFCF3F2DE9F04F144697B02E
:10AA28001D46476A8346239ECDE904457FB9102019
:10AA38001CF0D6F80246CBF8240020B9A24BEA2134
:10AA4800A2481DF037FBC0E901770760C760DBF853
:10AA58002430196859B15A680123584693404A600E
:10AA68008B601DF0D7FEDBF8243000221A602B1E05
:10AA7800B7BF23F00043002301220593A8BF33602A
:10AA8800059F934BB8BF3260BB4319D142F20F7395
:10AA9800229A1360C7F31303234300F0E085249B35
:10AAA80053B98C4B21E08C4B08930833249A1360DC
:10AAB800089817B0BDE8F08F864B08930333F5E785
:10AAC800DDE90423CDE90C23DDE90C010022002394
:10AAD800FEF7C0FA804650B10123229A1360249BE6
:10AAE80013B17E4B249A13607D4B0893E0E714ABB7
:10AAF800C7F30A565846019315AB0093DDE90C23BA
:10AB08001EF0C2F90390002E78D00D9BA6F2FF36F6
:10AB1800CDF84C80C3F3130343F07F53DDE90C01F8
:10AB280043F44013194600226E4BFDF715FB60A352
:10AB3800D3E90023FDF7C8FC5FA3D3E90023FDF7A1
:10AB48000DFB04460D463046FDF754FC5CA3D3E9E3
:10AB58000023FDF7B9FC02460B4620462946FDF7BF
:10AB6800FDFA04460D46FDF7C1FE00220746002304
:10AB780020462946FEF778FA40B13846FDF73AFCF8
:10AB880022462B46FEF766FA00B9013F162F54D825
:10AB9800554B03EBC703DDE90C01D3E90023FEF7AE
:10ABA80063FA00284BD0013F00231293149B9B1B90
:10ABB8005A1E4CBFC3F1010300230A9245BF0693F6
:10ABC800002306930A93002F3BDB0A9B0F973B4415
:10ABD8000A9300230B93209B092B00F28980052BF5
:10ABE800C5BF043B002401242093209B023B032B78
:10ABF80000F28980DFE803F02D3A3859DDE9146363
:10AC08001E4406F23243202BC9BFC3F14003C3F1EF
:10AC180020039F4006F21243D8BF04FA03F006F15E
:10AC2800FF36C4BF24FA03F347EA0300FDF7D2FB5B
:10AC38000122A1F1F873139274E70123B5E712908A
:10AC4800B4E7069BDB1B06937B420B9300230F9311
:10AC5800C1E700230E93219B002B57DC0123994663
:10AC68001A46099321920CE00123F3E700230E937F
:10AC7800219BFB1803F1010909934B46012BB8BF2F
:10AC88000123DBF824000021042202F114059D426F
:10AC980040D9416058461DF07DFD089000283CD100
:10ACA800124B02464FF4D571CAE60123DFE700BF15
:10ACB80061436F63A787D23FB3C8608B288AC63FBA
:10ACC800FB799F501344D33FB8870300CA88030019
:10ACD8000000F07FC6880300BD8803008468030075
:10ACE800836803000000F83F383203003E89030000
:10ACF800012400230E9420934FF0FF33002299463D
:10AD080009931223AEE701230E93F5E7219B994699
:10AD18000993B6E701315200B7E7DBF82430B9F1FF
:10AD28000E0F089A1A606FD8002C6DD0002F36DDF0
:10AD380007F00F02A04BF80503EBC203D3E9003478
:10AD4800CDE910344FEA271417D59C4B04F00F04B3
:10AD58004FF00308D3E90823DDE90C01FDF7DEFC19
:10AD6800CDE90401954D5CB9DDE91023DDE9040165
:10AD7800FDF7D4FCCDE904012BE04FF00208F1E720
:10AD8800E10709D508F10108DDE91001D5E900233B
:10AD9800FDF79AFBCDE9100164100835E3E700F0F0
:10ADA80007817C42844B854D4FF0020804F00F0266
:10ADB800241103EBC203DDE90C01D3E90023FDF7FD
:10ADC80083FB0023CDE90401002C40F0E580002B33
:10ADD800D0D1129BDDE90445002B00F04C81002204
:10ADE800774B20462946FEF73FF9002800F04381BB
:10ADF800B9F1000F00F03F81099B002B00F3E480BC
:10AE0800DDE90C34CDE90434159B002B02DB0E2F51
:10AE180040F342820E9A002A40F067820B9C00257C
:10AE2800DDF81880B8F1000F0DD00A9B002B0ADD61
:10AE38004345069AA8BF4346D21AA8EB03080692D0
:10AE48000A9AD31A0A930B9B0BB30E9B002B00F0A4
:10AE5800A682002C00F0A1822946224658461DF001
:10AE68004DFE039A0146054658461DF09DFD03997F
:10AE7800064658461DF0CEFC0B9B1B1B0B9300F09F
:10AE880091820B9A314658461DF038FE03900121F5
:10AE980058461DF073FD0F9B0446002B00F084827A
:10AEA8001A46014658461DF029FE209B0446012BF0
:10AEB80003DC049B002B00F07C820026236904EB52
:10AEC8008303186927F0E3F8C0F120000F960A9B66
:10AED800184410F01F0000F09182C0F12003042BE9
:10AEE80040F38182C0F11C00069B03448044069312
:10AEF8000A9B03440A93069B002B05DD1A46039917
:10AF080058461DF055FE03900A9B002B05DD21468F
:10AF18001A4658461DF04CFE0446129B002B00F0C2
:10AF280076822146039827F001F9002880F26F8283
:10AF380000230A22039958461DF08EFC0E9B7E1EA4
:10AF48000390002B00F05C82002329460A22584611
:10AF58001DF082FC099B0546002B03DC209B022B7D
:10AF680000F35E82B8F1000F05DD294642465846D7
:10AF78001DF01EFE05460F9B002B00F0D08269686D
:10AF880058461DF007FC0746002840F07F820D4B0D
:10AF9800024640F2EA2153E5E20706D508F1010826
:10AFA800D5E90023FDF790FA0123641008350BE773
:10AFB8004FF002080DE700BF3832030010320300DB
:10AFC8000000F03F3E89030020460022AC4B294692
:10AFD800FDF77AFA7E1E08F10108099CCDE9040103
:10AFE8004046FDF707FADDE90423FDF76DFAA54BA6
:10AFF8000022FDF7B3F8A1F15073CDE910011193C8
:10B00800002C3BD10022A04BDDE90401FDF7A4F898
:10B0180002460B46CDE90423DDE91023FEF742F88A
:10B02800002840F05781DDE9102101F10043DDE9F6
:10B038000401FEF719F800283FF4E2AE0024254683
:10B04800219BDDF820A0DE434FF00008214658463A
:10B058001DF0E0FB002D00F0A980B8F1000F05D02D
:10B06800A84503D0414658461DF0D4FB294658460A
:10B078001DF0D0FB9AE03E464C46B1E7834B03EB0C
:10B08800C40353E90201089B1C440E9B002B4AD0C1
:10B0980002460B4600207E49FDF740FBDDE9102300
:10B0A800FDF75AF8DDF820A0CDE91001DDE904012B
:10B0B800FDF71CFC0546FDF79DF9024630350B46A9
:10B0C800DDE90401FDF748F80AF8015B02460B4682
:10B0D800CDE90401DDE91001FDF7E4FF002865D1A1
:10B0E80000206C49DDE90423FDF736F802460B46DB
:10B0F800DDE91001FDF7D6FF002840F00D81A245DB
:10B1080000F0EA8000225E4BDDE91001FDF7DCF972
:10B1180000225B4BCDE91001DDE90401FDF7D4F90C
:10B12800CDE90401C2E7DDE91023FDF7CDF9A0461A
:10B13800DDF820A0CDE91001DDE90401FDF7D6FB1B
:10B148000546FDF757F9024630350B46DDE904019F
:10B15800FDF702F80AF8015B02460B46A245CDE965
:10B1680004234FF0000223D1494BDDE91001FCF71D
:10B17800F5FF02460B46DDE90401FDF793FF0028C1
:10B1880040F0CA8000204249DDE91023FCF7E4FFC3
:10B1980002460B46DDE90401FDF766FF70B1C246C1
:10B1A80008F1FF381AF8013C302BF8D0374655E043
:10B1B800334BFDF789F9CDE90401BDE7DDE90C342E
:10B1C800CDE90434159B002BFFF628AE0E2F3FF770
:10B1D80025AE2E4B03EBC703D3E90034CDE9063483
:10B1E800219B002B02DAB9F1000F64D0DDF820A012
:10B1F800DDE90445DDE9062320462946FDF78EFAF8
:10B20800FDF774FB0646FDF7F5F8DDE90623FDF7C3
:10B218005BF90246204606F130040B462946FCF746
:10B228009BFF0AF8014B089C02460B46AAEB040454
:10B23800A14540F08280FCF791FF04460D46DDE908
:10B248000623FDF72FFF002865D120462946DDE9B2
:10B258000623FDF7FFFE08B1F3075CD403995846AF
:10B268001DF0D8FA002301378AF80030229B1F60AE
:10B27800249B002B3FF41CACC3F800A018E400BFCB
:10B288000000244000001C40000014403832030035
:10B298000000E03F0000F03FA24B03EBC703D3E9F7
:10B2A8000034CDE90634219B002B9FDAB9F1000F59
:10B2B8009CDC7FF4C3AE00229B4BDDE90601FDF761
:10B2C80003F9DDE90423FDF7E3FE044600287FF4D3
:10B2D800B5AE3E462546B4E0DDE90C34CDE904348C
:10B2E800159B002B01DB0E2FD6DD209A012A36DCB8
:10B2F800139A82B303F233430B9CDDF81880069A45
:10B30800012158461A4406920A9A1A440A921DF0D4
:10B3180035FB054686E53E4653469A4613F8012D09
:10B32800392A06D1089A9A42F7D13022089901366B
:10B338000A701A7801321A7038E700227B4BFDF741
:10B34800C3F80022002304460D46FDF783FE0028BB
:10B358003FF450AF82E7149BC3F13603CCE709F101
:10B36800FF340B9BA34208DBB9F1000FA3EB0404E5
:10B378000EDBDDF818804B46C1E70B9B0F9AE31AEA
:10B388000B94DDF8188000241A444B460F92B6E758
:10B39800069BA3EB09080023B1E7039E71E50B9A0E
:10B3A800039970E5039672E5209B012B17DC049B3B
:10B3B800ABB9059BC3F313039BB9059B23F0004668
:10B3C800360D360536B1069B0126013306930A9BD6
:10B3D80001330A930F9B002B7FF470AD0F96012069
:10B3E80075E50026F6E73FF486AD1C33069A1A4445
:10B3F800984406920A9A1A440A927CE50346F4E7AE
:10B40800099B002B2BDC209B022B09DC27E0B9F1E0
:10B41800000F1DDC209B022B1ADD3E46CDF8249040
:10B42800099B002B7FF40CAE2146052258461DF0DF
:10B4380013FA01460446039826F078FE00287FF7A1
:10B44800FFADDDF820A0312301360AF8013BFBE50A
:10B458000E9B3E46CDF82490002B7FF483AD089FC9
:10B468002146039826F003FC089B00F13009099A4D
:10B4780007F8019BFB1A9A4240F3CB8000230A226B
:10B48800039958461DF0E8F90390E9E72A6905F1A0
:10B498000C010C300232920026F091F90122394653
:10B4A80058461DF085FB089BA846054603F1010A8E
:10B4B800DDE9082313440A93049B03F001030B936B
:10B4C8000AF1FF3321460398069326F0D0FB414644
:10B4D800099000F13009039826F028FE2A462146F3
:10B4E800074658461DF0D0FBC268014602B35846CD
:10B4F8001DF090F9002F3ADA0122039958461DF001
:10B5080057FB2146039026F011FE002803DC29D1C1
:10B5180019F0010F26D0B9F1390F1DD132E02846B4
:10B52800C1E700BF38320300000014400000244087
:10B538000E90039826F0FAFD0E990C9058461DF0CF
:10B5480069F90C9A5ABB209B53B90B9B43B9B9F1C3
:10B55800390F17D0002F05DD099B03F1310901E0F0
:10B56800002F2ADADDF818A00AF8019B6EE5209B67
:10B578003B4304D1049B03F00103002BBCD0B9F179
:10B58800390F36D1069F392307F8013BBA46013FE8
:10B598001AF8013C392B5AD001333B7056E5002F7D
:10B5A80006DB209B3B4306D1049B03F0010313B940
:10B5B800002AA1DCD6E7002AE1DC0A9B57460AF8F4
:10B5C800019C53452ED000230A22039958461DF0AA
:10B5D80043F9A84503904FF000034FF00A02414693
:10B5E80058460BD11DF038F9804605460AF1010A84
:10B5F80066E7DDF818A009F10109B5E71DF02CF997
:10B608002946804600230A2258461DF025F905469A
:10B61800ECE7099B4FF00008002BCCBF1F46012721
:10B62800089B1F440122039958461DF0C1FA214680
:10B63800039026F07BFD0028A8DC02D119F0010F49
:10B64800A4D1BA4617F8013D302BFAD0FEE4089B86
:10B65800BB429BD13123089A01361370F6E4249B30
:10B66800002B7FF420AA014BFFF73FBABD880300E7
:10B67800034A1388138801331BB21380704700BF35
:10B688000E0E0320034A5388538801331BB253809C
:10B69800704700BF0E0E0320034A93889388013336
:10B6A8001BB29380704700BF0E0E032008B50548F3
:10B6B8001EF048FB24F0F5FBBDE8084001460248AF
:10B6C8001EF09ABDB88C00200643030008B5054853
:10B6D8001EF038FB24F0E5FBBDE8084001460248AF
:10B6E8001EF08ABDD08C00201E43030013B504460B
:10B6F8000DF107010DF1060020F054F90A2002F0BF
:10B70800F7F921469DF8072003481EF075FDFF2034
:10B7180002F0EEF902B010BD3643030030B41D4606
:10B72800039B9DF8084093B10A4981F83840087096
:10B738004A800D711C440431A34203D130BC064831
:10B748001EF000BB13F8012B01F8012FF4E730BC01
:10B75800704700BFD40D0320488D0020034B1B7891
:10B7680013B903481EF0EEBA704700BF3810032023
:10B77800708C00201FB56C2026F005F8034648B1F0
:10B788000022011DA0F868200B4805B05DF804EB05
:10B798001EF0F7BA094A0090CDE9010208490222D1
:10B7A8001EF0E0FA40F267620023064805B05DF833
:10B7B80004EB1AF0B3BB00BF182903005C43030075
:10B7C80070300300409800201FB56C2025F0DBFF87
:10B7D800034648B10022011DA0F868200B4805B0B7
:10B7E8005DF804EB1EF0CDBA094A0090CDE90102DC
:10B7F800084902221EF0B6FA40F2676200230648A2
:10B8080005B05DF804EB1AF089BB00BF30290300CE
:10B818008743030070300300709800202DE9F04141
:10B828000B78023B032B44D8DFE803F0025A694542
:10B838004C68CB68B4F86420364D13449BB2A4F826
:10B848006430234413F8013C2E68242B2FD176BB97
:10B858006C2025F098FF304B1860304B1E60012398
:10B868002B602E4803686A2B23D8B4F864702A4EDC
:10B878005A1C013F0260316814F807C0CF1887F8D6
:10B8880004C0B4F864703C4414F8014C0A2C10D17C
:10B89800002402330A44036014712148A1F8683077
:10B8A80025F029FB306825F067FF2C6001E0012EA8
:10B8B800D7D0BDE8F0816C2025F065FF40B10023AA
:10B8C800A0F86830011DBDE8F04116481EF059BACD
:10B8D80040F26762BDE8F041002313481AF01EBB2E
:10B8E8006C2025F050FF00230146A0F868300D4871
:10B8F8006422BDE8F041836804311B691847486831
:10B90800B0F86430002BD4D0BDE8F041043825F0FD
:10B9180033BF00BF9CA50020A4A50020A0A500203F
:10B92800088E0020182903004098002070B586B0C2
:10B938006A4615460C4B03F11806144618685968F0
:10B94800083303C4B3422246F7D1084C20464FF0CF
:10B95800FF324FF0FF331EF024FA18222946002048
:10B9680005F0EAF9F2E700BFB2430300D08C0020EB
:10B9780070B5094E094D4FF0FF324FF0FF33304696
:10B988001EF00FFA0024204601F07EFD2B680134DA
:10B99800A342F0D3F7E700BFB88C0020B8F8022024
:10B9A80010B5074C20464FF0FF324FF0FF331EF022
:10B9B800F8F901F0A5FA002001F046FEF2E700BF11
:10B9C800A88D002070B5194C194E651D4FF0FF3237
:10B9D8004FF0FF3330461EF0E4F9042002F088F8F7
:10B9E80014481EF009FC94F8381013481EF004FCA3
:10B9F80094F90430B4F90220217810481EF0FCFBB9
:10BA0800284694F838100E4A1EF0F6FBE379A2791E
:10BA180061790C481EF0F0FB284694F8381002F0C3
:10BA2800BBF8002002F064F8D0E700BFD40D032073
:10BA3800488D0020CA430300D8430300E1430300B4
:10BA4800014403000C44030070B503788AB004462F
:10BA58000E4607AD032B20D8DFE803F002191B1DA3
:10BA68001149284626F034F8059563781E21049379
:10BA7800A37830460393E3780C4A02932379019321
:10BA880063790093A3791EF0C4FB0AB070BD08491E
:10BA9800E7E70849E5E70849E3E70A212846074AAE
:10BAA8001EF0B7FBE0E700BF16440300384403006C
:10BAB8001D440300244403002E4403008879030036
:10BAC80070B514468EB006AE0D4622F049F83146E0
:10BAD800FFF7BAFF6CB90E4B0322CDE901432046AC
:10BAE8002346CDE903650B4900941EF03BF90EB0DF
:10BAF80070BD094B022202930023CDE90454184675
:10BB0800CDE90033034903961EF02CF9EFE700BF97
:10BB18005B440300703003007944030030B58FB0F4
:10BB280006AD0C4622F01CF82946FFF78DFF074B9F
:10BB3800032202930023CDE903541846CDE90033CC
:10BB480003491EF00FF90FB030BD00BF9D4403003C
:10BB58007030030030B58FB006AD0C4622F000F807
:10BB68002946FFF771FF074B032202930023CDE913
:10BB780003541846CDE9003303491EF0F3F80FB01B
:10BB880030BD00BFC04403007030030010B58CB056
:10BB980004AC21F0E5FF2146FFF756FF064B0322D0
:10BBA8000293002305491846CDE9003303941EF09B
:10BBB800D9F80CB010BD00BFE24403007030030098
:10BBC80030B58FB006AD0C4621F0CAFF2946FFF705
:10BBD8003BFF074B032202930023CDE90354184689
:10BBE800CDE9003303491EF0BDF80FB030BD00BFEA
:10BBF800F84403007030030070B58EB00C4605465B
:10BC080021F0EDFE114B06AE1860284621F0A8FF82
:10BC18003146FFF719FFCDE9036400240C4D0D4BA5
:10BC280029462046029303222346CDE900441EF00C
:10BC380099F8094B0322CDE90143294623462046BA
:10BC480000941EF08FF80EB070BD00BFA8A50020AC
:10BC580070300300F84403000D4503002DE9F04758
:10BC68000024054688B00F46164621461A2201A828
:10BC7800009425F0DEFD284621F072FF6946FFF7A3
:10BC8800E3FE69461F481BF033FEDFF87C80DFF8CF
:10BC98007C90B44207D06C2025F075FD054628B984
:10BCA8001B481BF025FE08B0BDE8F087321B632A4D
:10BCB8008CBF632292B200F1040AA0F868203919F7
:10BCC800504625F07CFDB5F868301C44A4B2A64265
:10BCD8000AD1BA1912F8012C0D2A05D10A21EA183D
:10BCE80001331171A5F8683051464046B5F868200F
:10BCF8001EF04FF80028CCD02946484625F0FBF81E
:10BD0800C7E700BF3C45030030290300388E0020F8
:10BD18005345030008B507481EF014F801210648EA
:10BD28001EF047F824F0BDF8BDE808400146034876
:10BD38001EF062BAA88D00205C8400207E450300B6
:10BD480008B507481DF0FEFF012106481EF031F82E
:10BD580024F0A7F8BDE80840014603481EF04CBA95
:10BD6800D88D0020548400209645030070B5054600
:10BD78000C468CB061B1144B03910293002301224D
:10BD88001846CDE9003311491DF0ECFF0CB070BD29
:10BD980004AE21F0E5FE3146FFF756FE0C4B0322B8
:10BDA8002046CDE9014309492346039600941DF036
:10BDB800D9FF284621F013FE064B012118600648DA
:10BDC8001DF0F7FFE2E700BFAE4503007030030047
:10BDD800C9450300ACA500206C84002030B50C4692
:10BDE8008FB006AD21F0BCFE2946FFF72DFECDE948
:10BDF800035400240D4B0E4D204602930322234684
:10BE0800CDE900440B491DF0ADFF286810B121F0C1
:10BE1800FAFD2C60084C206830B121F0F4FD0021B7
:10BE2800064821601DF0C5FF0FB030BDD6450300A0
:10BE3800A8A5002070300300ACA500206C84002069
:10BE48002DE9F34100266D46DFF83C800F4FB8F826
:10BE58000040013697E80300092C85E803002846CE
:10BE680006F00101D8BFC8241DF0A3FF40F2E73057
:10BE78004FF47A72002300EBC4300021FDF75CF820
:10BE88001DF0D6FFE3E700BF6CAF002064840020FC
:10BE98002DE9F04F4FF0FF324FF0FF33374885B0B0
:10BEA8001DF07FFF364EDFF8DCA0374C0027A34695
:10BEB800DFF8D88063793BB101232279934073601E
:10BEC800237C3374637C73744FF0FF324FF0FF337D
:10BED800504619F0E1FC2568AB68314628465B6896
:10BEE80098472279B8F90010294B019223F81210CB
:10BEF800DFF8A090504619F049FDD9F80030019AB2
:10BF0800012B2DD1296824481EF076F9B8F90010C4
:10BF180022481EF071F96379B8F90050E3B1142191
:10BF2800E37901FB07B1042B0ABF2368E2899B6808
:10BF3800897A08BF1A89237C6A43890644BF03F1BA
:10BF4800FF33DBB2A07903A90193039214F080FBBD
:10BF580010B9039D019B1D41294611481EF04CF95B
:10BF68000137052F04F11404A4D1002340F6CD4075
:10BF78000021C9F800301DF05BFF96E7588C0020BF
:10BF8800408400202CA60020183303002E0E032026
:10BF98001E0E032028A60020F345030006460300D2
:10BFA8000A46030070B5124E124D134C4FF0FF3283
:10BFB8004FF0FF3330461DF0F4FE062001F098FDE7
:10BFC80028461EF019F9FF2001F092FD20461DF0C9
:10BFD800A4FE0A4B187001F0F1F8094B186801F03B
:10BFE80053FA40F6CD4000211DF022FFDEE700BFE6
:10BFF800E88C002014460300843303003910032022
:10C00800B8F802202DE9F8431DF09EFE4FF47A722D
:10C018000023FCF741FF4FF4616200230D460646FA
:10C02800FCF78AFF4FF4616303FB00F1701A65EBBC
:10C03800E1713C220023FCF77FFF4FF0FF320546F9
:10C048004FF0FF3322481DF0ACFEDFF88880224E07
:10C058001DF07AFE4FF47A720023FCF71DFF4FF4AF
:10C06800616200230F468146FCF766FF4FF4616367
:10C0780003FB00F1B9EB01004FF0000367EBE1713E
:10C088003C22FCF759FF6B1C8342044619D13B281C
:10C0980018BF0446404608BF4FF0FF341DF052FE5B
:10C0A8000E4B32785B889A4204D30D481DF04AFE45
:10C0B8000023337033780B480133337025461EF064
:10C0C8009BF840F6CD4000211DF0B2FEC0E700BF4E
:10C0D800F08D0020E88C00202F1003206CAF00208A
:10C0E800608D00202946030070B54FF0FF324FF0F5
:10C0F800FF331B481DF055FE1A4E1B4D01244FF00F
:10C10800FF324FF0FF3330461DF04BFE20462C70B7
:10C1180001F0EEFC23F0C5FE014614481EF06CF851
:10C12800214613481DF045FE1249134A0B79FF2B8F
:10C1380006D02344DBB2A3420B7104BF0323538010
:10C1480051880E481EF058F80D481DF0FBFDFF20E1
:10C1580001F0CEFC0B481DF06DFE00232B70CDE7DF
:10C16800888C0020708C0020381003203F46030084
:10C1780054840020301003206CAF00205C4603007C
:10C18800608D0020A08601001FB50B78052B29D8EB
:10C19800DFE803F003952C6B84498B6813B3486878
:10C1A80000B3514A1368FBB1181F002313604F4AAC
:10C1B800136025F0E1FA002200234D4819F024FC11
:10C1C80080B1B0F86820011D4A481DF0E2FD48B171
:10C1D800494B0222029300231846CDE90033474910
:10C1E8001DF0C0FD04B010BD0438E2E74A68CB6812
:10C1F800B2F86400034442489BB2A2F86430027863
:10C20800002AEFD14A68134413F8013C0A2B01D0E5
:10C218000D2BE7D101230370364883685B6904B0AE
:10C22800BDE8104018470024354B6C201C7025F0E1
:10C23800AAFA034640B1A0F86840011D2D4804B091
:10C24800BDE810401DF09DBD2E4A0090CDE90102C9
:10C258002A4902221DF086FD40F2676200232A481F
:10C2680004B0BDE8104019F059BE6C2025F08BFAD7
:10C27800034660B10022A0F868201E48191D826894
:10C2880014696422234604B0BDE8104018471D4ACB
:10C298001A49CDE9010200900222A1E74B68191F53
:10C2A800B3F864302BB1194804B0BDE8104024F04D
:10C2B80022BE084604B0BDE8104025F05DBA0A4A1F
:10C2C80013680BB94B68136008488B6801680B4406
:10C2D80011680360B1F864200648D21A194404B002
:10C2E800BDE810401DF055BD7CA5002078A50020B4
:10C2F800388E002030290300824603007030030086
:10C308002E100320A046030070980020208E0020E5
:10C318002DE9F04F85B01DF017FD764B764F9A88C2
:10C3280018689B79ADF808208DF80A300023ADF81D
:10C338000B308DF80D300A234FF4F074ADF800304F
:10C3480020223B460190013C03F8012BFBD16C20D5
:10C3580025F019FA4FF0FF324FF0FF3367481DF010
:10C3680020FDA14626462546DFF89481DFF888A1FE
:10C378004FF0FF324FF0FF33404619F045FB83463C
:10C38800404624F0ACFDBBF86810D9B18946CEB957
:10C39800324630460BF1030C1CF8013F522B06D8ED
:10C3A800462B5DD8242B7BD0432B00F08E800130A8
:10C3B8008842F1D3062D05D10BF1040B8A42C0F057
:10C3C800898001264FF0FF334FF0FF32404619F0C5
:10C3D8001BFBB0F86830002BCAD06EB1B4F5F07F03
:10C3E8000DD209F10302C31C1044984202D0B4F5DF
:10C3F800F07F77D10136F6B2B4F5EF7FB8D901A94D
:10C408005046404C25F09DFB69461BF0A5FA1422C6
:10C4180021461DF03EFD0C2817D1A3683A4D1B7824
:10C42800403BDBB2012B2B730FD1E06825F0B0F94C
:10C43800FCF784FA6860606925F0AAF9FCF77EFACF
:10C44800616AA860606800F091FD3B464FF4F074A3
:10C458002022013C03F8012BFBD12646254687E71D
:10C46800473B0B2BA3D80FF2080E5EF823F000BF52
:10C47800B3C40000B7C30000B7C30000B7C30000CF
:10C48800B7C30000B7C30000CBC40000B7C30000A7
:10C49800B7C30000BBC40000B7C30000C3C400009A
:10C4A800012D38BF0125EDB281E7012D08BF022516
:10C4B8007DE7022D08BF032579E7032D08BF042572
:10C4C80075E7042D08BF052571E7052D04BF06256E
:10C4D800421F6CE71BF8023001320D2B1CBF3B5585
:10C4E80001346BE713F8012F0D2A1CBF3A550134AC
:10C4F8007BE700BFD03003004E0E0320008D0020E4
:10C50800088E002028A50020B4A5002070B54FF0A3
:10C51800FF324FF0FF330D481DF043FC0C4D0D4E1C
:10C528004FF0FF324FF0FF33284619F06DFA0446FA
:10C53800B0F86820011D002004F0FEFB10B1304661
:10C548001DF05AFE204625F017F9E9E7A08C0020D7
:10C55800208E0020C9460300F8B54A4C4A4B4FF0DC
:10C56800FF32236049484FF0FF331DF01AFC0A20C0
:10C5780001F0BEFA46481DF03FFEFF2001F0B8FA70
:10C58800206824F048FB30B9236842481968BDE8A0
:10C59800F8401DF031BE052005F0EEFD3E4805F0DF
:10C5A800A3FF3E4805F0B0FF0A201FF00AFA3C4EF0
:10C5B8003C4D3D4C3D4F0A2001F09AFA30461DF0A3
:10C5C8001BFEFF2001F094FA00214FF400401DF0FB
:10C5D8002FFC05F09FFF00214FF480401DF028FC40
:10C5E800012005F0F3FE14F027F800232375304BE3
:10C5F80080B223602F4BE0602B48C4E901332761E8
:10C6080005F0EAFD00284FF00A002CDB01F070FA73
:10C6180029481DF0F1FDFF2001F06AFA012385F891
:10C628004830636825495A1E0F3312F8010F9A42A1
:10C6380001F8010FF9D1E368214C6B6400F082FC2A
:10C6480000F08AFC01F0D6F9002323702378002B30
:10C65800AFD14FF0FF324FF0FF331A481DF0A1FB66
:10C6680001F06EF8F2E701F043FA17481DF0C4FD37
:10C67800FF2001F03DFA4FF4D41000211DF0D8FB43
:10C6880099E700BF98A50020D8290300308D002025
:10C69800FD4603001647030034840020F5B6000069
:10C6A8002E4703006CAF002080A50020588A002088
:10C6B800508A0020408A00204A4703009DAF00208E
:10C6C80037100320608D00205847030038B50A2032
:10C6D80001F00EFA3C4C3D48A06224F09CFA30B9B7
:10C6E800A36A3B481968BDE838401DF085BD0021A4
:10C6F800A06A2160374D2A4623F0E0F820B1364879
:10C70800BDE838401DF078BD6B682046A3814FF422
:10C718000063E38103F0C8FA08B13048F0E7304D10
:10C7280004232A46012120461EF082FA00282CDD27
:10C7380001212A682B481DF05FFD2B4C042322465B
:10C74800022121481EF074FA002829DD22680221FE
:10C7580026481DF051FD264B1A68B2F5B46F3EBF4E
:10C76800226801321A601A68B2F5B46F01D100224A
:10C778001A6003214C231F4A13481EF059FA002857
:10C788004FF0030117DD1C48ADE701211B481DF0E0
:10C7980033FD04232A460121204603F057FCCCE749
:10C7A800022117481DF028FD0423224602210648CD
:10C7B80003F04CFCDDE713481DF01EFD01F0BAF84C
:10C7C800BDE8384000F0BEBBF8A50020C029030032
:10C7D80089470300ECA50020A7470300C0470300D2
:10C7E800E8A50020D3470300B8F802201D4803003D
:10C7F800BCF802206CAF00206F480300F04703002C
:10C808003B4803008148030084B02DE9F04106ACA1
:10C8180084E80F003D20BDF8F06724F0B4FF002441
:10C828000546DFF85480771EA7421DD9B44201D3CC
:10C8380000220FE000226B1E04F118016944013246
:10C84800097992B23D2A03F8011F04F1010401D0CD
:10C85800A642F1D82946002004F06EFA0028E3D059
:10C8680040461DF0C9FCDFE7284624F085FFBDE8F7
:10C87800F041002004B07047B348030010B5054CE0
:10C888004FF0FF324FF0FF3320461DF08AFA1DF0BB
:10C89800E1FAF5E7D88D0020F8B5364C0E2001F006
:10C8A80027F920464FF480311DF097FA20464FF0C3
:10C8B800B8611DF0A7FA3049304B314C4B604FF44A
:10C8C800000320468B602F4D1DF06DFA26682E4F11
:10C8D8001722314628461DF08FFC38464FF4803128
:10C8E8001DF07BFA38464FF0B8611DF08BFA2749E6
:10C8F800274B20464B604FF08073264F8B601DF00E
:10C9080052FA1822314628461DF076FC38464FF474
:10C9180080311DF062FA38464FF0B8611DF072FAA6
:10C928001D491E4B20464B604FF480731C4F8B6093
:10C938001DF039FA0822314628461DF05DFC3846BC
:10C948004FF480311DF049FA38464FF0B8611DF0B8
:10C9580059FA1449144B20464B604FF400738B600E
:10C968001DF021FA31462846BDE8F84009221DF09D
:10C9780043BC00BFBC33030094A6002049BD00009F
:10C98800D0280300D7480300B433030088A600204A
:10C998001DBD0000AC3303007CA60020B5B6000026
:10C9A800A433030070A60020D5B60000F8B5484CA3
:10C9B8000E2001F09DF84FF4803120461DF00DFA4D
:10C9C80020461DF0AAF9014642481DF015FC2046F4
:10C9D8004FF0B8611DF016FA3F49404B404C4B6090
:10C9E800102320468B603F4D1DF0DDF926683E4F31
:10C9F8000422314628461DF0FFFB4FF480313846AB
:10CA08001DF0EBF938461DF088F9014637481DF04E
:10CA1800F3FB38464FF0B8611DF0F4F93449354B53
:10CA2800354F4B60202320468B601DF0BCF9052252
:10CA3800314628461DF0E0FB4FF4803138461DF0A2
:10CA4800CCF938461DF069F901462C481DF0D4FB95
:10CA580038464FF0B8611DF0D5F92949294B2046D1
:10CA68004B604023284F8B601DF09DF9062231460C
:10CA780028461DF0C1FB4FF4803138461DF0ADF952
:10CA880038461DF04AF9214F014621481DF0B4FBF4
:10CA98004FF4803138461DF0A0F938461DF03DF9B5
:10CAA80001461C481DF0A8FB38464FF098611DF060
:10CAB800A9F91949194B20464B6080238B601DF05A
:10CAC80072F931462846BDE8F84007221DF094BBAC
:10CAD8009C330300F348030064A6002079B60000E5
:10CAE800B82803000B490300943303002E490300C0
:10CAF80058A600208DB600008C3303004649030079
:10CB08004CA60020A1B60000843303007C33030048
:10CB18005E4903008449030040A6002065B7000071
:10CB280008B54FF400310A481DF057F94FF40031A9
:10CB380008481DF052F94FF4003107481DF04DF92F
:10CB4800BDE808404FF4003104481DF046B900BF65
:10CB58006C840020648400205C84002054840020BD
:10CB680008B5002108481DF024F9002107481DF0E8
:10CB780020F9002106481DF01CF9BDE808400021F5
:10CB880004481DF016B900BF6C840020648400209E
:10CB98005C8400205484002038B50025124C54F8D9
:10CBA800060C24F038F820B91048BDE838401DF0CC
:10CBB80023BB14F8013C6BB154F8060C836821467A
:10CBC8001B689847021E08DA2946BDE8384008481D
:10CBD8001DF012BB6FF08502F6E70135052D04F153
:10CBE8001404DCD138BD00BF1E3303009C49030088
:10CBF800BD49030070B503208AB000F079FF7A4878
:10CC080024F0F3F8FFF78CFFFFF7AAFFFFF744FEC5
:10CC1800FFF7CCFEFFF7C0FF744D284623F0FBFF5B
:10CC2800D8B16C2024F0AFFD0446B0B1002670499D
:10CC3800A0F868606F4824F039FAAB681B6873B9CC
:10CC4800204624F099FD6C4B0122029300236B4986
:10CC58001846CDE900331DF085F81DF011F932466C
:10CC68002846674998470028EAD16C2024F08BFDB4
:10CC780006460028F1D0031D1846624924F028FF13
:10CC880026220146A6F8682028461DF082F80146AB
:10CC980018B15D481AF02CFEDFE72846211D1DF06B
:10CCA80070F80028D9D159480FF030FD28B15848FC
:10CCB8000AB0BDE870401DF09FBA56480FF040FD1D
:10CCC80008B15548F4E70DF007FE0028C5D1062045
:10CCD80000F00EFF51481AF00BFE51481AF008FEFA
:10CCE80050481AF005FEFF2000F002FF4E481DF0E4
:10CCF80029F84E4804F014F8014628B14C480AB007
:10CD0800BDE870401AF0F4BD4A4D05AC0FCD0FC414
:10CD18002B68012523600222474B4849009505A846
:10CD28000EF052FC044628B1014645481AF0E0FDD1
:10CD38000AB070BD434B4FF496701D601DF07AF831
:10CD4800FFF7C4FC00F0F6FD00F0FCF800F004F971
:10CD580000F050FE3C4E304623F05DFF00283FF4C3
:10CD68007CAF6C2024F00FFD3849A0F868400546D8
:10CD7800374824F09BF9B3681B681BB1224630463C
:10CD880034499847291D30481CF0FBFF32481CF0F5
:10CD9800D9FFC8201DF04EF830481CF0D3FF4FF4DF
:10CDA8007A701DF047F82E481CF0CCFF4FF47A70CB
:10CDB8001DF040F82B481CF0C5FF47F230501DF01D
:10CDC80039F829481CF0BEFF012000F091FE2748E1
:10CDD8001DF012FAFF2000F08BFE4FF4F010002136
:10CDE8001DF026F8F9E700BF2CA600203029030023
:10CDF800D1B7000070980020DF49030070300300AD
:10CE080091C10000FF490300264A03001C8400204A
:10CE18004F4A03000C8400207C4A0300AE4A0300FA
:10CE2800C74A0300E84A0300A08C002000840020C1
:10CE3800114B0300DC300300003303000833030008
:10CE48003D4B030028A60020182903007DB70000E9
:10CE58004098002025B80000588C0020F08D002054
:10CE6800008D0020308D0020888C0020624B03004C
:10CE780002460B46014818F00FBD00BFF08B00209A
:10CE8800014818F083BD00BFF08B0020104B37B568
:10CE98005A790546D2B1DA791C7C042A09BF1A6886
:10CEA800D989926811899A7A9206026848BF04F172
:10CEB800FF3401FB02F2987901A948BFE4B201925C
:10CEC80013F0C6FB10B9019B23412B6003B030BDA2
:10CED8001833030001210346084A1068127991406B
:10CEE80002691268114218BF83F0010313B1836805
:10CEF800DB68184783681B69FBE700BF5484002080
:10CF080010B50D4C012123682246013323600B48DC
:10CF1800042303F09BF804232246012107481DF04F
:10CF280087FE002806DD22680121BDE8104004487C
:10CF38001DF062B910BD00BFE8A50020F8A50020CB
:10CF4800D34703004C230321014A024803F07EB86B
:10CF58006CAF0020F8A500204C230321014A0248A9
:10CF68001DF066BE6CAF0020F8A5002073B50B78E5
:10CF780004468DF804304B7801A80D468DF805302D
:10CF880024F009FC1B4EF061AB7801A88DF8043041
:10CF9800EB788DF8053024F0FEFB013830622B79F0
:10CFA80001A88DF804306B798DF8053024F0F3FB77
:10CFB8007062237801A88DF8043063788DF8053005
:10CFC80024F0E9FBB061A37801A88DF80430E37878
:10CFD8008DF8053024F0DFFB7061237901A88DF806
:10CFE800043063798DF8053024F0D5FB306102B048
:10CFF80070BD00BFB4A5002010B5154C8AB0636A97
:10D0080001A864330693236A0593E3690493A3692B
:10D01800039363690293236901934FF0FF330993E4
:10D0280019F0C8FE237B012B10D024F0EEF94FF441
:10D038007A72A0FB020302FB0131C00B40EA4140B7
:10D048004FF47A720023C90BFBF726FF0AB010BD14
:10D05800B4A5002070B5054B04465E689D68FFF7CF
:10D06800CBFF66602060A560204670BDB4A5002097
:10D0780038B50D460446FFF7BFFF034B33F91530AB
:10D08800C4E90003204638BD1E0E032070B50D46C6
:10D098000446FFF7B1FF022D4FF000060AD0032D1A
:10D0A8000CD0012D02D1074BB3F902602060A68095
:10D0B800204670BD034BB3F90460F7E7014BB3F9A1
:10D0C8000660F3E71E0E032038B50D460446FFF749
:10D0D80093FF0021044B33F9152023F81510C4E9F8
:10D0E8000002204638BD00BF0E0E032070B505466D
:10D0F8000C464FF0FF304FF0FF31FFF7B9FE6820C4
:10D1080024F041FB04F57A7168230246064689B289
:10D1180006481DF08DFD81B205481AF0E9FB68222A
:10D128003146284624F04BFB284670BDF8A5002060
:10D138007B4C030070B5044618481DF05DF8682163
:10D1480017481AF0D5FB682024F01DFB6826054611
:10D158001449324606FB041124F031FB21461248DB
:10D168001AF0C6FB04F57A71104C33462A4620465D
:10D1780089B202F06BFF81B20D481AF0B9FB0423A3
:10D18800022120460B4A02F061FF0B481DF034F8DB
:10D198002846BDE8704024F0EFBA00BF914C030068
:10D1A800974C0300B8AF0020B34C0300F8A500204B
:10D1B800C04C0300B8F80220D74C03002DE9F04317
:10D1C800454F4FF0FF304FF0FF319BB0FFF750FE57
:10D1D8003C68B4F5B46F7CD2E8464FF06809454620
:10D1E8003E4E3F4B40461C6009FB04640434FFF785
:10D1F80031FF0FCD0FC40FCD0FC40FCD0FC42B6857
:10D20800002123603C68404609FB04643834FFF77A
:10D218002FFF98E8030084E8030001210EA8FFF718
:10D2280035FF3B68BDF83C2009FB03630221A3F8E6
:10D23800442010A8FFF72AFF3B68BDF8442009FBEB
:10D2480003630321A3F84C2012A8FFF71FFF3B68D4
:10D25800BDF84C2009FB03630121A3F8542014A84E
:10D26800FFF714FF3B68149A09FB036302211A6451
:10D2780016A8FFF70BFF3B68169A09FB0363032107
:10D288009A6418A8FFF702FF3C68189B09FB04641E
:10D29800002123654046FFF717FF98E803003B6825
:10D2A800583409FB036684E80300603601214046D0
:10D2B800FFF70AFF98E8030086E803003868FFF7DD
:10D2C80039FF3B6801333B601BB0BDE8F043FFF713
:10D2D800D7BD0023F7E700BFBCF80220B8AF002095
:10D2E800B8F80220F0B51C4B89B018689B880090EC
:10D2F800182200210DF10600ADF80430012624F0B3
:10D3080098FA0023154C7025C4E900364FF0804385
:10D31800A360134B0527E3600B232361114B636163
:10D32800A56169462677667704F11E0024F0D0FBD4
:10D3380005F2E73384F8326084F83370636305F5E7
:10D348007A70FBF705FC0135762DA06304F12404FF
:10D35800E6D1024809B0F0BD683103007CAE002078
:10D368000000404000004041F0B54FF0FF31ADF201
:10D37800144D07464FF0FF30FFF77AFDFFF7B2FF75
:10D3880002228DF83020ADF832203A4A0CAE0D92C8
:10D3980031460C22034645688468C068013A8D60AE
:10D3A800CC60086101F10C01F8D11C6958690CA91D
:10D3B80001320C2AC1F89840C1F89C0001F108011B
:10D3C800F6D103F11E0503F1F60455F8063C29468B
:10D3D800C6F8F83015F8023C06F1FE0086F8FC3075
:10D3E80015F8013C86F8FD3024F072FB2B7D0022F5
:10D3F80086F812316B7DD5F8160086F8133133465E
:10D40800D5F81A1001320C2AC3F81401C3F8181100
:10D4180003F10803F6D12435A54206F17C06D4D1E0
:10D428006C464FF4FB626846134907AD00F07AFC7E
:10D438000FCC0FC5236811490CAA07A82B6000F070
:10D44800F1FE00230A980C490D4A83420BD10D497D
:10D4580040F2DC723846A1F8D83724F0B0F93846E3
:10D468000DF2144DF0BD11F8014B013302F8014FD4
:10D47800EBE700BF87D612003A100320D033030031
:10D48800A3A60020A0A600202DE9F04F80464FF06B
:10D49800FF318FB04FF0FF30FFF7EAFC59481CF01E
:10D4A800ABFE414658481AF023FA584B58481B7BA4
:10D4B800012B40F098801CF09FFE56486824564F78
:10D4C8001AF016FA04FB08744E481CF095FEA06882
:10D4D800FAF7A2FF0E22CDE90001504B002106A861
:10D4E80024F0CFFAE068FAF797FF4C4BCDE900013A
:10D4F8000E2200210AA824F0C4FA9DF819209DF8EC
:10D50800181047481AF0F4F9022303F138020DEB1A
:10D51800020111F8202C002A69D106A941481AF005
:10D52800E7F99DF829209DF828103F481AF0E0F9FE
:10D53800022303F138020DEB020111F8102C002A26
:10D548005AD1682404FB08F40AA93D1937481AF08F
:10D55800CFF9A868FAF760FF6B6882460293E8681B
:10D568008B46FAF759FF5246CDE900015B46304831
:10D578001AF0BEF9EB6B05A80593FFF787FCE96B7A
:10D58800059A2C481AF0B4F9012504F13C062A4CF6
:10D598003E44E9B236F8350036F935A0FBF73CFFD2
:10D5A800FAF73AFF05F1FF39CDE90001524649463D
:10D5B800204601351AF09CF9042DEAD1682303FBB3
:10D5C80008770021FA6D1D481AF092F901217A6E48
:10D5D8001A481AF08DF91A481CF00EFEFFF750FC95
:10D5E8000FB0BDE8F08F1CF007FE164866E7013360
:10D5F80001F8222CDBB288E7013301F8122CDBB2E8
:10D6080097E700BFDC4C0300E24C0300B4A5002000
:10D61800FB4C0300014D0300B8AF0020224D03006E
:10D62800254D03004D4D0300474D0300514D0300A8
:10D63800564D0300914D0300AA4D0300C34D03004E
:10D64800D74C0300124D03002DE9F0470546A0B062
:10D65800682024F098F80446294604A8FFF746FDF8
:10D66800682204A9204624F0AAF84FF0FF314FF0B1
:10D67800FF30FFF7FDFB2B481CF0BEFD29462A486A
:10D688001AF036F9A068FAF7C7FE636806460293EF
:10D69800E0680F46FAF7C0FE3246CDE900013B4686
:10D6A80022481AF025F9E36B1FA81F93FFF7EEFB3A
:10D6B800D4E90E121F9B1E481AF01AF925460026B7
:10D6C800DFF87080771CB5F84400F9B2D5F84090BF
:10D6D800B5F944A0FBF7A0FEFAF79EFE5346CDE944
:10D6E80000014A46314640461AF002F9032F3E46E9
:10D6F80005F10805E6D1D4E9162300210E481AF0F1
:10D70800F7F8D4E9182301210B481AF0F1F80B486F
:10D718001CF072FD204624F02FF820B0BDE8F04739
:10D72800FFF7AEBBDC4C0300E24C0300D84D03000E
:10D73800044E03002A4E0300504E0300D74C03004A
:10D748002DE9F04F6A4B8DB006AC03F1180522465F
:10D7580018685968083303C2AB421446F7D14FF032
:10D76800FF314FF0FF30FFF783FB6822614B624CBB
:10D778001B6806AD02FB0344A36860680293E36874
:10D788000393FBF7E5F90490E06BFBF7E1F9B4F8D4
:10D79800543094F864B0B4F944A0B4F84470B4F9BF
:10D7A8004C90B4F84C60B4F954800590019304246B
:10D7B800FFF766FB2B460DF1080C03A804A905AA80
:10D7C8001CF801EB013C03F801EB10F801EB83F8BE
:10D7D80003E011F801EB83F807E012F801EB83F896
:10D7E8000BE0EDD1454B46481B79C6F307268DF86B
:10D7F8002830019BC7F30727C3F307238DF82D6053
:10D808008DF82F308DF829B08DF82AA08DF82B705F
:10D818008DF82C908DF82E801CF0EEFC39481CF009
:10D82800EBFC394E304615F8011B01341CF0E4FCC2
:10D83800182CF7D135481CF0DFFC354E35481CF064
:10D84800DBFC35481CF0D8FC337806A9013333706B
:10D8580022460023022004F0CDFD011E2F4D3ADAA6
:10D868002F481CF0C9FC0B274FF00008DFF8B490D4
:10D87800DFF8B4A0182200230DEB0201022004F007
:10D88800B9FD2B680446312B03F1010209BF0123BE
:10D898002A60C5F8008089F8003070B923481CF068
:10D8A800ABFC2C603378312B04D901221D4B1A7044
:10D8B800002333700DB0BDE8F08F014650461CF0D0
:10D8C8009BFC4FF4C030002118F0F6FD002CE9DA7B
:10D8D800013FCFD1E6E70D481CF08EFC14481CF040
:10D8E8008BFC0D481CF088FC00232B60DAE700BF96
:10D8F80086310300B8F80220B8AF002030100320AA
:10D90800724E0300784E0300894E03008F4E0300C9
:10D9180036100320954E0300D74C0300B0A5002015
:10D92800AA4E030037100320EE4E0300DB4E03001F
:10D93800164F030070B588B06B46254A04AC1068D2
:10D948005168244A03C310685168224603C3224B16
:10D9580003F11006254618685968083303C5B34211
:10D968002C46F7D1684608231C4910F8014B013BA7
:10D9780013F0FF0301F8014FF7D10823184902A853
:10D9880010F8014B013B13F0FF0301F8014FF7D1E9
:10D9980011461A461348013211F8014BD2B2102A27
:10D9A80000F8014FF7D100220F490133DBB2102BE9
:10D9B80001F8012FF9D10D4B0D49C3E9022283F873
:10D9C80048205A6419601A71DA801A8208B070BD4A
:10D9D8002B4F0300344F03003D4F03007DAF002061
:10D9E80085AF00208DAF00209DAF00206CAF0020D8
:10D9F800C8000500F8B52F4C2F4821881CF0FCFB07
:10DA080061882E481CF0F8FB2D481CF0F5FB00251A
:10DA18002C4F04F11106384616F8011F01351CF089
:10DA2800EBFB082DF7D128481CF0E6FB27481CF033
:10DA3800E3FB0025264E234F384616F8011F013513
:10DA48001CF0DAFB082DF7D11F481CF0D5FB214844
:10DA58001CF0D2FB0025204E1A4F384616F8011F3D
:10DA680001351CF0C9FB102DF7D117481CF0C4FB79
:10DA78001A481CF0C1FB0025194E124F384616F8FB
:10DA8800011F01351CF0B8FB102DF7D10E481CF012
:10DA9800B3FB1448616C1CF0AFFB94F84830012BC1
:10DAA8000CBF114811481CF0A7FBBDE8F840064818
:10DAB8001CF0A2BB6CAF00204E4F03006046030071
:10DAC8006B4F0300894E0300294F0300764F030074
